{"contracts/Escrow.sol":{"DeFiLanceEscrow":{"abi":[{"inputs":[{"internalType":"address","name":"_platformWallet","type":"address"}],"stateMutability":"nonpayable","type":"constructor"},{"inputs":[{"internalType":"address","name":"owner","type":"address"}],"name":"OwnableInvalidOwner","type":"error"},{"inputs":[{"internalType":"address","name":"account","type":"address"}],"name":"OwnableUnauthorizedAccount","type":"error"},{"inputs":[],"name":"ReentrancyGuardReentrantCall","type":"error"},{"anonymous":false,"inputs":[{"indexed":true,"internalType":"uint256","name":"jobId","type":"uint256"},{"indexed":false,"internalType":"uint256","name":"amount","type":"uint256"}],"name":"AutoReleaseTriggered","type":"event"},{"anonymous":false,"inputs":[{"indexed":true,"internalType":"uint256","name":"jobId","type":"uint256"},{"indexed":true,"internalType":"address","name":"raiser","type":"address"},{"indexed":false,"internalType":"uint256","name":"deposit","type":"uint256"}],"name":"DisputeRaised","type":"event"},{"anonymous":false,"inputs":[{"indexed":true,"internalType":"uint256","name":"jobId","type":"uint256"},{"indexed":false,"internalType":"uint256","name":"clientAmount","type":"uint256"},{"indexed":false,"internalType":"uint256","name":"freelancerAmount","type":"uint256"},{"indexed":false,"internalType":"string","name":"notes","type":"string"}],"name":"DisputeResolved","type":"event"},{"anonymous":false,"inputs":[{"indexed":true,"internalType":"uint256","name":"jobId","type":"uint256"},{"indexed":false,"internalType":"uint256","name":"amount","type":"uint256"}],"name":"FundsReclaimed","type":"event"},{"anonymous":false,"inputs":[{"indexed":true,"internalType":"uint256","name":"jobId","type":"uint256"},{"indexed":false,"internalType":"uint256","name":"freelancerAmount","type":"uint256"},{"indexed":false,"internalType":"uint256","name":"platformFee","type":"uint256"}],"name":"JobApproved","type":"event"},{"anonymous":false,"inputs":[{"indexed":true,"internalType":"uint256","name":"jobId","type":"uint256"},{"indexed":true,"internalType":"address","name":"token","type":"address"},{"indexed":false,"internalType":"uint256","name":"amount","type":"uint256"},{"indexed":false,"internalType":"uint256","name":"stake","type":"uint256"}],"name":"JobFunded","type":"event"},{"anonymous":false,"inputs":[{"indexed":true,"internalType":"address","name":"previousOwner","type":"address"},{"indexed":true,"internalType":"address","name":"newOwner","type":"address"}],"name":"OwnershipTransferred","type":"event"},{"anonymous":false,"inputs":[{"indexed":true,"internalType":"uint256","name":"jobId","type":"uint256"},{"indexed":false,"internalType":"string","name":"notes","type":"string"}],"name":"RevisionRequested","type":"event"},{"anonymous":false,"inputs":[{"indexed":true,"internalType":"uint256","name":"jobId","type":"uint256"},{"indexed":false,"internalType":"uint256","name":"revisionNumber","type":"uint256"},{"indexed":false,"internalType":"string","name":"ipfsHash","type":"string"}],"name":"RevisionSubmitted","type":"event"},{"anonymous":false,"inputs":[{"indexed":true,"internalType":"uint256","name":"jobId","type":"uint256"},{"indexed":true,"internalType":"address","name":"freelancer","type":"address"},{"indexed":false,"internalType":"uint256","name":"amount","type":"uint256"}],"name":"StakeSlashed","type":"event"},{"anonymous":false,"inputs":[{"indexed":true,"internalType":"uint256","name":"jobId","type":"uint256"},{"indexed":false,"internalType":"string","name":"ipfsHash","type":"string"},{"indexed":false,"internalType":"string","name":"gitCommitHash","type":"string"}],"name":"WorkSubmitted","type":"event"},{"inputs":[],"name":"REVIEW_WINDOW","outputs":[{"internalType":"uint256","name":"","type":"uint256"}],"stateMutability":"view","type":"function"},{"inputs":[],"name":"REVISION_REVIEW_WINDOW","outputs":[{"internalType":"uint256","name":"","type":"uint256"}],"stateMutability":"view","type":"function"},{"inputs":[],"name":"SUBMISSION_WINDOW","outputs":[{"internalType":"uint256","name":"","type":"uint256"}],"stateMutability":"view","type":"function"},{"inputs":[{"internalType":"uint256","name":"jobId","type":"uint256"}],"name":"approveJob","outputs":[],"stateMutability":"nonpayable","type":"function"},{"inputs":[{"internalType":"address","name":"","type":"address"}],"name":"arbitrators","outputs":[{"internalType":"bool","name":"","type":"bool"}],"stateMutability":"view","type":"function"},{"inputs":[{"internalType":"uint256","name":"jobId","type":"uint256"}],"name":"autoReleasePayment","outputs":[],"stateMutability":"nonpayable","type":"function"},{"inputs":[],"name":"defaultArbitrationDeposit","outputs":[{"internalType":"uint256","name":"","type":"uint256"}],"stateMutability":"view","type":"function"},{"inputs":[],"name":"defaultPlatformFee","outputs":[{"internalType":"uint256","name":"","type":"uint256"}],"stateMutability":"view","type":"function"},{"inputs":[],"name":"defaultStakePercentage","outputs":[{"internalType":"uint256","name":"","type":"uint256"}],"stateMutability":"view","type":"function"},{"inputs":[{"internalType":"uint256","name":"jobId","type":"uint256"},{"internalType":"address","name":"freelancer","type":"address"},{"internalType":"address","name":"token","type":"address"},{"internalType":"uint256","name":"amount","type":"uint256"},{"internalType":"bool","name":"requiresStake","type":"bool"},{"internalType":"uint256","name":"allowedRevisions","type":"uint256"}],"name":"fundJob","outputs":[],"stateMutability":"nonpayable","type":"function"},{"inputs":[{"internalType":"uint256","name":"jobId","type":"uint256"}],"name":"getJob","outputs":[{"components":[{"internalType":"address","name":"client","type":"address"},{"internalType":"address","name":"freelancer","type":"address"},{"internalType":"address","name":"token","type":"address"},{"internalType":"uint256","name":"amount","type":"uint256"},{"internalType":"uint256","name":"platformFee","type":"uint256"},{"internalType":"uint256","name":"freelancerStake","type":"uint256"},{"internalType":"uint256","name":"arbitrationDeposit","type":"uint256"},{"internalType":"uint256","name":"submissionDeadline","type":"uint256"},{"internalType":"uint256","name":"reviewDeadline","type":"uint256"},{"internalType":"uint256","name":"approvalDeadline","type":"uint256"},{"internalType":"string","name":"ipfsHash","type":"string"},{"internalType":"string","name":"gitCommitHash","type":"string"},{"internalType":"uint256","name":"currentRevisionNumber","type":"uint256"},{"internalType":"uint256","name":"allowedRevisions","type":"uint256"},{"internalType":"bool","name":"autoReleaseEnabled","type":"bool"},{"internalType":"enum DeFiLanceEscrow.JobStatus","name":"status","type":"uint8"},{"internalType":"bool","name":"exists","type":"bool"}],"internalType":"struct DeFiLanceEscrow.Job","name":"","type":"tuple"}],"stateMutability":"view","type":"function"},{"inputs":[{"internalType":"address","name":"user","type":"address"}],"name":"getReputationStrikes","outputs":[{"internalType":"uint256","name":"","type":"uint256"}],"stateMutability":"view","type":"function"},{"inputs":[{"internalType":"uint256","name":"jobId","type":"uint256"}],"name":"getRevisions","outputs":[{"components":[{"internalType":"string","name":"ipfsHash","type":"string"},{"internalType":"string","name":"gitCommitHash","type":"string"},{"internalType":"uint256","name":"timestamp","type":"uint256"},{"internalType":"string","name":"notes","type":"string"}],"internalType":"struct DeFiLanceEscrow.Revision[]","name":"","type":"tuple[]"}],"stateMutability":"view","type":"function"},{"inputs":[{"internalType":"uint256","name":"","type":"uint256"}],"name":"jobs","outputs":[{"internalType":"address","name":"client","type":"address"},{"internalType":"address","name":"freelancer","type":"address"},{"internalType":"address","name":"token","type":"address"},{"internalType":"uint256","name":"amount","type":"uint256"},{"internalType":"uint256","name":"platformFee","type":"uint256"},{"internalType":"uint256","name":"freelancerStake","type":"uint256"},{"internalType":"uint256","name":"arbitrationDeposit","type":"uint256"},{"internalType":"uint256","name":"submissionDeadline","type":"uint256"},{"internalType":"uint256","name":"reviewDeadline","type":"uint256"},{"internalType":"uint256","name":"approvalDeadline","type":"uint256"},{"internalType":"string","name":"ipfsHash","type":"string"},{"internalType":"string","name":"gitCommitHash","type":"string"},{"internalType":"uint256","name":"currentRevisionNumber","type":"uint256"},{"internalType":"uint256","name":"allowedRevisions","type":"uint256"},{"internalType":"bool","name":"autoReleaseEnabled","type":"bool"},{"internalType":"enum DeFiLanceEscrow.JobStatus","name":"status","type":"uint8"},{"internalType":"bool","name":"exists","type":"bool"}],"stateMutability":"view","type":"function"},{"inputs":[],"name":"owner","outputs":[{"internalType":"address","name":"","type":"address"}],"stateMutability":"view","type":"function"},{"inputs":[],"name":"platformWallet","outputs":[{"internalType":"address","name":"","type":"address"}],"stateMutability":"view","type":"function"},{"inputs":[{"internalType":"uint256","name":"jobId","type":"uint256"}],"name":"raiseDispute","outputs":[],"stateMutability":"payable","type":"function"},{"inputs":[{"internalType":"uint256","name":"jobId","type":"uint256"}],"name":"reclaimFunds","outputs":[],"stateMutability":"nonpayable","type":"function"},{"inputs":[],"name":"renounceOwnership","outputs":[],"stateMutability":"nonpayable","type":"function"},{"inputs":[{"internalType":"address","name":"","type":"address"}],"name":"reputationStrikes","outputs":[{"internalType":"uint256","name":"","type":"uint256"}],"stateMutability":"view","type":"function"},{"inputs":[{"internalType":"uint256","name":"jobId","type":"uint256"},{"internalType":"string","name":"notes","type":"string"}],"name":"requestRevision","outputs":[],"stateMutability":"nonpayable","type":"function"},{"inputs":[{"internalType":"uint256","name":"jobId","type":"uint256"},{"internalType":"uint256","name":"clientPercentage","type":"uint256"},{"internalType":"bool","name":"penalizeClient","type":"bool"},{"internalType":"bool","name":"slashFreelancerStake","type":"bool"},{"internalType":"string","name":"notes","type":"string"}],"name":"resolveDispute","outputs":[],"stateMutability":"nonpayable","type":"function"},{"inputs":[{"internalType":"uint256","name":"","type":"uint256"},{"internalType":"uint256","name":"","type":"uint256"}],"name":"revisions","outputs":[{"internalType":"string","name":"ipfsHash","type":"string"},{"internalType":"string","name":"gitCommitHash","type":"string"},{"internalType":"uint256","name":"timestamp","type":"uint256"},{"internalType":"string","name":"notes","type":"string"}],"stateMutability":"view","type":"function"},{"inputs":[{"internalType":"address","name":"arbitrator","type":"address"},{"internalType":"bool","name":"status","type":"bool"}],"name":"setArbitrator","outputs":[],"stateMutability":"nonpayable","type":"function"},{"inputs":[{"internalType":"uint256","name":"newFee","type":"uint256"}],"name":"setPlatformFee","outputs":[],"stateMutability":"nonpayable","type":"function"},{"inputs":[{"internalType":"address","name":"newWallet","type":"address"}],"name":"setPlatformWallet","outputs":[],"stateMutability":"nonpayable","type":"function"},{"inputs":[{"internalType":"uint256","name":"jobId","type":"uint256"},{"internalType":"string","name":"ipfsHash","type":"string"},{"internalType":"string","name":"gitCommitHash","type":"string"}],"name":"submitRevision","outputs":[],"stateMutability":"nonpayable","type":"function"},{"inputs":[{"internalType":"uint256","name":"jobId","type":"uint256"},{"internalType":"string","name":"ipfsHash","type":"string"},{"internalType":"string","name":"gitCommitHash","type":"string"}],"name":"submitWork","outputs":[],"stateMutability":"nonpayable","type":"function"},{"inputs":[{"internalType":"address","name":"newOwner","type":"address"}],"name":"transferOwnership","outputs":[],"stateMutability":"nonpayable","type":"function"}],"evm":{"bytecode":{"linkReferences":{},"object":"6080346200014957601f620034a838819003918201601f19168301916001600160401b038311848410176200014e578084926020946040528339810103126200014957516001600160a01b0390818116908190036200014957600090600182553315620001305760018054336001600160a01b03198083168217909355604051959091167f8be0079c531659141344cd1fd0a4f28419497f9722a3daafe3b4186f6b6457e08580a360c86007556101f460085560c86009558115620000ee57604093506006541617600655338152600460205220600160ff198254161790556040516133439081620001658239f35b62461bcd60e51b845260206004850152601760248501527f496e76616c696420706c6174666f726d2077616c6c65740000000000000000006044850152606484fd5b604051631e4fbdf760e01b815260048101839052602490fd5b600080fd5b634e487b7160e01b600052604160045260246000fdfe608080604052600436101561001357600080fd5b60003560e01c9081630d2825a6146127625750806312e8e2c314612704578063180aedf3146125d55780631c34212c146125b75780632bc0b0761461251b5780633ec559c6146123a15780634584712b1461238357806345f25e5e1461224a578063465b418e1461222c5780634bd23b9e1461219257806351d0ea3714612153578063715018a614612108578063816bd4ab14611d315780638831e9cf14611cb55780638da5cb5b14611c8c578063a36697d314611af5578063a5c1674e1461193c578063a9e2e09b1461191e578063ab08b59814611478578063b2dcc623146113d6578063bf22c45714611124578063c5fa064914611106578063dfc853b214610934578063ee706ade1461096e578063f17f55cd14610934578063f2fde38b146108be578063f7cbfd181461046f578063f9f161a81461018c5763fa2af9da1461015e57600080fd5b34610187576000366003190112610187576006546040516001600160a01b039091168152602090f35b600080fd5b34610187576020806003193601126101875760043590816000526002815260018060a01b036101c381604060002054163314612f12565b82600052600282526101e260ff600e6040600020015460101c16612b1f565b6101ea612abb565b8260005260028252604060002090600e82019182549260ff8460081c1660088110156104595760020361041e5760078201544211156103d95761070060038301549461ff001916179055600281019180835416908083541691866040518092816000816102668c63a9059cbb60e01b9a8b845260048401612fac565b03925af1908115610372576000916103bc575b501561037e57600583015493846102bd575b877f65ad908928b1ebf35767b56b1abda7e8daf5dadc57fac823d897b3d4bcb078508888604051908152a26001600055005b9160008260018996946102e798965416940154169160405196879586948593845260048401612fac565b03925af190811561037257600091610345575b501561030a57838080808061028b565b60405162461bcd60e51b815260048101839052601360248201527214dd185ad9481c995d1d5c9b8819985a5b1959606a1b6044820152606490fd5b6103659150833d851161036b575b61035d8183612824565b810190612a74565b846102fa565b503d610353565b6040513d6000823e3d90fd5b60405162461bcd60e51b81526004810187905260166024820152751499599d5b99081d1c985b9cd9995c8819985a5b195960521b6044820152606490fd5b6103d39150873d891161036b5761035d8183612824565b88610279565b60405162461bcd60e51b815260048101869052601e60248201527f5375626d697373696f6e20646561646c696e65206e6f742070617373656400006044820152606490fd5b60405162461bcd60e51b81526004810186905260136024820152724a6f62206e6f7420696e2070726f677265737360681b6044820152606490fd5b634e487b7160e01b600052602160045260246000fd5b346101875761047d366129ba565b908260005260026020526104a260018060a01b03600160406000200154163314612ade565b8260005260026020526104c260ff600e6040600020015460101c16612b1f565b6104ca612abb565b82600052600260205260406000209060ff600e83015460081c1660088110156104595760020361088857600782015442116108465761050b81511515612b60565b80516001600160401b03811161076f57610528600a84015461277d565b601f81116107fb575b50806020601f821160011461079057600091610785575b508160011b916000199060031b1c191617600a8301555b8251600b8301906001600160401b03811161076f5761057e825461277d565b601f8111610727575b50806020601f82116001146106c3576000916106b8575b508160011b916000199060031b1c19161790555b61030061ff0019600e8401541617600e83015562093a804201918242116106a257826008820155620a8c0042018093116106a2577fca89bd73cfbd3577480e30b797049a1c376e9f900e9839f8b4938dbc0f2ac5269361068a936009610698930155856000526003602052610676604060002060405190610632826127b7565b85825283602083015242604083015260405161064d81612809565b601281527124b734ba34b0b61039bab136b4b9b9b4b7b760711b60208201526060830152612ba1565b604051938493604085526040850190612910565b908382036020850152612910565b0390a26001600055005b634e487b7160e01b600052601160045260246000fd5b90508501518761059e565b6000848152602081209250601f198416905b81811061070f575090836001949392106106f6575b5050811b0190556105b2565b87015160001960f88460031b161c1916905587806106ea565b9192602060018192868c0151815501940192016106d5565b826000526020600020601f830160051c81019160208410610765575b601f0160051c01905b8181106107595750610587565b6000815560010161074c565b9091508190610743565b634e487b7160e01b600052604160045260246000fd5b905082015186610548565b600a85016000908152602081209250601f198416905b8181106107e3575090836001949392106107ca575b5050811b01600a83015561055f565b84015160001960f88460031b161c1916905586806107bb565b919260206001819286890151815501940192016107a6565b600a84016000526020600020601f830160051c8101916020841061083c575b601f0160051c01905b8181106108305750610531565b60008155600101610823565b909150819061081a565b60405162461bcd60e51b815260206004820152601a60248201527914dd589b5a5cdcda5bdb88191958591b1a5b99481c185cdcd95960321b6044820152606490fd5b60405162461bcd60e51b815260206004820152600e60248201526d496e76616c69642073746174757360901b6044820152606490fd5b34610187576020366003190112610187576108d7612942565b6108df612a35565b6001600160a01b0390811690811561091b57600180546001600160a01b031981168417909155166000805160206132ee833981519152600080a3005b604051631e4fbdf760e01b815260006004820152602490fd5b34610187576020366003190112610187576001600160a01b03610955612942565b1660005260056020526020604060002054604051908152f35b346101875760c036600319011261018757602480356001600160a01b0381169003610187576044356001600160a01b038116810361018757608435151560843503610187576109bb612abb565b600435600052600260205260ff600e6040600020015460101c166110cd5781356001600160a01b031615611094576064351561105b5760a435156110175761271080610a0b600754606435612a61565b04906084351561100e57610a23600854606435612a61565b04925b6040516323b872dd60e01b815260208180610a48606435303360048501612a8c565b038160006001600160a01b0389165af190811561037257600091610fef575b5015610fb957608435610f19575b62278d004201804211610f045760405192610a8f846127d2565b33845260018060a01b03833516602085015260018060a01b0385166040850152606435606085015260808401528460a0840152600060c084015260e083015260006101008301526000610120830152604051610aea816127ee565b60008152610140830152604051610b00816127ee565b60008152610160830152600061018083015260a4356101a083015260016101c083015260026101e083015260016102008301526004356000526002602052604060002060018060a01b0383511660018060a01b031990818354161782556001820160018060a01b0360208601511682825416179055600282019060018060a01b0360408601511690825416179055606083015160038201556080830151600482015560a0830151600582015560c0830151600682015560e083015160078201556101008301516008820155610120830151600982015561014083015180519060018060401b038211610e1f578190610bfb600a85015461277d565b601f8111610eb1575b50602090601f8311600114610e3f57600092610e34575b50508160011b916000199060031b1c191617600a8201555b6101608301518051906001600160401b038211610e1f57610c57600b84015461277d565b601f8111610dd8575b50602090601f8311600114610d6557600e93929160009183610d5a575b50508160011b916000199060031b1c191617600b8201555b610180840151600c8201556101a0840151600d8201550191610cca6101c08201511515849060ff801983541691151516179055565b6101e0810151916008831015610d46575061ff0062ff00006102008554930151151560101b169260081b169062ffff00191617179055604051916064358352602083015260018060a01b0316907f94091aba73cb1de49078ee312ee5a917b8fa93badf3c2ce89052b36e4ad315db604060043592a36001600055005b634e487b7160e01b60009081526021600452fd5b015190508880610c7d565b90600b840160005260206000209160005b601f1985168110610dc05750918391600193600e9695601f19811610610da7575b505050811b01600b820155610c95565b015160001960f88460031b161c19169055888080610d97565b91926020600181928685015181550194019201610d76565b600b84016000526020600020601f840160051c810160208510610e18575b601f830160051c82018110610e0c575050610c60565b60008155600101610df6565b5080610df6565b83634e487b7160e01b60005260416004526000fd5b015190508780610c1b565b9250600a84016000526020600020906000935b601f1984168510610e96576001945083601f19811610610e7d575b505050811b01600a820155610c33565b015160001960f88460031b161c19169055878080610e6d565b81810151835560209485019460019093019290910190610e52565b909150600a84016000526020600020601f840160051c810160208510610efd575b90849392915b601f830160051c82018110610eee575050610c04565b60008155859450600101610ed8565b5080610ed2565b50634e487b7160e01b60009081526011600452fd5b6040516323b872dd60e01b815260208180610f3a8830873560048501612a8c565b038160006001600160a01b0389165af190811561037257600091610f9a575b50610a755760649060156040519162461bcd60e51b8352602060048401528201527414dd185ad9481d1c985b9cd9995c8819985a5b1959605a1b6044820152fd5b610fb3915060203d60201161036b5761035d8183612824565b85610f59565b606490600f6040519162461bcd60e51b8352602060048401528201526e151c985b9cd9995c8819985a5b1959608a1b6044820152fd5b611008915060203d60201161036b5761035d8183612824565b85610a67565b50600092610a26565b60405162461bcd60e51b815260206004820152601e818401527f4d75737420616c6c6f77206174206c656173742031207265766973696f6e00006044820152606490fd5b60405162461bcd60e51b815260206004820152601281840152710416d6f756e74206d757374206265203e20360741b6044820152606490fd5b60405162461bcd60e51b8152602060048201526012818401527124b73b30b634b210333932b2b630b731b2b960711b6044820152606490fd5b60405162461bcd60e51b815260206004820152601281840152714a6f6220616c72656164792065786973747360701b6044820152606490fd5b3461018757600036600319011261018757602060405162278d008152f35b34610187576020366003190112610187576000610200604051611146816127d2565b8281528260208201528260408201528260608201528260808201528260a08201528260c08201528260e082015282610100820152826101208201526060610140820152606061016082015282610180820152826101a0820152826101c0820152826101e082015201526004358060005260026020526111d260ff600e6040600020015460101c16612b1f565b60005260026020526040600020600e604051916111ee836127d2565b80546001600160a01b03908116845260018201548116602085015260028201541660408401526003810154606084015260048101546080840152600581015460a0840152600681015460c0840152600781015460e084015260088101546101008401526009810154610120840152611268600a8201612847565b61014084015261127a600b8201612847565b610160840152600c810154610180840152600d8101546101a0840152015460ff811615156101c0830152600860ff82821c161015610459578060ff809260081c166101e084015260101c16151561020082015260405180916020825260018060a01b03815116602083015260018060a01b03602082015116604083015260018060a01b03604082015116606083015260608101516080830152608081015160a083015260a081015160c083015260c081015160e083015260e08101516101008301526101008101516101208301526101208101516101408301526101408101516102006113916113796102209384610160880152610240870190612910565b610160850151868203601f1901610180880152612910565b926101808101516101a08601526101a08101516101c08601526101c081015115156101e08601526113ca6101e082015183870190612935565b01511515908301520390f35b3461018757604036600319011261018757602435600435600052600360205260406000208054821015610187576114539161141091612a03565b5061147461141d82612847565b9161142a60018201612847565b61146161143e600360028501549401612847565b91604051968796608088526080880190612910565b908682036020880152612910565b9160408501528382036060850152612910565b0390f35b346101875760a036600319011261018757600435604435602480358215158303610187576064358015158103610187576084356001600160401b038111610187576114c7903690600401612973565b93336000526020936004855260ff60406000205416801561190a575b156118d357866000526002855261150760ff600e6040600020015460101c16612b1f565b61150f612abb565b8660005260028552604060002090600e82019260ff845460081c1660088110156118be57600603611889576127108087116118505761155f9061155760038601549889612a61565b048097612f9f565b80916000146118385750600683015461157791612aae565b9360018060a01b038354166000526005875260406000206115988154612f90565b90555b8061182b575b15611809576115b66005830195865490612aae565b94887fba00be99b4ba100b19f2c080160ab22c2b8f4d62027d6524c532e7578d7a43b4886001860160018060a01b0390818154166000526005835260406000206116008154612f90565b905554169354604051908152a35b84611763575b508261165a575b5093610698916000805160206132ce8339815191529561050061ff00198254161790556040519485948552840152606060408401526060830190612910565b9182600460009793940190611670825484612f9f565b906002810192886116ac60018060a01b03938460018189541692015416956040519d8e8094819363a9059cbb60e01b9a8b845260048401612fac565b03925af1998a1561037257828a956116d16116f09d6000948591611746575b50612fc7565b541692600654169154936040519b8c9586948593845260048401612fac565b03925af192831561037257611720610698946000805160206132ce83398151915298600091611729575b50613010565b9195509161161b565b6117409150883d8a1161036b5761035d8183612824565b8a61171a565b61175d9150893d8b1161036b5761035d8183612824565b386116cb565b611798868660018060a01b038060028701541690865416600060405180968195829463a9059cbb60e01b845260048401612fac565b03925af1908115610372576000916117ec575b50611614578560166064926040519262461bcd60e51b845260048401528201527510db1a595b9d081d1c985b9cd9995c8819985a5b195960521b6044820152fd5b6118039150873d891161036b5761035d8183612824565b896117ab565b60058201548061181a575b5061160e565b6118249194612aae565b9288611814565b50600582015415156115a1565b949561184a9150600684015490612aae565b9461159b565b60405162461bcd60e51b81526004810189905260128185015271496e76616c69642070657263656e7461676560701b6044820152606490fd5b60405162461bcd60e51b815260048101889052600e818401526d4e6f7420696e206469737075746560901b6044820152606490fd5b82634e487b7160e01b60005260216004526000fd5b8460116064926040519262461bcd60e51b84526004840152820152702737ba1030b71030b93134ba3930ba37b960791b6044820152fd5b506001546001600160a01b031633146114e3565b346101875760003660031901126101875760206040516203f4808152f35b60208060031936011261018757600435806000526002825261196b60ff600e6040600020015460101c16612b1f565b611973612abb565b8060005260028252604060002091600e830160ff815460081c1660088110156104595760036119a29114612f4f565b83546001600160a01b03949085163303611ab0576127106119ca600383015460095490612a61565b04946002820154168360405180926323b872dd60e01b8252816000816119f58c303360048501612a8c565b03925af190811561037257600091611a93575b5015611a5457600601849055805461ff00191661060017905560405192835233927fe0e58e9cc5ed7ef092d3e14cff6136d23ebf75a16cf3c8257ef8804811d8b0f39190a36001600055005b60405162461bcd60e51b815260048101849052601760248201527611195c1bdcda5d081d1c985b9cd9995c8819985a5b1959604a1b6044820152606490fd5b611aaa9150843d861161036b5761035d8183612824565b86611a08565b60405162461bcd60e51b815260048101849052601d60248201527f4f6e6c7920636c69656e742063616e20726169736520646973707574650000006044820152606490fd5b34610187576040366003190112610187576004356024356001600160401b03811161018757611b28903690600401612973565b908060005260209160028352611b4c60018060a01b03604060002054163314612f12565b8160005260028352611b6b60ff600e6040600020015460101c16612b1f565b611b73612abb565b8160005260028352604060002092600e840180549060ff8260081c166008811015610459576003611ba49114612f4f565b600c860191825496600d810154881015611c4e57600801544211611c105795611bfa916104007f4c705215bcc0385a7f7728415a5bf16c776bacaedf28a71c5ba5494e87edf0e8979861ff001916179055612f90565b9055610698604051928284938452830190612910565b60405162461bcd60e51b815260048101859052601660248201527514995d9a595dc8191958591b1a5b99481c185cdcd95960521b6044820152606490fd5b60405162461bcd60e51b815260048101869052601660248201527513585e081c995d9a5cda5bdb9cc8195e18d95959195960521b6044820152606490fd5b34610187576000366003190112610187576001546040516001600160a01b039091168152602090f35b3461018757602036600319011261018757611cce612942565b611cd6612a35565b6001600160a01b03168015611cfb57600680546001600160a01b031916919091179055005b60405162461bcd60e51b815260206004820152600e60248201526d125b9d985b1a59081dd85b1b195d60921b6044820152606490fd5b3461018757611d3f366129ba565b90826000526002602052611d6460018060a01b03600160406000200154163314612ade565b826000526002602052611d8460ff600e6040600020015460101c16612b1f565b611d8c612abb565b826000526002602052604060002060ff600e82015460081c166008811015610459576004036120ca57611dc182511515612b60565b81516001600160401b03811161076f57611dde600a83015461277d565b601f811161207f575b50806020601f821160011461201457600091612009575b508160011b916000199060031b1c191617600a8201555b8251600b8201906001600160401b03811161076f57611e34825461277d565b601f8111611fc1575b50806020601f8211600114611f5d57600091611f52575b508160011b916000199060031b1c19161790555b61030061ff0019600e8301541617600e8201556203f48042018042116106a2577f13fd62ef582e52cb5584431b4e39a0a8d2ba972244c0bba0dc4169ba71322ae893611f35916008840155856000526003602052600c6040600020930192611ed084546131cf565b611f10602a6040518093695265766973696f6e202360b01b6020830152611f0081518092602086860191016128ed565b810103600a810184520182612824565b60405192611f1d846127b7565b86845260208401524260408401526060830152612ba1565b546106986040519283928352604060208401526040830190612910565b905085015187611e54565b6000848152602081209250601f198416905b818110611fa957509083600194939210611f90575b5050811b019055611e68565b87015160001960f88460031b161c191690558780611f84565b9192602060018192868c015181550194019201611f6f565b826000526020600020601f830160051c81019160208410611fff575b601f0160051c01905b818110611ff35750611e3d565b60008155600101611fe6565b9091508190611fdd565b905083015186611dfe565b600a84016000908152602081209250601f198416905b8181106120675750908360019493921061204e575b5050811b01600a820155611e15565b85015160001960f88460031b161c19169055868061203f565b9192602060018192868a01518155019401920161202a565b600a83016000526020600020601f830160051c810191602084106120c0575b601f0160051c01905b8181106120b45750611de7565b600081556001016120a7565b909150819061209e565b60405162461bcd60e51b815260206004820152601660248201527514995d9a5cda5bdb881b9bdd081c995c5d595cdd195960521b6044820152606490fd5b3461018757600036600319011261018757612121612a35565b600180546001600160a01b031981169091556000906001600160a01b03166000805160206132ee8339815191528280a3005b34610187576020366003190112610187576001600160a01b03612174612942565b166000526004602052602060ff604060002054166040519015158152f35b34610187576020366003190112610187576004358060005260026020526121c760018060a01b03604060002054163314612f12565b8060005260026020526121e760ff600e6040600020015460101c16612b1f565b6121ef612abb565b80600052600260205260ff600e6040600020015460081c169060088210156104595761222060036122259314612f4f565b61305b565b6001600055005b34610187576000366003190112610187576020600954604051908152f35b34610187576020806003193601126101875760043590816000526002815261227f60ff600e6040600020015460101c16612b1f565b612287612abb565b81600052600281526040600020600e81015460ff8160081c16906008821015610459576122b8600360ff9314612f4f565b1615612346576008810154421115612308579060037ff9721d98857b7e6b07c9823e0fdd765da735587257afcbc98021eb5e15531baf926122f88561305b565b0154604051908152a26001600055005b60405162461bcd60e51b81526004810183905260166024820152752932bb34b2bb903832b934b7b2103737ba1037bb32b960511b6044820152606490fd5b60405162461bcd60e51b8152600481018390526015602482015274105d5d1bcb5c995b19585cd948191a5cd8589b1959605a1b6044820152606490fd5b3461018757600036600319011261018757602060405162093a808152f35b346101875760208060031936011261018757600435806000526002908183526123d760ff600e6040600020015460101c16612b1f565b600090815260038084526040909120805490916001600160401b03821161076f5793926040519461240d858460051b0187612824565b82865284860191829460005285600020916000935b8585106124c257604080518981528a51818b01819052600092600582901b83018101918b918d9085015b8287106124595785850386f35b9091929382806124b2600193603f198a8203018652885161249561248582516080808652850190612910565b8583015184820387860152612910565b916040820151604082015260608092015191818403910152612910565b960192019601959291909261244c565b60048860019260409b9a9b516124d7816127b7565b6124e088612847565b81526124ed858901612847565b83820152868801546040820152612505868901612847565b6060820152815201940194019392979697612422565b3461018757604036600319011261018757612534612942565b60243590811515820361018757612549612a35565b6001600160a01b031690811561257d5761257b91600052600460205260406000209060ff801983541691151516179055565b005b60405162461bcd60e51b815260206004820152601260248201527124b73b30b634b21030b93134ba3930ba37b960711b6044820152606490fd5b34610187576000366003190112610187576020600754604051908152f35b346101875760203660031901126101875760043560005260026020526040600020600160a01b60019003808254169181600182015416916002820154166003820154916004810154600582015460068301546007840154600885015490600986015492600a870161264590612847565b94612652600b8901612847565b96600c8901549a600d8a015499600e01549a6040519e8f9e8f91825260208201526040015260608d015260808c015260a08b015260c08a015260e08901526101008801526101208701526102208061014088015286016126b191612910565b8581036101608701526126c391612910565b926101808501526101a084015260ff811615156101c08401526101e083018160081c60ff16906126f291612935565b60101c60ff1615156102008301520390f35b3461018757602036600319011261018757600435612720612a35565b6103e8811161272e57600755005b60405162461bcd60e51b815260206004820152600c60248201526b08ccaca40e8dede40d0d2ced60a31b6044820152606490fd5b34610187576000366003190112610187576020906008548152f35b90600182811c921680156127ad575b602083101461279757565b634e487b7160e01b600052602260045260246000fd5b91607f169161278c565b608081019081106001600160401b0382111761076f57604052565b61022081019081106001600160401b0382111761076f57604052565b602081019081106001600160401b0382111761076f57604052565b604081019081106001600160401b0382111761076f57604052565b601f909101601f19168101906001600160401b0382119082101761076f57604052565b906040519182600082549261285b8461277d565b9081845260019485811690816000146128ca5750600114612887575b505061288592500383612824565b565b9093915060005260209081600020936000915b8183106128b257505061288593508201013880612877565b8554888401850152948501948794509183019161289a565b91505061288594506020925060ff191682840152151560051b8201013880612877565b60005b8381106129005750506000910152565b81810151838201526020016128f0565b90602091612929815180928185528580860191016128ed565b601f01601f1916010190565b9060088210156104595752565b600435906001600160a01b038216820361018757565b6001600160401b03811161076f57601f01601f191660200190565b81601f820112156101875780359061298a82612958565b926129986040519485612824565b8284526020838301011161018757816000926020809301838601378301015290565b606060031982011261018757600435916001600160401b0360243581811161018757836129e991600401612973565b9260443591821161018757612a0091600401612973565b90565b8054821015612a1f5760005260206000209060021b0190600090565b634e487b7160e01b600052603260045260246000fd5b6001546001600160a01b03163303612a4957565b60405163118cdaa760e01b8152336004820152602490fd5b818102929181159184041417156106a257565b90816020910312610187575180151581036101875790565b6001600160a01b03918216815291166020820152604081019190915260600190565b919082018092116106a257565b600260005414612acc576002600055565b604051633ee5aeb560e01b8152600490fd5b15612ae557565b60405162461bcd60e51b81526020600482015260126024820152712737ba103a343290333932b2b630b731b2b960711b6044820152606490fd5b15612b2657565b60405162461bcd60e51b8152602060048201526012602482015271129bd888191bd95cc81b9bdd08195e1a5cdd60721b6044820152606490fd5b15612b6757565b60405162461bcd60e51b815260206004820152601260248201527112541194c81a185cda081c995c5d5a5c995960721b6044820152606490fd5b8054600160401b81101561076f57612bc0906001928382018155612a03565b612efc57825180516001600160401b03929083811161076f5780612be4835461277d565b93601f94858111612ea8575b50602090858311600114612e4557600092612e3a575b5050600019600383901b1c191690851b1781555b838101602086015180519085821161076f57612c36835461277d565b858111612df2575b50602090858311600114612d855791806003949260609694600092612d7a575b505060001982861b1c191690881b1790555b6040870151600282015501940151805192831161076f57612c91855461277d565b828111612d32575b506020918311600114612cd257928293918392600094612cc7575b50501b916000199060031b1c1916179055565b015192503880612cb4565b90601f198316918560005283826000209360005b87828210612d1957505010612d00575b505050811b019055565b015160001960f88460031b161c19169055388080612cf6565b8486015187559095019460209485019487935001612ce6565b8560005260206000208380860160051c82019260208710612d71575b0160051c019085905b828110612d65575050612c99565b60008155018590612d57565b92508192612d4e565b015190503880612c5e565b879291601f1983169185600052816000209260005b818110612dda57509160609795939185600398969410612dc2575b505050811b019055612c70565b015160001983881b60f8161c19169055388080612db5565b8284015185558b969094019360209384019301612d9a565b8360005260206000208680850160051c82019260208610612e31575b0160051c019088905b828110612e25575050612c3e565b60008155018890612e17565b92508192612e0e565b015190503880612c06565b90879350601f1983169185600052816000209260005b818110612e9057508411612e77575b505050811b018155612c1a565b015160001960f88460031b161c19169055388080612e6a565b8284015185558a969094019360209384019301612e5b565b9091506000848152602081208680860160051c82019360208710612ef3575b918a9187969594930160051c01925b838110612ee557505050612bf0565b8281558695508a9101612ed6565b93508193612ec7565b634e487b7160e01b600052600060045260246000fd5b15612f1957565b60405162461bcd60e51b815260206004820152600e60248201526d139bdd081d1a194818db1a595b9d60921b6044820152606490fd5b15612f5657565b60405162461bcd60e51b815260206004820152601260248201527115dbdc9ac81b9bdd081cdd589b5a5d1d195960721b6044820152606490fd5b60001981146106a25760010190565b919082039182116106a257565b6001600160a01b039091168152602081019190915260400190565b15612fce57565b60405162461bcd60e51b815260206004820152601a602482015279119c99595b185b98d95c881d1c985b9cd9995c8819985a5b195960321b6044820152606490fd5b1561301757565b60405162461bcd60e51b815260206004820152601c60248201527b141b185d199bdc9b48199959481d1c985b9cd9995c8819985a5b195960221b6044820152606490fd5b906000918083526020600281526040908185209060038201546130926130876004850192835490612f9f565b600585015490612aae565b926002810160018060a01b03808254168a866130cd84600188015416938a8c5194858094819363a9059cbb60e01b998a845260048401612fac565b03925af19081156131c557906130e9918d916131ae5750612fc7565b84549283613126575b505050506000805160206132ae83398151915295969750600e0161050061ff001982541617905554908351928352820152a2565b9161314c93918c82899554169260065416918b5196879586948593845260048401612fac565b03925af19081156131a457600e929161317c916000805160206132ae833981519152999a9b916131875750613010565b9088979638806130f2565b61319e9150863d881161036b5761035d8183612824565b3861171a565b86513d8b823e3d90fd5b61175d9150883d8a1161036b5761035d8183612824565b89513d8e823e3d90fd5b801561328f5780816000925b61327b5750806131ea83612958565b926131f86040519485612824565b808452601f1961320782612958565b01366020860137915b61321957505090565b6000198201918083116106a25782600a90818404938285029285840414851517156106a25761324b60ff938492612f9f565b166030019182116106a25785511115612a1f5760f81b6001600160f81b03191660001a908401601f015380613210565b91613287600a91612f90565b9204806131db565b5060405161329c81612809565b60018152600360fc1b60208201529056fef345ae506cc2fc158da1a190933604ab4d54f245993643c554555409958b3b8ca60b5d5c18458c3fed34173f9d4929b87ee7938e28f3371e694d50079d2b393a8be0079c531659141344cd1fd0a4f28419497f9722a3daafe3b4186f6b6457e0a2646970667358221220b3d886d80354a56ab711705a62c9cfe99fcc95b68aec486bc15da1658c9420c064736f6c63430008140033","opcodes":"PUSH1 0x80 CALLVALUE PUSH3 0x149 JUMPI PUSH1 0x1F PUSH3 0x34A8 CODESIZE DUP2 SWAP1 SUB SWAP2 DUP3 ADD PUSH1 0x1F NOT AND DUP4 ADD SWAP2 PUSH1 0x1 PUSH1 0x1 PUSH1 0x40 SHL SUB DUP4 GT DUP5 DUP5 LT OR PUSH3 0x14E JUMPI DUP1 DUP5 SWAP3 PUSH1 0x20 SWAP5 PUSH1 0x40 MSTORE DUP4 CODECOPY DUP2 ADD SUB SLT PUSH3 0x149 JUMPI MLOAD PUSH1 0x1 PUSH1 0x1 PUSH1 0xA0 SHL SUB SWAP1 DUP2 DUP2 AND SWAP1 DUP2 SWAP1 SUB PUSH3 0x149 JUMPI PUSH1 0x0 SWAP1 PUSH1 0x1 DUP3 SSTORE CALLER ISZERO PUSH3 0x130 JUMPI PUSH1 0x1 DUP1 SLOAD CALLER PUSH1 0x1 PUSH1 0x1 PUSH1 0xA0 SHL SUB NOT DUP1 DUP4 AND DUP3 OR SWAP1 SWAP4 SSTORE PUSH1 0x40 MLOAD SWAP6 SWAP1 SWAP2 AND PUSH32 0x8BE0079C531659141344CD1FD0A4F28419497F9722A3DAAFE3B4186F6B6457E0 DUP6 DUP1 LOG3 PUSH1 0xC8 PUSH1 0x7 SSTORE PUSH2 0x1F4 PUSH1 0x8 SSTORE PUSH1 0xC8 PUSH1 0x9 SSTORE DUP2 ISZERO PUSH3 0xEE JUMPI PUSH1 0x40 SWAP4 POP PUSH1 0x6 SLOAD AND OR PUSH1 0x6 SSTORE CALLER DUP2 MSTORE PUSH1 0x4 PUSH1 0x20 MSTORE KECCAK256 PUSH1 0x1 PUSH1 0xFF NOT DUP3 SLOAD AND OR SWAP1 SSTORE PUSH1 0x40 MLOAD PUSH2 0x3343 SWAP1 DUP2 PUSH3 0x165 DUP3 CODECOPY RETURN JUMPDEST PUSH3 0x461BCD PUSH1 0xE5 SHL DUP5 MSTORE PUSH1 0x20 PUSH1 0x4 DUP6 ADD MSTORE PUSH1 0x17 PUSH1 0x24 DUP6 ADD MSTORE PUSH32 0x496E76616C696420706C6174666F726D2077616C6C6574000000000000000000 PUSH1 0x44 DUP6 ADD MSTORE PUSH1 0x64 DUP5 REVERT JUMPDEST PUSH1 0x40 MLOAD PUSH4 0x1E4FBDF7 PUSH1 0xE0 SHL DUP2 MSTORE PUSH1 0x4 DUP2 ADD DUP4 SWAP1 MSTORE PUSH1 0x24 SWAP1 REVERT JUMPDEST PUSH1 0x0 DUP1 REVERT JUMPDEST PUSH4 0x4E487B71 PUSH1 0xE0 SHL PUSH1 0x0 MSTORE PUSH1 0x41 PUSH1 0x4 MSTORE PUSH1 0x24 PUSH1 0x0 REVERT INVALID PUSH1 0x80 DUP1 PUSH1 0x40 MSTORE PUSH1 0x4 CALLDATASIZE LT ISZERO PUSH2 0x13 JUMPI PUSH1 0x0 DUP1 REVERT JUMPDEST PUSH1 0x0 CALLDATALOAD PUSH1 0xE0 SHR SWAP1 DUP2 PUSH4 0xD2825A6 EQ PUSH2 0x2762 JUMPI POP DUP1 PUSH4 0x12E8E2C3 EQ PUSH2 0x2704 JUMPI DUP1 PUSH4 0x180AEDF3 EQ PUSH2 0x25D5 JUMPI DUP1 PUSH4 0x1C34212C EQ PUSH2 0x25B7 JUMPI DUP1 PUSH4 0x2BC0B076 EQ PUSH2 0x251B JUMPI DUP1 PUSH4 0x3EC559C6 EQ PUSH2 0x23A1 JUMPI DUP1 PUSH4 0x4584712B EQ PUSH2 0x2383 JUMPI DUP1 PUSH4 0x45F25E5E EQ PUSH2 0x224A JUMPI DUP1 PUSH4 0x465B418E EQ PUSH2 0x222C JUMPI DUP1 PUSH4 0x4BD23B9E EQ PUSH2 0x2192 JUMPI DUP1 PUSH4 0x51D0EA37 EQ PUSH2 0x2153 JUMPI DUP1 PUSH4 0x715018A6 EQ PUSH2 0x2108 JUMPI DUP1 PUSH4 0x816BD4AB EQ PUSH2 0x1D31 JUMPI DUP1 PUSH4 0x8831E9CF EQ PUSH2 0x1CB5 JUMPI DUP1 PUSH4 0x8DA5CB5B EQ PUSH2 0x1C8C JUMPI DUP1 PUSH4 0xA36697D3 EQ PUSH2 0x1AF5 JUMPI DUP1 PUSH4 0xA5C1674E EQ PUSH2 0x193C JUMPI DUP1 PUSH4 0xA9E2E09B EQ PUSH2 0x191E JUMPI DUP1 PUSH4 0xAB08B598 EQ PUSH2 0x1478 JUMPI DUP1 PUSH4 0xB2DCC623 EQ PUSH2 0x13D6 JUMPI DUP1 PUSH4 0xBF22C457 EQ PUSH2 0x1124 JUMPI DUP1 PUSH4 0xC5FA0649 EQ PUSH2 0x1106 JUMPI DUP1 PUSH4 0xDFC853B2 EQ PUSH2 0x934 JUMPI DUP1 PUSH4 0xEE706ADE EQ PUSH2 0x96E JUMPI DUP1 PUSH4 0xF17F55CD EQ PUSH2 0x934 JUMPI DUP1 PUSH4 0xF2FDE38B EQ PUSH2 0x8BE JUMPI DUP1 PUSH4 0xF7CBFD18 EQ PUSH2 0x46F JUMPI DUP1 PUSH4 0xF9F161A8 EQ PUSH2 0x18C JUMPI PUSH4 0xFA2AF9DA EQ PUSH2 0x15E JUMPI PUSH1 0x0 DUP1 REVERT JUMPDEST CALLVALUE PUSH2 0x187 JUMPI PUSH1 0x0 CALLDATASIZE PUSH1 0x3 NOT ADD SLT PUSH2 0x187 JUMPI PUSH1 0x6 SLOAD PUSH1 0x40 MLOAD PUSH1 0x1 PUSH1 0x1 PUSH1 0xA0 SHL SUB SWAP1 SWAP2 AND DUP2 MSTORE PUSH1 0x20 SWAP1 RETURN JUMPDEST PUSH1 0x0 DUP1 REVERT JUMPDEST CALLVALUE PUSH2 0x187 JUMPI PUSH1 0x20 DUP1 PUSH1 0x3 NOT CALLDATASIZE ADD SLT PUSH2 0x187 JUMPI PUSH1 0x4 CALLDATALOAD SWAP1 DUP2 PUSH1 0x0 MSTORE PUSH1 0x2 DUP2 MSTORE PUSH1 0x1 DUP1 PUSH1 0xA0 SHL SUB PUSH2 0x1C3 DUP2 PUSH1 0x40 PUSH1 0x0 KECCAK256 SLOAD AND CALLER EQ PUSH2 0x2F12 JUMP JUMPDEST DUP3 PUSH1 0x0 MSTORE PUSH1 0x2 DUP3 MSTORE PUSH2 0x1E2 PUSH1 0xFF PUSH1 0xE PUSH1 0x40 PUSH1 0x0 KECCAK256 ADD SLOAD PUSH1 0x10 SHR AND PUSH2 0x2B1F JUMP JUMPDEST PUSH2 0x1EA PUSH2 0x2ABB JUMP JUMPDEST DUP3 PUSH1 0x0 MSTORE PUSH1 0x2 DUP3 MSTORE PUSH1 0x40 PUSH1 0x0 KECCAK256 SWAP1 PUSH1 0xE DUP3 ADD SWAP2 DUP3 SLOAD SWAP3 PUSH1 0xFF DUP5 PUSH1 0x8 SHR AND PUSH1 0x8 DUP2 LT ISZERO PUSH2 0x459 JUMPI PUSH1 0x2 SUB PUSH2 0x41E JUMPI PUSH1 0x7 DUP3 ADD SLOAD TIMESTAMP GT ISZERO PUSH2 0x3D9 JUMPI PUSH2 0x700 PUSH1 0x3 DUP4 ADD SLOAD SWAP5 PUSH2 0xFF00 NOT AND OR SWAP1 SSTORE PUSH1 0x2 DUP2 ADD SWAP2 DUP1 DUP4 SLOAD AND SWAP1 DUP1 DUP4 SLOAD AND SWAP2 DUP7 PUSH1 0x40 MLOAD DUP1 SWAP3 DUP2 PUSH1 0x0 DUP2 PUSH2 0x266 DUP13 PUSH4 0xA9059CBB PUSH1 0xE0 SHL SWAP11 DUP12 DUP5 MSTORE PUSH1 0x4 DUP5 ADD PUSH2 0x2FAC JUMP JUMPDEST SUB SWAP3 GAS CALL SWAP1 DUP2 ISZERO PUSH2 0x372 JUMPI PUSH1 0x0 SWAP2 PUSH2 0x3BC JUMPI JUMPDEST POP ISZERO PUSH2 0x37E JUMPI PUSH1 0x5 DUP4 ADD SLOAD SWAP4 DUP5 PUSH2 0x2BD JUMPI JUMPDEST DUP8 PUSH32 0x65AD908928B1EBF35767B56B1ABDA7E8DAF5DADC57FAC823D897B3D4BCB07850 DUP9 DUP9 PUSH1 0x40 MLOAD SWAP1 DUP2 MSTORE LOG2 PUSH1 0x1 PUSH1 0x0 SSTORE STOP JUMPDEST SWAP2 PUSH1 0x0 DUP3 PUSH1 0x1 DUP10 SWAP7 SWAP5 PUSH2 0x2E7 SWAP9 SWAP7 SLOAD AND SWAP5 ADD SLOAD AND SWAP2 PUSH1 0x40 MLOAD SWAP7 DUP8 SWAP6 DUP7 SWAP5 DUP6 SWAP4 DUP5 MSTORE PUSH1 0x4 DUP5 ADD PUSH2 0x2FAC JUMP JUMPDEST SUB SWAP3 GAS CALL SWAP1 DUP2 ISZERO PUSH2 0x372 JUMPI PUSH1 0x0 SWAP2 PUSH2 0x345 JUMPI JUMPDEST POP ISZERO PUSH2 0x30A JUMPI DUP4 DUP1 DUP1 DUP1 DUP1 PUSH2 0x28B JUMP JUMPDEST PUSH1 0x40 MLOAD PUSH3 0x461BCD PUSH1 0xE5 SHL DUP2 MSTORE PUSH1 0x4 DUP2 ADD DUP4 SWAP1 MSTORE PUSH1 0x13 PUSH1 0x24 DUP3 ADD MSTORE PUSH19 0x14DD185AD9481C995D1D5C9B8819985A5B1959 PUSH1 0x6A SHL PUSH1 0x44 DUP3 ADD MSTORE PUSH1 0x64 SWAP1 REVERT JUMPDEST PUSH2 0x365 SWAP2 POP DUP4 RETURNDATASIZE DUP6 GT PUSH2 0x36B JUMPI JUMPDEST PUSH2 0x35D DUP2 DUP4 PUSH2 0x2824 JUMP JUMPDEST DUP2 ADD SWAP1 PUSH2 0x2A74 JUMP JUMPDEST DUP5 PUSH2 0x2FA JUMP JUMPDEST POP RETURNDATASIZE PUSH2 0x353 JUMP JUMPDEST PUSH1 0x40 MLOAD RETURNDATASIZE PUSH1 0x0 DUP3 RETURNDATACOPY RETURNDATASIZE SWAP1 REVERT JUMPDEST PUSH1 0x40 MLOAD PUSH3 0x461BCD PUSH1 0xE5 SHL DUP2 MSTORE PUSH1 0x4 DUP2 ADD DUP8 SWAP1 MSTORE PUSH1 0x16 PUSH1 0x24 DUP3 ADD MSTORE PUSH22 0x1499599D5B99081D1C985B9CD9995C8819985A5B1959 PUSH1 0x52 SHL PUSH1 0x44 DUP3 ADD MSTORE PUSH1 0x64 SWAP1 REVERT JUMPDEST PUSH2 0x3D3 SWAP2 POP DUP8 RETURNDATASIZE DUP10 GT PUSH2 0x36B JUMPI PUSH2 0x35D DUP2 DUP4 PUSH2 0x2824 JUMP JUMPDEST DUP9 PUSH2 0x279 JUMP JUMPDEST PUSH1 0x40 MLOAD PUSH3 0x461BCD PUSH1 0xE5 SHL DUP2 MSTORE PUSH1 0x4 DUP2 ADD DUP7 SWAP1 MSTORE PUSH1 0x1E PUSH1 0x24 DUP3 ADD MSTORE PUSH32 0x5375626D697373696F6E20646561646C696E65206E6F74207061737365640000 PUSH1 0x44 DUP3 ADD MSTORE PUSH1 0x64 SWAP1 REVERT JUMPDEST PUSH1 0x40 MLOAD PUSH3 0x461BCD PUSH1 0xE5 SHL DUP2 MSTORE PUSH1 0x4 DUP2 ADD DUP7 SWAP1 MSTORE PUSH1 0x13 PUSH1 0x24 DUP3 ADD MSTORE PUSH19 0x4A6F62206E6F7420696E2070726F6772657373 PUSH1 0x68 SHL PUSH1 0x44 DUP3 ADD MSTORE PUSH1 0x64 SWAP1 REVERT JUMPDEST PUSH4 0x4E487B71 PUSH1 0xE0 SHL PUSH1 0x0 MSTORE PUSH1 0x21 PUSH1 0x4 MSTORE PUSH1 0x24 PUSH1 0x0 REVERT JUMPDEST CALLVALUE PUSH2 0x187 JUMPI PUSH2 0x47D CALLDATASIZE PUSH2 0x29BA JUMP JUMPDEST SWAP1 DUP3 PUSH1 0x0 MSTORE PUSH1 0x2 PUSH1 0x20 MSTORE PUSH2 0x4A2 PUSH1 0x1 DUP1 PUSH1 0xA0 SHL SUB PUSH1 0x1 PUSH1 0x40 PUSH1 0x0 KECCAK256 ADD SLOAD AND CALLER EQ PUSH2 0x2ADE JUMP JUMPDEST DUP3 PUSH1 0x0 MSTORE PUSH1 0x2 PUSH1 0x20 MSTORE PUSH2 0x4C2 PUSH1 0xFF PUSH1 0xE PUSH1 0x40 PUSH1 0x0 KECCAK256 ADD SLOAD PUSH1 0x10 SHR AND PUSH2 0x2B1F JUMP JUMPDEST PUSH2 0x4CA PUSH2 0x2ABB JUMP JUMPDEST DUP3 PUSH1 0x0 MSTORE PUSH1 0x2 PUSH1 0x20 MSTORE PUSH1 0x40 PUSH1 0x0 KECCAK256 SWAP1 PUSH1 0xFF PUSH1 0xE DUP4 ADD SLOAD PUSH1 0x8 SHR AND PUSH1 0x8 DUP2 LT ISZERO PUSH2 0x459 JUMPI PUSH1 0x2 SUB PUSH2 0x888 JUMPI PUSH1 0x7 DUP3 ADD SLOAD TIMESTAMP GT PUSH2 0x846 JUMPI PUSH2 0x50B DUP2 MLOAD ISZERO ISZERO PUSH2 0x2B60 JUMP JUMPDEST DUP1 MLOAD PUSH1 0x1 PUSH1 0x1 PUSH1 0x40 SHL SUB DUP2 GT PUSH2 0x76F JUMPI PUSH2 0x528 PUSH1 0xA DUP5 ADD SLOAD PUSH2 0x277D JUMP JUMPDEST PUSH1 0x1F DUP2 GT PUSH2 0x7FB JUMPI JUMPDEST POP DUP1 PUSH1 0x20 PUSH1 0x1F DUP3 GT PUSH1 0x1 EQ PUSH2 0x790 JUMPI PUSH1 0x0 SWAP2 PUSH2 0x785 JUMPI JUMPDEST POP DUP2 PUSH1 0x1 SHL SWAP2 PUSH1 0x0 NOT SWAP1 PUSH1 0x3 SHL SHR NOT AND OR PUSH1 0xA DUP4 ADD SSTORE JUMPDEST DUP3 MLOAD PUSH1 0xB DUP4 ADD SWAP1 PUSH1 0x1 PUSH1 0x1 PUSH1 0x40 SHL SUB DUP2 GT PUSH2 0x76F JUMPI PUSH2 0x57E DUP3 SLOAD PUSH2 0x277D JUMP JUMPDEST PUSH1 0x1F DUP2 GT PUSH2 0x727 JUMPI JUMPDEST POP DUP1 PUSH1 0x20 PUSH1 0x1F DUP3 GT PUSH1 0x1 EQ PUSH2 0x6C3 JUMPI PUSH1 0x0 SWAP2 PUSH2 0x6B8 JUMPI JUMPDEST POP DUP2 PUSH1 0x1 SHL SWAP2 PUSH1 0x0 NOT SWAP1 PUSH1 0x3 SHL SHR NOT AND OR SWAP1 SSTORE JUMPDEST PUSH2 0x300 PUSH2 0xFF00 NOT PUSH1 0xE DUP5 ADD SLOAD AND OR PUSH1 0xE DUP4 ADD SSTORE PUSH3 0x93A80 TIMESTAMP ADD SWAP2 DUP3 TIMESTAMP GT PUSH2 0x6A2 JUMPI DUP3 PUSH1 0x8 DUP3 ADD SSTORE PUSH3 0xA8C00 TIMESTAMP ADD DUP1 SWAP4 GT PUSH2 0x6A2 JUMPI PUSH32 0xCA89BD73CFBD3577480E30B797049A1C376E9F900E9839F8B4938DBC0F2AC526 SWAP4 PUSH2 0x68A SWAP4 PUSH1 0x9 PUSH2 0x698 SWAP4 ADD SSTORE DUP6 PUSH1 0x0 MSTORE PUSH1 0x3 PUSH1 0x20 MSTORE PUSH2 0x676 PUSH1 0x40 PUSH1 0x0 KECCAK256 PUSH1 0x40 MLOAD SWAP1 PUSH2 0x632 DUP3 PUSH2 0x27B7 JUMP JUMPDEST DUP6 DUP3 MSTORE DUP4 PUSH1 0x20 DUP4 ADD MSTORE TIMESTAMP PUSH1 0x40 DUP4 ADD MSTORE PUSH1 0x40 MLOAD PUSH2 0x64D DUP2 PUSH2 0x2809 JUMP JUMPDEST PUSH1 0x12 DUP2 MSTORE PUSH18 0x24B734BA34B0B61039BAB136B4B9B9B4B7B7 PUSH1 0x71 SHL PUSH1 0x20 DUP3 ADD MSTORE PUSH1 0x60 DUP4 ADD MSTORE PUSH2 0x2BA1 JUMP JUMPDEST PUSH1 0x40 MLOAD SWAP4 DUP5 SWAP4 PUSH1 0x40 DUP6 MSTORE PUSH1 0x40 DUP6 ADD SWAP1 PUSH2 0x2910 JUMP JUMPDEST SWAP1 DUP4 DUP3 SUB PUSH1 0x20 DUP6 ADD MSTORE PUSH2 0x2910 JUMP JUMPDEST SUB SWAP1 LOG2 PUSH1 0x1 PUSH1 0x0 SSTORE STOP JUMPDEST PUSH4 0x4E487B71 PUSH1 0xE0 SHL PUSH1 0x0 MSTORE PUSH1 0x11 PUSH1 0x4 MSTORE PUSH1 0x24 PUSH1 0x0 REVERT JUMPDEST SWAP1 POP DUP6 ADD MLOAD DUP8 PUSH2 0x59E JUMP JUMPDEST PUSH1 0x0 DUP5 DUP2 MSTORE PUSH1 0x20 DUP2 KECCAK256 SWAP3 POP PUSH1 0x1F NOT DUP5 AND SWAP1 JUMPDEST DUP2 DUP2 LT PUSH2 0x70F JUMPI POP SWAP1 DUP4 PUSH1 0x1 SWAP5 SWAP4 SWAP3 LT PUSH2 0x6F6 JUMPI JUMPDEST POP POP DUP2 SHL ADD SWAP1 SSTORE PUSH2 0x5B2 JUMP JUMPDEST DUP8 ADD MLOAD PUSH1 0x0 NOT PUSH1 0xF8 DUP5 PUSH1 0x3 SHL AND SHR NOT AND SWAP1 SSTORE DUP8 DUP1 PUSH2 0x6EA JUMP JUMPDEST SWAP2 SWAP3 PUSH1 0x20 PUSH1 0x1 DUP2 SWAP3 DUP7 DUP13 ADD MLOAD DUP2 SSTORE ADD SWAP5 ADD SWAP3 ADD PUSH2 0x6D5 JUMP JUMPDEST DUP3 PUSH1 0x0 MSTORE PUSH1 0x20 PUSH1 0x0 KECCAK256 PUSH1 0x1F DUP4 ADD PUSH1 0x5 SHR DUP2 ADD SWAP2 PUSH1 0x20 DUP5 LT PUSH2 0x765 JUMPI JUMPDEST PUSH1 0x1F ADD PUSH1 0x5 SHR ADD SWAP1 JUMPDEST DUP2 DUP2 LT PUSH2 0x759 JUMPI POP PUSH2 0x587 JUMP JUMPDEST PUSH1 0x0 DUP2 SSTORE PUSH1 0x1 ADD PUSH2 0x74C JUMP JUMPDEST SWAP1 SWAP2 POP DUP2 SWAP1 PUSH2 0x743 JUMP JUMPDEST PUSH4 0x4E487B71 PUSH1 0xE0 SHL PUSH1 0x0 MSTORE PUSH1 0x41 PUSH1 0x4 MSTORE PUSH1 0x24 PUSH1 0x0 REVERT JUMPDEST SWAP1 POP DUP3 ADD MLOAD DUP7 PUSH2 0x548 JUMP JUMPDEST PUSH1 0xA DUP6 ADD PUSH1 0x0 SWAP1 DUP2 MSTORE PUSH1 0x20 DUP2 KECCAK256 SWAP3 POP PUSH1 0x1F NOT DUP5 AND SWAP1 JUMPDEST DUP2 DUP2 LT PUSH2 0x7E3 JUMPI POP SWAP1 DUP4 PUSH1 0x1 SWAP5 SWAP4 SWAP3 LT PUSH2 0x7CA JUMPI JUMPDEST POP POP DUP2 SHL ADD PUSH1 0xA DUP4 ADD SSTORE PUSH2 0x55F JUMP JUMPDEST DUP5 ADD MLOAD PUSH1 0x0 NOT PUSH1 0xF8 DUP5 PUSH1 0x3 SHL AND SHR NOT AND SWAP1 SSTORE DUP7 DUP1 PUSH2 0x7BB JUMP JUMPDEST SWAP2 SWAP3 PUSH1 0x20 PUSH1 0x1 DUP2 SWAP3 DUP7 DUP10 ADD MLOAD DUP2 SSTORE ADD SWAP5 ADD SWAP3 ADD PUSH2 0x7A6 JUMP JUMPDEST PUSH1 0xA DUP5 ADD PUSH1 0x0 MSTORE PUSH1 0x20 PUSH1 0x0 KECCAK256 PUSH1 0x1F DUP4 ADD PUSH1 0x5 SHR DUP2 ADD SWAP2 PUSH1 0x20 DUP5 LT PUSH2 0x83C JUMPI JUMPDEST PUSH1 0x1F ADD PUSH1 0x5 SHR ADD SWAP1 JUMPDEST DUP2 DUP2 LT PUSH2 0x830 JUMPI POP PUSH2 0x531 JUMP JUMPDEST PUSH1 0x0 DUP2 SSTORE PUSH1 0x1 ADD PUSH2 0x823 JUMP JUMPDEST SWAP1 SWAP2 POP DUP2 SWAP1 PUSH2 0x81A JUMP JUMPDEST PUSH1 0x40 MLOAD PUSH3 0x461BCD PUSH1 0xE5 SHL DUP2 MSTORE PUSH1 0x20 PUSH1 0x4 DUP3 ADD MSTORE PUSH1 0x1A PUSH1 0x24 DUP3 ADD MSTORE PUSH26 0x14DD589B5A5CDCDA5BDB88191958591B1A5B99481C185CDCD959 PUSH1 0x32 SHL PUSH1 0x44 DUP3 ADD MSTORE PUSH1 0x64 SWAP1 REVERT JUMPDEST PUSH1 0x40 MLOAD PUSH3 0x461BCD PUSH1 0xE5 SHL DUP2 MSTORE PUSH1 0x20 PUSH1 0x4 DUP3 ADD MSTORE PUSH1 0xE PUSH1 0x24 DUP3 ADD MSTORE PUSH14 0x496E76616C696420737461747573 PUSH1 0x90 SHL PUSH1 0x44 DUP3 ADD MSTORE PUSH1 0x64 SWAP1 REVERT JUMPDEST CALLVALUE PUSH2 0x187 JUMPI PUSH1 0x20 CALLDATASIZE PUSH1 0x3 NOT ADD SLT PUSH2 0x187 JUMPI PUSH2 0x8D7 PUSH2 0x2942 JUMP JUMPDEST PUSH2 0x8DF PUSH2 0x2A35 JUMP JUMPDEST PUSH1 0x1 PUSH1 0x1 PUSH1 0xA0 SHL SUB SWAP1 DUP2 AND SWAP1 DUP2 ISZERO PUSH2 0x91B JUMPI PUSH1 0x1 DUP1 SLOAD PUSH1 0x1 PUSH1 0x1 PUSH1 0xA0 SHL SUB NOT DUP2 AND DUP5 OR SWAP1 SWAP2 SSTORE AND PUSH1 0x0 DUP1 MLOAD PUSH1 0x20 PUSH2 0x32EE DUP4 CODECOPY DUP2 MLOAD SWAP2 MSTORE PUSH1 0x0 DUP1 LOG3 STOP JUMPDEST PUSH1 0x40 MLOAD PUSH4 0x1E4FBDF7 PUSH1 0xE0 SHL DUP2 MSTORE PUSH1 0x0 PUSH1 0x4 DUP3 ADD MSTORE PUSH1 0x24 SWAP1 REVERT JUMPDEST CALLVALUE PUSH2 0x187 JUMPI PUSH1 0x20 CALLDATASIZE PUSH1 0x3 NOT ADD SLT PUSH2 0x187 JUMPI PUSH1 0x1 PUSH1 0x1 PUSH1 0xA0 SHL SUB PUSH2 0x955 PUSH2 0x2942 JUMP JUMPDEST AND PUSH1 0x0 MSTORE PUSH1 0x5 PUSH1 0x20 MSTORE PUSH1 0x20 PUSH1 0x40 PUSH1 0x0 KECCAK256 SLOAD PUSH1 0x40 MLOAD SWAP1 DUP2 MSTORE RETURN JUMPDEST CALLVALUE PUSH2 0x187 JUMPI PUSH1 0xC0 CALLDATASIZE PUSH1 0x3 NOT ADD SLT PUSH2 0x187 JUMPI PUSH1 0x24 DUP1 CALLDATALOAD PUSH1 0x1 PUSH1 0x1 PUSH1 0xA0 SHL SUB DUP2 AND SWAP1 SUB PUSH2 0x187 JUMPI PUSH1 0x44 CALLDATALOAD PUSH1 0x1 PUSH1 0x1 PUSH1 0xA0 SHL SUB DUP2 AND DUP2 SUB PUSH2 0x187 JUMPI PUSH1 0x84 CALLDATALOAD ISZERO ISZERO PUSH1 0x84 CALLDATALOAD SUB PUSH2 0x187 JUMPI PUSH2 0x9BB PUSH2 0x2ABB JUMP JUMPDEST PUSH1 0x4 CALLDATALOAD PUSH1 0x0 MSTORE PUSH1 0x2 PUSH1 0x20 MSTORE PUSH1 0xFF PUSH1 0xE PUSH1 0x40 PUSH1 0x0 KECCAK256 ADD SLOAD PUSH1 0x10 SHR AND PUSH2 0x10CD JUMPI DUP2 CALLDATALOAD PUSH1 0x1 PUSH1 0x1 PUSH1 0xA0 SHL SUB AND ISZERO PUSH2 0x1094 JUMPI PUSH1 0x64 CALLDATALOAD ISZERO PUSH2 0x105B JUMPI PUSH1 0xA4 CALLDATALOAD ISZERO PUSH2 0x1017 JUMPI PUSH2 0x2710 DUP1 PUSH2 0xA0B PUSH1 0x7 SLOAD PUSH1 0x64 CALLDATALOAD PUSH2 0x2A61 JUMP JUMPDEST DIV SWAP1 PUSH1 0x84 CALLDATALOAD ISZERO PUSH2 0x100E JUMPI PUSH2 0xA23 PUSH1 0x8 SLOAD PUSH1 0x64 CALLDATALOAD PUSH2 0x2A61 JUMP JUMPDEST DIV SWAP3 JUMPDEST PUSH1 0x40 MLOAD PUSH4 0x23B872DD PUSH1 0xE0 SHL DUP2 MSTORE PUSH1 0x20 DUP2 DUP1 PUSH2 0xA48 PUSH1 0x64 CALLDATALOAD ADDRESS CALLER PUSH1 0x4 DUP6 ADD PUSH2 0x2A8C JUMP JUMPDEST SUB DUP2 PUSH1 0x0 PUSH1 0x1 PUSH1 0x1 PUSH1 0xA0 SHL SUB DUP10 AND GAS CALL SWAP1 DUP2 ISZERO PUSH2 0x372 JUMPI PUSH1 0x0 SWAP2 PUSH2 0xFEF JUMPI JUMPDEST POP ISZERO PUSH2 0xFB9 JUMPI PUSH1 0x84 CALLDATALOAD PUSH2 0xF19 JUMPI JUMPDEST PUSH3 0x278D00 TIMESTAMP ADD DUP1 TIMESTAMP GT PUSH2 0xF04 JUMPI PUSH1 0x40 MLOAD SWAP3 PUSH2 0xA8F DUP5 PUSH2 0x27D2 JUMP JUMPDEST CALLER DUP5 MSTORE PUSH1 0x1 DUP1 PUSH1 0xA0 SHL SUB DUP4 CALLDATALOAD AND PUSH1 0x20 DUP6 ADD MSTORE PUSH1 0x1 DUP1 PUSH1 0xA0 SHL SUB DUP6 AND PUSH1 0x40 DUP6 ADD MSTORE PUSH1 0x64 CALLDATALOAD PUSH1 0x60 DUP6 ADD MSTORE PUSH1 0x80 DUP5 ADD MSTORE DUP5 PUSH1 0xA0 DUP5 ADD MSTORE PUSH1 0x0 PUSH1 0xC0 DUP5 ADD MSTORE PUSH1 0xE0 DUP4 ADD MSTORE PUSH1 0x0 PUSH2 0x100 DUP4 ADD MSTORE PUSH1 0x0 PUSH2 0x120 DUP4 ADD MSTORE PUSH1 0x40 MLOAD PUSH2 0xAEA DUP2 PUSH2 0x27EE JUMP JUMPDEST PUSH1 0x0 DUP2 MSTORE PUSH2 0x140 DUP4 ADD MSTORE PUSH1 0x40 MLOAD PUSH2 0xB00 DUP2 PUSH2 0x27EE JUMP JUMPDEST PUSH1 0x0 DUP2 MSTORE PUSH2 0x160 DUP4 ADD MSTORE PUSH1 0x0 PUSH2 0x180 DUP4 ADD MSTORE PUSH1 0xA4 CALLDATALOAD PUSH2 0x1A0 DUP4 ADD MSTORE PUSH1 0x1 PUSH2 0x1C0 DUP4 ADD MSTORE PUSH1 0x2 PUSH2 0x1E0 DUP4 ADD MSTORE PUSH1 0x1 PUSH2 0x200 DUP4 ADD MSTORE PUSH1 0x4 CALLDATALOAD PUSH1 0x0 MSTORE PUSH1 0x2 PUSH1 0x20 MSTORE PUSH1 0x40 PUSH1 0x0 KECCAK256 PUSH1 0x1 DUP1 PUSH1 0xA0 SHL SUB DUP4 MLOAD AND PUSH1 0x1 DUP1 PUSH1 0xA0 SHL SUB NOT SWAP1 DUP2 DUP4 SLOAD AND OR DUP3 SSTORE PUSH1 0x1 DUP3 ADD PUSH1 0x1 DUP1 PUSH1 0xA0 SHL SUB PUSH1 0x20 DUP7 ADD MLOAD AND DUP3 DUP3 SLOAD AND OR SWAP1 SSTORE PUSH1 0x2 DUP3 ADD SWAP1 PUSH1 0x1 DUP1 PUSH1 0xA0 SHL SUB PUSH1 0x40 DUP7 ADD MLOAD AND SWAP1 DUP3 SLOAD AND OR SWAP1 SSTORE PUSH1 0x60 DUP4 ADD MLOAD PUSH1 0x3 DUP3 ADD SSTORE PUSH1 0x80 DUP4 ADD MLOAD PUSH1 0x4 DUP3 ADD SSTORE PUSH1 0xA0 DUP4 ADD MLOAD PUSH1 0x5 DUP3 ADD SSTORE PUSH1 0xC0 DUP4 ADD MLOAD PUSH1 0x6 DUP3 ADD SSTORE PUSH1 0xE0 DUP4 ADD MLOAD PUSH1 0x7 DUP3 ADD SSTORE PUSH2 0x100 DUP4 ADD MLOAD PUSH1 0x8 DUP3 ADD SSTORE PUSH2 0x120 DUP4 ADD MLOAD PUSH1 0x9 DUP3 ADD SSTORE PUSH2 0x140 DUP4 ADD MLOAD DUP1 MLOAD SWAP1 PUSH1 0x1 DUP1 PUSH1 0x40 SHL SUB DUP3 GT PUSH2 0xE1F JUMPI DUP2 SWAP1 PUSH2 0xBFB PUSH1 0xA DUP6 ADD SLOAD PUSH2 0x277D JUMP JUMPDEST PUSH1 0x1F DUP2 GT PUSH2 0xEB1 JUMPI JUMPDEST POP PUSH1 0x20 SWAP1 PUSH1 0x1F DUP4 GT PUSH1 0x1 EQ PUSH2 0xE3F JUMPI PUSH1 0x0 SWAP3 PUSH2 0xE34 JUMPI JUMPDEST POP POP DUP2 PUSH1 0x1 SHL SWAP2 PUSH1 0x0 NOT SWAP1 PUSH1 0x3 SHL SHR NOT AND OR PUSH1 0xA DUP3 ADD SSTORE JUMPDEST PUSH2 0x160 DUP4 ADD MLOAD DUP1 MLOAD SWAP1 PUSH1 0x1 PUSH1 0x1 PUSH1 0x40 SHL SUB DUP3 GT PUSH2 0xE1F JUMPI PUSH2 0xC57 PUSH1 0xB DUP5 ADD SLOAD PUSH2 0x277D JUMP JUMPDEST PUSH1 0x1F DUP2 GT PUSH2 0xDD8 JUMPI JUMPDEST POP PUSH1 0x20 SWAP1 PUSH1 0x1F DUP4 GT PUSH1 0x1 EQ PUSH2 0xD65 JUMPI PUSH1 0xE SWAP4 SWAP3 SWAP2 PUSH1 0x0 SWAP2 DUP4 PUSH2 0xD5A JUMPI JUMPDEST POP POP DUP2 PUSH1 0x1 SHL SWAP2 PUSH1 0x0 NOT SWAP1 PUSH1 0x3 SHL SHR NOT AND OR PUSH1 0xB DUP3 ADD SSTORE JUMPDEST PUSH2 0x180 DUP5 ADD MLOAD PUSH1 0xC DUP3 ADD SSTORE PUSH2 0x1A0 DUP5 ADD MLOAD PUSH1 0xD DUP3 ADD SSTORE ADD SWAP2 PUSH2 0xCCA PUSH2 0x1C0 DUP3 ADD MLOAD ISZERO ISZERO DUP5 SWAP1 PUSH1 0xFF DUP1 NOT DUP4 SLOAD AND SWAP2 ISZERO ISZERO AND OR SWAP1 SSTORE JUMP JUMPDEST PUSH2 0x1E0 DUP2 ADD MLOAD SWAP2 PUSH1 0x8 DUP4 LT ISZERO PUSH2 0xD46 JUMPI POP PUSH2 0xFF00 PUSH3 0xFF0000 PUSH2 0x200 DUP6 SLOAD SWAP4 ADD MLOAD ISZERO ISZERO PUSH1 0x10 SHL AND SWAP3 PUSH1 0x8 SHL AND SWAP1 PUSH3 0xFFFF00 NOT AND OR OR SWAP1 SSTORE PUSH1 0x40 MLOAD SWAP2 PUSH1 0x64 CALLDATALOAD DUP4 MSTORE PUSH1 0x20 DUP4 ADD MSTORE PUSH1 0x1 DUP1 PUSH1 0xA0 SHL SUB AND SWAP1 PUSH32 0x94091ABA73CB1DE49078EE312EE5A917B8FA93BADF3C2CE89052B36E4AD315DB PUSH1 0x40 PUSH1 0x4 CALLDATALOAD SWAP3 LOG3 PUSH1 0x1 PUSH1 0x0 SSTORE STOP JUMPDEST PUSH4 0x4E487B71 PUSH1 0xE0 SHL PUSH1 0x0 SWAP1 DUP2 MSTORE PUSH1 0x21 PUSH1 0x4 MSTORE REVERT JUMPDEST ADD MLOAD SWAP1 POP DUP9 DUP1 PUSH2 0xC7D JUMP JUMPDEST SWAP1 PUSH1 0xB DUP5 ADD PUSH1 0x0 MSTORE PUSH1 0x20 PUSH1 0x0 KECCAK256 SWAP2 PUSH1 0x0 JUMPDEST PUSH1 0x1F NOT DUP6 AND DUP2 LT PUSH2 0xDC0 JUMPI POP SWAP2 DUP4 SWAP2 PUSH1 0x1 SWAP4 PUSH1 0xE SWAP7 SWAP6 PUSH1 0x1F NOT DUP2 AND LT PUSH2 0xDA7 JUMPI JUMPDEST POP POP POP DUP2 SHL ADD PUSH1 0xB DUP3 ADD SSTORE PUSH2 0xC95 JUMP JUMPDEST ADD MLOAD PUSH1 0x0 NOT PUSH1 0xF8 DUP5 PUSH1 0x3 SHL AND SHR NOT AND SWAP1 SSTORE DUP9 DUP1 DUP1 PUSH2 0xD97 JUMP JUMPDEST SWAP2 SWAP3 PUSH1 0x20 PUSH1 0x1 DUP2 SWAP3 DUP7 DUP6 ADD MLOAD DUP2 SSTORE ADD SWAP5 ADD SWAP3 ADD PUSH2 0xD76 JUMP JUMPDEST PUSH1 0xB DUP5 ADD PUSH1 0x0 MSTORE PUSH1 0x20 PUSH1 0x0 KECCAK256 PUSH1 0x1F DUP5 ADD PUSH1 0x5 SHR DUP2 ADD PUSH1 0x20 DUP6 LT PUSH2 0xE18 JUMPI JUMPDEST PUSH1 0x1F DUP4 ADD PUSH1 0x5 SHR DUP3 ADD DUP2 LT PUSH2 0xE0C JUMPI POP POP PUSH2 0xC60 JUMP JUMPDEST PUSH1 0x0 DUP2 SSTORE PUSH1 0x1 ADD PUSH2 0xDF6 JUMP JUMPDEST POP DUP1 PUSH2 0xDF6 JUMP JUMPDEST DUP4 PUSH4 0x4E487B71 PUSH1 0xE0 SHL PUSH1 0x0 MSTORE PUSH1 0x41 PUSH1 0x4 MSTORE PUSH1 0x0 REVERT JUMPDEST ADD MLOAD SWAP1 POP DUP8 DUP1 PUSH2 0xC1B JUMP JUMPDEST SWAP3 POP PUSH1 0xA DUP5 ADD PUSH1 0x0 MSTORE PUSH1 0x20 PUSH1 0x0 KECCAK256 SWAP1 PUSH1 0x0 SWAP4 JUMPDEST PUSH1 0x1F NOT DUP5 AND DUP6 LT PUSH2 0xE96 JUMPI PUSH1 0x1 SWAP5 POP DUP4 PUSH1 0x1F NOT DUP2 AND LT PUSH2 0xE7D JUMPI JUMPDEST POP POP POP DUP2 SHL ADD PUSH1 0xA DUP3 ADD SSTORE PUSH2 0xC33 JUMP JUMPDEST ADD MLOAD PUSH1 0x0 NOT PUSH1 0xF8 DUP5 PUSH1 0x3 SHL AND SHR NOT AND SWAP1 SSTORE DUP8 DUP1 DUP1 PUSH2 0xE6D JUMP JUMPDEST DUP2 DUP2 ADD MLOAD DUP4 SSTORE PUSH1 0x20 SWAP5 DUP6 ADD SWAP5 PUSH1 0x1 SWAP1 SWAP4 ADD SWAP3 SWAP1 SWAP2 ADD SWAP1 PUSH2 0xE52 JUMP JUMPDEST SWAP1 SWAP2 POP PUSH1 0xA DUP5 ADD PUSH1 0x0 MSTORE PUSH1 0x20 PUSH1 0x0 KECCAK256 PUSH1 0x1F DUP5 ADD PUSH1 0x5 SHR DUP2 ADD PUSH1 0x20 DUP6 LT PUSH2 0xEFD JUMPI JUMPDEST SWAP1 DUP5 SWAP4 SWAP3 SWAP2 JUMPDEST PUSH1 0x1F DUP4 ADD PUSH1 0x5 SHR DUP3 ADD DUP2 LT PUSH2 0xEEE JUMPI POP POP PUSH2 0xC04 JUMP JUMPDEST PUSH1 0x0 DUP2 SSTORE DUP6 SWAP5 POP PUSH1 0x1 ADD PUSH2 0xED8 JUMP JUMPDEST POP DUP1 PUSH2 0xED2 JUMP JUMPDEST POP PUSH4 0x4E487B71 PUSH1 0xE0 SHL PUSH1 0x0 SWAP1 DUP2 MSTORE PUSH1 0x11 PUSH1 0x4 MSTORE REVERT JUMPDEST PUSH1 0x40 MLOAD PUSH4 0x23B872DD PUSH1 0xE0 SHL DUP2 MSTORE PUSH1 0x20 DUP2 DUP1 PUSH2 0xF3A DUP9 ADDRESS DUP8 CALLDATALOAD PUSH1 0x4 DUP6 ADD PUSH2 0x2A8C JUMP JUMPDEST SUB DUP2 PUSH1 0x0 PUSH1 0x1 PUSH1 0x1 PUSH1 0xA0 SHL SUB DUP10 AND GAS CALL SWAP1 DUP2 ISZERO PUSH2 0x372 JUMPI PUSH1 0x0 SWAP2 PUSH2 0xF9A JUMPI JUMPDEST POP PUSH2 0xA75 JUMPI PUSH1 0x64 SWAP1 PUSH1 0x15 PUSH1 0x40 MLOAD SWAP2 PUSH3 0x461BCD PUSH1 0xE5 SHL DUP4 MSTORE PUSH1 0x20 PUSH1 0x4 DUP5 ADD MSTORE DUP3 ADD MSTORE PUSH21 0x14DD185AD9481D1C985B9CD9995C8819985A5B1959 PUSH1 0x5A SHL PUSH1 0x44 DUP3 ADD MSTORE REVERT JUMPDEST PUSH2 0xFB3 SWAP2 POP PUSH1 0x20 RETURNDATASIZE PUSH1 0x20 GT PUSH2 0x36B JUMPI PUSH2 0x35D DUP2 DUP4 PUSH2 0x2824 JUMP JUMPDEST DUP6 PUSH2 0xF59 JUMP JUMPDEST PUSH1 0x64 SWAP1 PUSH1 0xF PUSH1 0x40 MLOAD SWAP2 PUSH3 0x461BCD PUSH1 0xE5 SHL DUP4 MSTORE PUSH1 0x20 PUSH1 0x4 DUP5 ADD MSTORE DUP3 ADD MSTORE PUSH15 0x151C985B9CD9995C8819985A5B1959 PUSH1 0x8A SHL PUSH1 0x44 DUP3 ADD MSTORE REVERT JUMPDEST PUSH2 0x1008 SWAP2 POP PUSH1 0x20 RETURNDATASIZE PUSH1 0x20 GT PUSH2 0x36B JUMPI PUSH2 0x35D DUP2 DUP4 PUSH2 0x2824 JUMP JUMPDEST DUP6 PUSH2 0xA67 JUMP JUMPDEST POP PUSH1 0x0 SWAP3 PUSH2 0xA26 JUMP JUMPDEST PUSH1 0x40 MLOAD PUSH3 0x461BCD PUSH1 0xE5 SHL DUP2 MSTORE PUSH1 0x20 PUSH1 0x4 DUP3 ADD MSTORE PUSH1 0x1E DUP2 DUP5 ADD MSTORE PUSH32 0x4D75737420616C6C6F77206174206C656173742031207265766973696F6E0000 PUSH1 0x44 DUP3 ADD MSTORE PUSH1 0x64 SWAP1 REVERT JUMPDEST PUSH1 0x40 MLOAD PUSH3 0x461BCD PUSH1 0xE5 SHL DUP2 MSTORE PUSH1 0x20 PUSH1 0x4 DUP3 ADD MSTORE PUSH1 0x12 DUP2 DUP5 ADD MSTORE PUSH18 0x416D6F756E74206D757374206265203E203 PUSH1 0x74 SHL PUSH1 0x44 DUP3 ADD MSTORE PUSH1 0x64 SWAP1 REVERT JUMPDEST PUSH1 0x40 MLOAD PUSH3 0x461BCD PUSH1 0xE5 SHL DUP2 MSTORE PUSH1 0x20 PUSH1 0x4 DUP3 ADD MSTORE PUSH1 0x12 DUP2 DUP5 ADD MSTORE PUSH18 0x24B73B30B634B210333932B2B630B731B2B9 PUSH1 0x71 SHL PUSH1 0x44 DUP3 ADD MSTORE PUSH1 0x64 SWAP1 REVERT JUMPDEST PUSH1 0x40 MLOAD PUSH3 0x461BCD PUSH1 0xE5 SHL DUP2 MSTORE PUSH1 0x20 PUSH1 0x4 DUP3 ADD MSTORE PUSH1 0x12 DUP2 DUP5 ADD MSTORE PUSH18 0x4A6F6220616C726561647920657869737473 PUSH1 0x70 SHL PUSH1 0x44 DUP3 ADD MSTORE PUSH1 0x64 SWAP1 REVERT JUMPDEST CALLVALUE PUSH2 0x187 JUMPI PUSH1 0x0 CALLDATASIZE PUSH1 0x3 NOT ADD SLT PUSH2 0x187 JUMPI PUSH1 0x20 PUSH1 0x40 MLOAD PUSH3 0x278D00 DUP2 MSTORE RETURN JUMPDEST CALLVALUE PUSH2 0x187 JUMPI PUSH1 0x20 CALLDATASIZE PUSH1 0x3 NOT ADD SLT PUSH2 0x187 JUMPI PUSH1 0x0 PUSH2 0x200 PUSH1 0x40 MLOAD PUSH2 0x1146 DUP2 PUSH2 0x27D2 JUMP JUMPDEST DUP3 DUP2 MSTORE DUP3 PUSH1 0x20 DUP3 ADD MSTORE DUP3 PUSH1 0x40 DUP3 ADD MSTORE DUP3 PUSH1 0x60 DUP3 ADD MSTORE DUP3 PUSH1 0x80 DUP3 ADD MSTORE DUP3 PUSH1 0xA0 DUP3 ADD MSTORE DUP3 PUSH1 0xC0 DUP3 ADD MSTORE DUP3 PUSH1 0xE0 DUP3 ADD MSTORE DUP3 PUSH2 0x100 DUP3 ADD MSTORE DUP3 PUSH2 0x120 DUP3 ADD MSTORE PUSH1 0x60 PUSH2 0x140 DUP3 ADD MSTORE PUSH1 0x60 PUSH2 0x160 DUP3 ADD MSTORE DUP3 PUSH2 0x180 DUP3 ADD MSTORE DUP3 PUSH2 0x1A0 DUP3 ADD MSTORE DUP3 PUSH2 0x1C0 DUP3 ADD MSTORE DUP3 PUSH2 0x1E0 DUP3 ADD MSTORE ADD MSTORE PUSH1 0x4 CALLDATALOAD DUP1 PUSH1 0x0 MSTORE PUSH1 0x2 PUSH1 0x20 MSTORE PUSH2 0x11D2 PUSH1 0xFF PUSH1 0xE PUSH1 0x40 PUSH1 0x0 KECCAK256 ADD SLOAD PUSH1 0x10 SHR AND PUSH2 0x2B1F JUMP JUMPDEST PUSH1 0x0 MSTORE PUSH1 0x2 PUSH1 0x20 MSTORE PUSH1 0x40 PUSH1 0x0 KECCAK256 PUSH1 0xE PUSH1 0x40 MLOAD SWAP2 PUSH2 0x11EE DUP4 PUSH2 0x27D2 JUMP JUMPDEST DUP1 SLOAD PUSH1 0x1 PUSH1 0x1 PUSH1 0xA0 SHL SUB SWAP1 DUP2 AND DUP5 MSTORE PUSH1 0x1 DUP3 ADD SLOAD DUP2 AND PUSH1 0x20 DUP6 ADD MSTORE PUSH1 0x2 DUP3 ADD SLOAD AND PUSH1 0x40 DUP5 ADD MSTORE PUSH1 0x3 DUP2 ADD SLOAD PUSH1 0x60 DUP5 ADD MSTORE PUSH1 0x4 DUP2 ADD SLOAD PUSH1 0x80 DUP5 ADD MSTORE PUSH1 0x5 DUP2 ADD SLOAD PUSH1 0xA0 DUP5 ADD MSTORE PUSH1 0x6 DUP2 ADD SLOAD PUSH1 0xC0 DUP5 ADD MSTORE PUSH1 0x7 DUP2 ADD SLOAD PUSH1 0xE0 DUP5 ADD MSTORE PUSH1 0x8 DUP2 ADD SLOAD PUSH2 0x100 DUP5 ADD MSTORE PUSH1 0x9 DUP2 ADD SLOAD PUSH2 0x120 DUP5 ADD MSTORE PUSH2 0x1268 PUSH1 0xA DUP3 ADD PUSH2 0x2847 JUMP JUMPDEST PUSH2 0x140 DUP5 ADD MSTORE PUSH2 0x127A PUSH1 0xB DUP3 ADD PUSH2 0x2847 JUMP JUMPDEST PUSH2 0x160 DUP5 ADD MSTORE PUSH1 0xC DUP2 ADD SLOAD PUSH2 0x180 DUP5 ADD MSTORE PUSH1 0xD DUP2 ADD SLOAD PUSH2 0x1A0 DUP5 ADD MSTORE ADD SLOAD PUSH1 0xFF DUP2 AND ISZERO ISZERO PUSH2 0x1C0 DUP4 ADD MSTORE PUSH1 0x8 PUSH1 0xFF DUP3 DUP3 SHR AND LT ISZERO PUSH2 0x459 JUMPI DUP1 PUSH1 0xFF DUP1 SWAP3 PUSH1 0x8 SHR AND PUSH2 0x1E0 DUP5 ADD MSTORE PUSH1 0x10 SHR AND ISZERO ISZERO PUSH2 0x200 DUP3 ADD MSTORE PUSH1 0x40 MLOAD DUP1 SWAP2 PUSH1 0x20 DUP3 MSTORE PUSH1 0x1 DUP1 PUSH1 0xA0 SHL SUB DUP2 MLOAD AND PUSH1 0x20 DUP4 ADD MSTORE PUSH1 0x1 DUP1 PUSH1 0xA0 SHL SUB PUSH1 0x20 DUP3 ADD MLOAD AND PUSH1 0x40 DUP4 ADD MSTORE PUSH1 0x1 DUP1 PUSH1 0xA0 SHL SUB PUSH1 0x40 DUP3 ADD MLOAD AND PUSH1 0x60 DUP4 ADD MSTORE PUSH1 0x60 DUP2 ADD MLOAD PUSH1 0x80 DUP4 ADD MSTORE PUSH1 0x80 DUP2 ADD MLOAD PUSH1 0xA0 DUP4 ADD MSTORE PUSH1 0xA0 DUP2 ADD MLOAD PUSH1 0xC0 DUP4 ADD MSTORE PUSH1 0xC0 DUP2 ADD MLOAD PUSH1 0xE0 DUP4 ADD MSTORE PUSH1 0xE0 DUP2 ADD MLOAD PUSH2 0x100 DUP4 ADD MSTORE PUSH2 0x100 DUP2 ADD MLOAD PUSH2 0x120 DUP4 ADD MSTORE PUSH2 0x120 DUP2 ADD MLOAD PUSH2 0x140 DUP4 ADD MSTORE PUSH2 0x140 DUP2 ADD MLOAD PUSH2 0x200 PUSH2 0x1391 PUSH2 0x1379 PUSH2 0x220 SWAP4 DUP5 PUSH2 0x160 DUP9 ADD MSTORE PUSH2 0x240 DUP8 ADD SWAP1 PUSH2 0x2910 JUMP JUMPDEST PUSH2 0x160 DUP6 ADD MLOAD DUP7 DUP3 SUB PUSH1 0x1F NOT ADD PUSH2 0x180 DUP9 ADD MSTORE PUSH2 0x2910 JUMP JUMPDEST SWAP3 PUSH2 0x180 DUP2 ADD MLOAD PUSH2 0x1A0 DUP7 ADD MSTORE PUSH2 0x1A0 DUP2 ADD MLOAD PUSH2 0x1C0 DUP7 ADD MSTORE PUSH2 0x1C0 DUP2 ADD MLOAD ISZERO ISZERO PUSH2 0x1E0 DUP7 ADD MSTORE PUSH2 0x13CA PUSH2 0x1E0 DUP3 ADD MLOAD DUP4 DUP8 ADD SWAP1 PUSH2 0x2935 JUMP JUMPDEST ADD MLOAD ISZERO ISZERO SWAP1 DUP4 ADD MSTORE SUB SWAP1 RETURN JUMPDEST CALLVALUE PUSH2 0x187 JUMPI PUSH1 0x40 CALLDATASIZE PUSH1 0x3 NOT ADD SLT PUSH2 0x187 JUMPI PUSH1 0x24 CALLDATALOAD PUSH1 0x4 CALLDATALOAD PUSH1 0x0 MSTORE PUSH1 0x3 PUSH1 0x20 MSTORE PUSH1 0x40 PUSH1 0x0 KECCAK256 DUP1 SLOAD DUP3 LT ISZERO PUSH2 0x187 JUMPI PUSH2 0x1453 SWAP2 PUSH2 0x1410 SWAP2 PUSH2 0x2A03 JUMP JUMPDEST POP PUSH2 0x1474 PUSH2 0x141D DUP3 PUSH2 0x2847 JUMP JUMPDEST SWAP2 PUSH2 0x142A PUSH1 0x1 DUP3 ADD PUSH2 0x2847 JUMP JUMPDEST PUSH2 0x1461 PUSH2 0x143E PUSH1 0x3 PUSH1 0x2 DUP6 ADD SLOAD SWAP5 ADD PUSH2 0x2847 JUMP JUMPDEST SWAP2 PUSH1 0x40 MLOAD SWAP7 DUP8 SWAP7 PUSH1 0x80 DUP9 MSTORE PUSH1 0x80 DUP9 ADD SWAP1 PUSH2 0x2910 JUMP JUMPDEST SWAP1 DUP7 DUP3 SUB PUSH1 0x20 DUP9 ADD MSTORE PUSH2 0x2910 JUMP JUMPDEST SWAP2 PUSH1 0x40 DUP6 ADD MSTORE DUP4 DUP3 SUB PUSH1 0x60 DUP6 ADD MSTORE PUSH2 0x2910 JUMP JUMPDEST SUB SWAP1 RETURN JUMPDEST CALLVALUE PUSH2 0x187 JUMPI PUSH1 0xA0 CALLDATASIZE PUSH1 0x3 NOT ADD SLT PUSH2 0x187 JUMPI PUSH1 0x4 CALLDATALOAD PUSH1 0x44 CALLDATALOAD PUSH1 0x24 DUP1 CALLDATALOAD DUP3 ISZERO ISZERO DUP4 SUB PUSH2 0x187 JUMPI PUSH1 0x64 CALLDATALOAD DUP1 ISZERO ISZERO DUP2 SUB PUSH2 0x187 JUMPI PUSH1 0x84 CALLDATALOAD PUSH1 0x1 PUSH1 0x1 PUSH1 0x40 SHL SUB DUP2 GT PUSH2 0x187 JUMPI PUSH2 0x14C7 SWAP1 CALLDATASIZE SWAP1 PUSH1 0x4 ADD PUSH2 0x2973 JUMP JUMPDEST SWAP4 CALLER PUSH1 0x0 MSTORE PUSH1 0x20 SWAP4 PUSH1 0x4 DUP6 MSTORE PUSH1 0xFF PUSH1 0x40 PUSH1 0x0 KECCAK256 SLOAD AND DUP1 ISZERO PUSH2 0x190A JUMPI JUMPDEST ISZERO PUSH2 0x18D3 JUMPI DUP7 PUSH1 0x0 MSTORE PUSH1 0x2 DUP6 MSTORE PUSH2 0x1507 PUSH1 0xFF PUSH1 0xE PUSH1 0x40 PUSH1 0x0 KECCAK256 ADD SLOAD PUSH1 0x10 SHR AND PUSH2 0x2B1F JUMP JUMPDEST PUSH2 0x150F PUSH2 0x2ABB JUMP JUMPDEST DUP7 PUSH1 0x0 MSTORE PUSH1 0x2 DUP6 MSTORE PUSH1 0x40 PUSH1 0x0 KECCAK256 SWAP1 PUSH1 0xE DUP3 ADD SWAP3 PUSH1 0xFF DUP5 SLOAD PUSH1 0x8 SHR AND PUSH1 0x8 DUP2 LT ISZERO PUSH2 0x18BE JUMPI PUSH1 0x6 SUB PUSH2 0x1889 JUMPI PUSH2 0x2710 DUP1 DUP8 GT PUSH2 0x1850 JUMPI PUSH2 0x155F SWAP1 PUSH2 0x1557 PUSH1 0x3 DUP7 ADD SLOAD SWAP9 DUP10 PUSH2 0x2A61 JUMP JUMPDEST DIV DUP1 SWAP8 PUSH2 0x2F9F JUMP JUMPDEST DUP1 SWAP2 PUSH1 0x0 EQ PUSH2 0x1838 JUMPI POP PUSH1 0x6 DUP4 ADD SLOAD PUSH2 0x1577 SWAP2 PUSH2 0x2AAE JUMP JUMPDEST SWAP4 PUSH1 0x1 DUP1 PUSH1 0xA0 SHL SUB DUP4 SLOAD AND PUSH1 0x0 MSTORE PUSH1 0x5 DUP8 MSTORE PUSH1 0x40 PUSH1 0x0 KECCAK256 PUSH2 0x1598 DUP2 SLOAD PUSH2 0x2F90 JUMP JUMPDEST SWAP1 SSTORE JUMPDEST DUP1 PUSH2 0x182B JUMPI JUMPDEST ISZERO PUSH2 0x1809 JUMPI PUSH2 0x15B6 PUSH1 0x5 DUP4 ADD SWAP6 DUP7 SLOAD SWAP1 PUSH2 0x2AAE JUMP JUMPDEST SWAP5 DUP9 PUSH32 0xBA00BE99B4BA100B19F2C080160AB22C2B8F4D62027D6524C532E7578D7A43B4 DUP9 PUSH1 0x1 DUP7 ADD PUSH1 0x1 DUP1 PUSH1 0xA0 SHL SUB SWAP1 DUP2 DUP2 SLOAD AND PUSH1 0x0 MSTORE PUSH1 0x5 DUP4 MSTORE PUSH1 0x40 PUSH1 0x0 KECCAK256 PUSH2 0x1600 DUP2 SLOAD PUSH2 0x2F90 JUMP JUMPDEST SWAP1 SSTORE SLOAD AND SWAP4 SLOAD PUSH1 0x40 MLOAD SWAP1 DUP2 MSTORE LOG3 JUMPDEST DUP5 PUSH2 0x1763 JUMPI JUMPDEST POP DUP3 PUSH2 0x165A JUMPI JUMPDEST POP SWAP4 PUSH2 0x698 SWAP2 PUSH1 0x0 DUP1 MLOAD PUSH1 0x20 PUSH2 0x32CE DUP4 CODECOPY DUP2 MLOAD SWAP2 MSTORE SWAP6 PUSH2 0x500 PUSH2 0xFF00 NOT DUP3 SLOAD AND OR SWAP1 SSTORE PUSH1 0x40 MLOAD SWAP5 DUP6 SWAP5 DUP6 MSTORE DUP5 ADD MSTORE PUSH1 0x60 PUSH1 0x40 DUP5 ADD MSTORE PUSH1 0x60 DUP4 ADD SWAP1 PUSH2 0x2910 JUMP JUMPDEST SWAP2 DUP3 PUSH1 0x4 PUSH1 0x0 SWAP8 SWAP4 SWAP5 ADD SWAP1 PUSH2 0x1670 DUP3 SLOAD DUP5 PUSH2 0x2F9F JUMP JUMPDEST SWAP1 PUSH1 0x2 DUP2 ADD SWAP3 DUP9 PUSH2 0x16AC PUSH1 0x1 DUP1 PUSH1 0xA0 SHL SUB SWAP4 DUP5 PUSH1 0x1 DUP2 DUP10 SLOAD AND SWAP3 ADD SLOAD AND SWAP6 PUSH1 0x40 MLOAD SWAP14 DUP15 DUP1 SWAP5 DUP2 SWAP4 PUSH4 0xA9059CBB PUSH1 0xE0 SHL SWAP11 DUP12 DUP5 MSTORE PUSH1 0x4 DUP5 ADD PUSH2 0x2FAC JUMP JUMPDEST SUB SWAP3 GAS CALL SWAP10 DUP11 ISZERO PUSH2 0x372 JUMPI DUP3 DUP11 SWAP6 PUSH2 0x16D1 PUSH2 0x16F0 SWAP14 PUSH1 0x0 SWAP5 DUP6 SWAP2 PUSH2 0x1746 JUMPI JUMPDEST POP PUSH2 0x2FC7 JUMP JUMPDEST SLOAD AND SWAP3 PUSH1 0x6 SLOAD AND SWAP2 SLOAD SWAP4 PUSH1 0x40 MLOAD SWAP12 DUP13 SWAP6 DUP7 SWAP5 DUP6 SWAP4 DUP5 MSTORE PUSH1 0x4 DUP5 ADD PUSH2 0x2FAC JUMP JUMPDEST SUB SWAP3 GAS CALL SWAP3 DUP4 ISZERO PUSH2 0x372 JUMPI PUSH2 0x1720 PUSH2 0x698 SWAP5 PUSH1 0x0 DUP1 MLOAD PUSH1 0x20 PUSH2 0x32CE DUP4 CODECOPY DUP2 MLOAD SWAP2 MSTORE SWAP9 PUSH1 0x0 SWAP2 PUSH2 0x1729 JUMPI JUMPDEST POP PUSH2 0x3010 JUMP JUMPDEST SWAP2 SWAP6 POP SWAP2 PUSH2 0x161B JUMP JUMPDEST PUSH2 0x1740 SWAP2 POP DUP9 RETURNDATASIZE DUP11 GT PUSH2 0x36B JUMPI PUSH2 0x35D DUP2 DUP4 PUSH2 0x2824 JUMP JUMPDEST DUP11 PUSH2 0x171A JUMP JUMPDEST PUSH2 0x175D SWAP2 POP DUP10 RETURNDATASIZE DUP12 GT PUSH2 0x36B JUMPI PUSH2 0x35D DUP2 DUP4 PUSH2 0x2824 JUMP JUMPDEST CODESIZE PUSH2 0x16CB JUMP JUMPDEST PUSH2 0x1798 DUP7 DUP7 PUSH1 0x1 DUP1 PUSH1 0xA0 SHL SUB DUP1 PUSH1 0x2 DUP8 ADD SLOAD AND SWAP1 DUP7 SLOAD AND PUSH1 0x0 PUSH1 0x40 MLOAD DUP1 SWAP7 DUP2 SWAP6 DUP3 SWAP5 PUSH4 0xA9059CBB PUSH1 0xE0 SHL DUP5 MSTORE PUSH1 0x4 DUP5 ADD PUSH2 0x2FAC JUMP JUMPDEST SUB SWAP3 GAS CALL SWAP1 DUP2 ISZERO PUSH2 0x372 JUMPI PUSH1 0x0 SWAP2 PUSH2 0x17EC JUMPI JUMPDEST POP PUSH2 0x1614 JUMPI DUP6 PUSH1 0x16 PUSH1 0x64 SWAP3 PUSH1 0x40 MLOAD SWAP3 PUSH3 0x461BCD PUSH1 0xE5 SHL DUP5 MSTORE PUSH1 0x4 DUP5 ADD MSTORE DUP3 ADD MSTORE PUSH22 0x10DB1A595B9D081D1C985B9CD9995C8819985A5B1959 PUSH1 0x52 SHL PUSH1 0x44 DUP3 ADD MSTORE REVERT JUMPDEST PUSH2 0x1803 SWAP2 POP DUP8 RETURNDATASIZE DUP10 GT PUSH2 0x36B JUMPI PUSH2 0x35D DUP2 DUP4 PUSH2 0x2824 JUMP JUMPDEST DUP10 PUSH2 0x17AB JUMP JUMPDEST PUSH1 0x5 DUP3 ADD SLOAD DUP1 PUSH2 0x181A JUMPI JUMPDEST POP PUSH2 0x160E JUMP JUMPDEST PUSH2 0x1824 SWAP2 SWAP5 PUSH2 0x2AAE JUMP JUMPDEST SWAP3 DUP9 PUSH2 0x1814 JUMP JUMPDEST POP PUSH1 0x5 DUP3 ADD SLOAD ISZERO ISZERO PUSH2 0x15A1 JUMP JUMPDEST SWAP5 SWAP6 PUSH2 0x184A SWAP2 POP PUSH1 0x6 DUP5 ADD SLOAD SWAP1 PUSH2 0x2AAE JUMP JUMPDEST SWAP5 PUSH2 0x159B JUMP JUMPDEST PUSH1 0x40 MLOAD PUSH3 0x461BCD PUSH1 0xE5 SHL DUP2 MSTORE PUSH1 0x4 DUP2 ADD DUP10 SWAP1 MSTORE PUSH1 0x12 DUP2 DUP6 ADD MSTORE PUSH18 0x496E76616C69642070657263656E74616765 PUSH1 0x70 SHL PUSH1 0x44 DUP3 ADD MSTORE PUSH1 0x64 SWAP1 REVERT JUMPDEST PUSH1 0x40 MLOAD PUSH3 0x461BCD PUSH1 0xE5 SHL DUP2 MSTORE PUSH1 0x4 DUP2 ADD DUP9 SWAP1 MSTORE PUSH1 0xE DUP2 DUP5 ADD MSTORE PUSH14 0x4E6F7420696E2064697370757465 PUSH1 0x90 SHL PUSH1 0x44 DUP3 ADD MSTORE PUSH1 0x64 SWAP1 REVERT JUMPDEST DUP3 PUSH4 0x4E487B71 PUSH1 0xE0 SHL PUSH1 0x0 MSTORE PUSH1 0x21 PUSH1 0x4 MSTORE PUSH1 0x0 REVERT JUMPDEST DUP5 PUSH1 0x11 PUSH1 0x64 SWAP3 PUSH1 0x40 MLOAD SWAP3 PUSH3 0x461BCD PUSH1 0xE5 SHL DUP5 MSTORE PUSH1 0x4 DUP5 ADD MSTORE DUP3 ADD MSTORE PUSH17 0x2737BA1030B71030B93134BA3930BA37B9 PUSH1 0x79 SHL PUSH1 0x44 DUP3 ADD MSTORE REVERT JUMPDEST POP PUSH1 0x1 SLOAD PUSH1 0x1 PUSH1 0x1 PUSH1 0xA0 SHL SUB AND CALLER EQ PUSH2 0x14E3 JUMP JUMPDEST CALLVALUE PUSH2 0x187 JUMPI PUSH1 0x0 CALLDATASIZE PUSH1 0x3 NOT ADD SLT PUSH2 0x187 JUMPI PUSH1 0x20 PUSH1 0x40 MLOAD PUSH3 0x3F480 DUP2 MSTORE RETURN JUMPDEST PUSH1 0x20 DUP1 PUSH1 0x3 NOT CALLDATASIZE ADD SLT PUSH2 0x187 JUMPI PUSH1 0x4 CALLDATALOAD DUP1 PUSH1 0x0 MSTORE PUSH1 0x2 DUP3 MSTORE PUSH2 0x196B PUSH1 0xFF PUSH1 0xE PUSH1 0x40 PUSH1 0x0 KECCAK256 ADD SLOAD PUSH1 0x10 SHR AND PUSH2 0x2B1F JUMP JUMPDEST PUSH2 0x1973 PUSH2 0x2ABB JUMP JUMPDEST DUP1 PUSH1 0x0 MSTORE PUSH1 0x2 DUP3 MSTORE PUSH1 0x40 PUSH1 0x0 KECCAK256 SWAP2 PUSH1 0xE DUP4 ADD PUSH1 0xFF DUP2 SLOAD PUSH1 0x8 SHR AND PUSH1 0x8 DUP2 LT ISZERO PUSH2 0x459 JUMPI PUSH1 0x3 PUSH2 0x19A2 SWAP2 EQ PUSH2 0x2F4F JUMP JUMPDEST DUP4 SLOAD PUSH1 0x1 PUSH1 0x1 PUSH1 0xA0 SHL SUB SWAP5 SWAP1 DUP6 AND CALLER SUB PUSH2 0x1AB0 JUMPI PUSH2 0x2710 PUSH2 0x19CA PUSH1 0x3 DUP4 ADD SLOAD PUSH1 0x9 SLOAD SWAP1 PUSH2 0x2A61 JUMP JUMPDEST DIV SWAP5 PUSH1 0x2 DUP3 ADD SLOAD AND DUP4 PUSH1 0x40 MLOAD DUP1 SWAP3 PUSH4 0x23B872DD PUSH1 0xE0 SHL DUP3 MSTORE DUP2 PUSH1 0x0 DUP2 PUSH2 0x19F5 DUP13 ADDRESS CALLER PUSH1 0x4 DUP6 ADD PUSH2 0x2A8C JUMP JUMPDEST SUB SWAP3 GAS CALL SWAP1 DUP2 ISZERO PUSH2 0x372 JUMPI PUSH1 0x0 SWAP2 PUSH2 0x1A93 JUMPI JUMPDEST POP ISZERO PUSH2 0x1A54 JUMPI PUSH1 0x6 ADD DUP5 SWAP1 SSTORE DUP1 SLOAD PUSH2 0xFF00 NOT AND PUSH2 0x600 OR SWAP1 SSTORE PUSH1 0x40 MLOAD SWAP3 DUP4 MSTORE CALLER SWAP3 PUSH32 0xE0E58E9CC5ED7EF092D3E14CFF6136D23EBF75A16CF3C8257EF8804811D8B0F3 SWAP2 SWAP1 LOG3 PUSH1 0x1 PUSH1 0x0 SSTORE STOP JUMPDEST PUSH1 0x40 MLOAD PUSH3 0x461BCD PUSH1 0xE5 SHL DUP2 MSTORE PUSH1 0x4 DUP2 ADD DUP5 SWAP1 MSTORE PUSH1 0x17 PUSH1 0x24 DUP3 ADD MSTORE PUSH23 0x11195C1BDCDA5D081D1C985B9CD9995C8819985A5B1959 PUSH1 0x4A SHL PUSH1 0x44 DUP3 ADD MSTORE PUSH1 0x64 SWAP1 REVERT JUMPDEST PUSH2 0x1AAA SWAP2 POP DUP5 RETURNDATASIZE DUP7 GT PUSH2 0x36B JUMPI PUSH2 0x35D DUP2 DUP4 PUSH2 0x2824 JUMP JUMPDEST DUP7 PUSH2 0x1A08 JUMP JUMPDEST PUSH1 0x40 MLOAD PUSH3 0x461BCD PUSH1 0xE5 SHL DUP2 MSTORE PUSH1 0x4 DUP2 ADD DUP5 SWAP1 MSTORE PUSH1 0x1D PUSH1 0x24 DUP3 ADD MSTORE PUSH32 0x4F6E6C7920636C69656E742063616E2072616973652064697370757465000000 PUSH1 0x44 DUP3 ADD MSTORE PUSH1 0x64 SWAP1 REVERT JUMPDEST CALLVALUE PUSH2 0x187 JUMPI PUSH1 0x40 CALLDATASIZE PUSH1 0x3 NOT ADD SLT PUSH2 0x187 JUMPI PUSH1 0x4 CALLDATALOAD PUSH1 0x24 CALLDATALOAD PUSH1 0x1 PUSH1 0x1 PUSH1 0x40 SHL SUB DUP2 GT PUSH2 0x187 JUMPI PUSH2 0x1B28 SWAP1 CALLDATASIZE SWAP1 PUSH1 0x4 ADD PUSH2 0x2973 JUMP JUMPDEST SWAP1 DUP1 PUSH1 0x0 MSTORE PUSH1 0x20 SWAP2 PUSH1 0x2 DUP4 MSTORE PUSH2 0x1B4C PUSH1 0x1 DUP1 PUSH1 0xA0 SHL SUB PUSH1 0x40 PUSH1 0x0 KECCAK256 SLOAD AND CALLER EQ PUSH2 0x2F12 JUMP JUMPDEST DUP2 PUSH1 0x0 MSTORE PUSH1 0x2 DUP4 MSTORE PUSH2 0x1B6B PUSH1 0xFF PUSH1 0xE PUSH1 0x40 PUSH1 0x0 KECCAK256 ADD SLOAD PUSH1 0x10 SHR AND PUSH2 0x2B1F JUMP JUMPDEST PUSH2 0x1B73 PUSH2 0x2ABB JUMP JUMPDEST DUP2 PUSH1 0x0 MSTORE PUSH1 0x2 DUP4 MSTORE PUSH1 0x40 PUSH1 0x0 KECCAK256 SWAP3 PUSH1 0xE DUP5 ADD DUP1 SLOAD SWAP1 PUSH1 0xFF DUP3 PUSH1 0x8 SHR AND PUSH1 0x8 DUP2 LT ISZERO PUSH2 0x459 JUMPI PUSH1 0x3 PUSH2 0x1BA4 SWAP2 EQ PUSH2 0x2F4F JUMP JUMPDEST PUSH1 0xC DUP7 ADD SWAP2 DUP3 SLOAD SWAP7 PUSH1 0xD DUP2 ADD SLOAD DUP9 LT ISZERO PUSH2 0x1C4E JUMPI PUSH1 0x8 ADD SLOAD TIMESTAMP GT PUSH2 0x1C10 JUMPI SWAP6 PUSH2 0x1BFA SWAP2 PUSH2 0x400 PUSH32 0x4C705215BCC0385A7F7728415A5BF16C776BACAEDF28A71C5BA5494E87EDF0E8 SWAP8 SWAP9 PUSH2 0xFF00 NOT AND OR SWAP1 SSTORE PUSH2 0x2F90 JUMP JUMPDEST SWAP1 SSTORE PUSH2 0x698 PUSH1 0x40 MLOAD SWAP3 DUP3 DUP5 SWAP4 DUP5 MSTORE DUP4 ADD SWAP1 PUSH2 0x2910 JUMP JUMPDEST PUSH1 0x40 MLOAD PUSH3 0x461BCD PUSH1 0xE5 SHL DUP2 MSTORE PUSH1 0x4 DUP2 ADD DUP6 SWAP1 MSTORE PUSH1 0x16 PUSH1 0x24 DUP3 ADD MSTORE PUSH22 0x14995D9A595DC8191958591B1A5B99481C185CDCD959 PUSH1 0x52 SHL PUSH1 0x44 DUP3 ADD MSTORE PUSH1 0x64 SWAP1 REVERT JUMPDEST PUSH1 0x40 MLOAD PUSH3 0x461BCD PUSH1 0xE5 SHL DUP2 MSTORE PUSH1 0x4 DUP2 ADD DUP7 SWAP1 MSTORE PUSH1 0x16 PUSH1 0x24 DUP3 ADD MSTORE PUSH22 0x13585E081C995D9A5CDA5BDB9CC8195E18D959591959 PUSH1 0x52 SHL PUSH1 0x44 DUP3 ADD MSTORE PUSH1 0x64 SWAP1 REVERT JUMPDEST CALLVALUE PUSH2 0x187 JUMPI PUSH1 0x0 CALLDATASIZE PUSH1 0x3 NOT ADD SLT PUSH2 0x187 JUMPI PUSH1 0x1 SLOAD PUSH1 0x40 MLOAD PUSH1 0x1 PUSH1 0x1 PUSH1 0xA0 SHL SUB SWAP1 SWAP2 AND DUP2 MSTORE PUSH1 0x20 SWAP1 RETURN JUMPDEST CALLVALUE PUSH2 0x187 JUMPI PUSH1 0x20 CALLDATASIZE PUSH1 0x3 NOT ADD SLT PUSH2 0x187 JUMPI PUSH2 0x1CCE PUSH2 0x2942 JUMP JUMPDEST PUSH2 0x1CD6 PUSH2 0x2A35 JUMP JUMPDEST PUSH1 0x1 PUSH1 0x1 PUSH1 0xA0 SHL SUB AND DUP1 ISZERO PUSH2 0x1CFB JUMPI PUSH1 0x6 DUP1 SLOAD PUSH1 0x1 PUSH1 0x1 PUSH1 0xA0 SHL SUB NOT AND SWAP2 SWAP1 SWAP2 OR SWAP1 SSTORE STOP JUMPDEST PUSH1 0x40 MLOAD PUSH3 0x461BCD PUSH1 0xE5 SHL DUP2 MSTORE PUSH1 0x20 PUSH1 0x4 DUP3 ADD MSTORE PUSH1 0xE PUSH1 0x24 DUP3 ADD MSTORE PUSH14 0x125B9D985B1A59081DD85B1B195D PUSH1 0x92 SHL PUSH1 0x44 DUP3 ADD MSTORE PUSH1 0x64 SWAP1 REVERT JUMPDEST CALLVALUE PUSH2 0x187 JUMPI PUSH2 0x1D3F CALLDATASIZE PUSH2 0x29BA JUMP JUMPDEST SWAP1 DUP3 PUSH1 0x0 MSTORE PUSH1 0x2 PUSH1 0x20 MSTORE PUSH2 0x1D64 PUSH1 0x1 DUP1 PUSH1 0xA0 SHL SUB PUSH1 0x1 PUSH1 0x40 PUSH1 0x0 KECCAK256 ADD SLOAD AND CALLER EQ PUSH2 0x2ADE JUMP JUMPDEST DUP3 PUSH1 0x0 MSTORE PUSH1 0x2 PUSH1 0x20 MSTORE PUSH2 0x1D84 PUSH1 0xFF PUSH1 0xE PUSH1 0x40 PUSH1 0x0 KECCAK256 ADD SLOAD PUSH1 0x10 SHR AND PUSH2 0x2B1F JUMP JUMPDEST PUSH2 0x1D8C PUSH2 0x2ABB JUMP JUMPDEST DUP3 PUSH1 0x0 MSTORE PUSH1 0x2 PUSH1 0x20 MSTORE PUSH1 0x40 PUSH1 0x0 KECCAK256 PUSH1 0xFF PUSH1 0xE DUP3 ADD SLOAD PUSH1 0x8 SHR AND PUSH1 0x8 DUP2 LT ISZERO PUSH2 0x459 JUMPI PUSH1 0x4 SUB PUSH2 0x20CA JUMPI PUSH2 0x1DC1 DUP3 MLOAD ISZERO ISZERO PUSH2 0x2B60 JUMP JUMPDEST DUP2 MLOAD PUSH1 0x1 PUSH1 0x1 PUSH1 0x40 SHL SUB DUP2 GT PUSH2 0x76F JUMPI PUSH2 0x1DDE PUSH1 0xA DUP4 ADD SLOAD PUSH2 0x277D JUMP JUMPDEST PUSH1 0x1F DUP2 GT PUSH2 0x207F JUMPI JUMPDEST POP DUP1 PUSH1 0x20 PUSH1 0x1F DUP3 GT PUSH1 0x1 EQ PUSH2 0x2014 JUMPI PUSH1 0x0 SWAP2 PUSH2 0x2009 JUMPI JUMPDEST POP DUP2 PUSH1 0x1 SHL SWAP2 PUSH1 0x0 NOT SWAP1 PUSH1 0x3 SHL SHR NOT AND OR PUSH1 0xA DUP3 ADD SSTORE JUMPDEST DUP3 MLOAD PUSH1 0xB DUP3 ADD SWAP1 PUSH1 0x1 PUSH1 0x1 PUSH1 0x40 SHL SUB DUP2 GT PUSH2 0x76F JUMPI PUSH2 0x1E34 DUP3 SLOAD PUSH2 0x277D JUMP JUMPDEST PUSH1 0x1F DUP2 GT PUSH2 0x1FC1 JUMPI JUMPDEST POP DUP1 PUSH1 0x20 PUSH1 0x1F DUP3 GT PUSH1 0x1 EQ PUSH2 0x1F5D JUMPI PUSH1 0x0 SWAP2 PUSH2 0x1F52 JUMPI JUMPDEST POP DUP2 PUSH1 0x1 SHL SWAP2 PUSH1 0x0 NOT SWAP1 PUSH1 0x3 SHL SHR NOT AND OR SWAP1 SSTORE JUMPDEST PUSH2 0x300 PUSH2 0xFF00 NOT PUSH1 0xE DUP4 ADD SLOAD AND OR PUSH1 0xE DUP3 ADD SSTORE PUSH3 0x3F480 TIMESTAMP ADD DUP1 TIMESTAMP GT PUSH2 0x6A2 JUMPI PUSH32 0x13FD62EF582E52CB5584431B4E39A0A8D2BA972244C0BBA0DC4169BA71322AE8 SWAP4 PUSH2 0x1F35 SWAP2 PUSH1 0x8 DUP5 ADD SSTORE DUP6 PUSH1 0x0 MSTORE PUSH1 0x3 PUSH1 0x20 MSTORE PUSH1 0xC PUSH1 0x40 PUSH1 0x0 KECCAK256 SWAP4 ADD SWAP3 PUSH2 0x1ED0 DUP5 SLOAD PUSH2 0x31CF JUMP JUMPDEST PUSH2 0x1F10 PUSH1 0x2A PUSH1 0x40 MLOAD DUP1 SWAP4 PUSH10 0x5265766973696F6E2023 PUSH1 0xB0 SHL PUSH1 0x20 DUP4 ADD MSTORE PUSH2 0x1F00 DUP2 MLOAD DUP1 SWAP3 PUSH1 0x20 DUP7 DUP7 ADD SWAP2 ADD PUSH2 0x28ED JUMP JUMPDEST DUP2 ADD SUB PUSH1 0xA DUP2 ADD DUP5 MSTORE ADD DUP3 PUSH2 0x2824 JUMP JUMPDEST PUSH1 0x40 MLOAD SWAP3 PUSH2 0x1F1D DUP5 PUSH2 0x27B7 JUMP JUMPDEST DUP7 DUP5 MSTORE PUSH1 0x20 DUP5 ADD MSTORE TIMESTAMP PUSH1 0x40 DUP5 ADD MSTORE PUSH1 0x60 DUP4 ADD MSTORE PUSH2 0x2BA1 JUMP JUMPDEST SLOAD PUSH2 0x698 PUSH1 0x40 MLOAD SWAP3 DUP4 SWAP3 DUP4 MSTORE PUSH1 0x40 PUSH1 0x20 DUP5 ADD MSTORE PUSH1 0x40 DUP4 ADD SWAP1 PUSH2 0x2910 JUMP JUMPDEST SWAP1 POP DUP6 ADD MLOAD DUP8 PUSH2 0x1E54 JUMP JUMPDEST PUSH1 0x0 DUP5 DUP2 MSTORE PUSH1 0x20 DUP2 KECCAK256 SWAP3 POP PUSH1 0x1F NOT DUP5 AND SWAP1 JUMPDEST DUP2 DUP2 LT PUSH2 0x1FA9 JUMPI POP SWAP1 DUP4 PUSH1 0x1 SWAP5 SWAP4 SWAP3 LT PUSH2 0x1F90 JUMPI JUMPDEST POP POP DUP2 SHL ADD SWAP1 SSTORE PUSH2 0x1E68 JUMP JUMPDEST DUP8 ADD MLOAD PUSH1 0x0 NOT PUSH1 0xF8 DUP5 PUSH1 0x3 SHL AND SHR NOT AND SWAP1 SSTORE DUP8 DUP1 PUSH2 0x1F84 JUMP JUMPDEST SWAP2 SWAP3 PUSH1 0x20 PUSH1 0x1 DUP2 SWAP3 DUP7 DUP13 ADD MLOAD DUP2 SSTORE ADD SWAP5 ADD SWAP3 ADD PUSH2 0x1F6F JUMP JUMPDEST DUP3 PUSH1 0x0 MSTORE PUSH1 0x20 PUSH1 0x0 KECCAK256 PUSH1 0x1F DUP4 ADD PUSH1 0x5 SHR DUP2 ADD SWAP2 PUSH1 0x20 DUP5 LT PUSH2 0x1FFF JUMPI JUMPDEST PUSH1 0x1F ADD PUSH1 0x5 SHR ADD SWAP1 JUMPDEST DUP2 DUP2 LT PUSH2 0x1FF3 JUMPI POP PUSH2 0x1E3D JUMP JUMPDEST PUSH1 0x0 DUP2 SSTORE PUSH1 0x1 ADD PUSH2 0x1FE6 JUMP JUMPDEST SWAP1 SWAP2 POP DUP2 SWAP1 PUSH2 0x1FDD JUMP JUMPDEST SWAP1 POP DUP4 ADD MLOAD DUP7 PUSH2 0x1DFE JUMP JUMPDEST PUSH1 0xA DUP5 ADD PUSH1 0x0 SWAP1 DUP2 MSTORE PUSH1 0x20 DUP2 KECCAK256 SWAP3 POP PUSH1 0x1F NOT DUP5 AND SWAP1 JUMPDEST DUP2 DUP2 LT PUSH2 0x2067 JUMPI POP SWAP1 DUP4 PUSH1 0x1 SWAP5 SWAP4 SWAP3 LT PUSH2 0x204E JUMPI JUMPDEST POP POP DUP2 SHL ADD PUSH1 0xA DUP3 ADD SSTORE PUSH2 0x1E15 JUMP JUMPDEST DUP6 ADD MLOAD PUSH1 0x0 NOT PUSH1 0xF8 DUP5 PUSH1 0x3 SHL AND SHR NOT AND SWAP1 SSTORE DUP7 DUP1 PUSH2 0x203F JUMP JUMPDEST SWAP2 SWAP3 PUSH1 0x20 PUSH1 0x1 DUP2 SWAP3 DUP7 DUP11 ADD MLOAD DUP2 SSTORE ADD SWAP5 ADD SWAP3 ADD PUSH2 0x202A JUMP JUMPDEST PUSH1 0xA DUP4 ADD PUSH1 0x0 MSTORE PUSH1 0x20 PUSH1 0x0 KECCAK256 PUSH1 0x1F DUP4 ADD PUSH1 0x5 SHR DUP2 ADD SWAP2 PUSH1 0x20 DUP5 LT PUSH2 0x20C0 JUMPI JUMPDEST PUSH1 0x1F ADD PUSH1 0x5 SHR ADD SWAP1 JUMPDEST DUP2 DUP2 LT PUSH2 0x20B4 JUMPI POP PUSH2 0x1DE7 JUMP JUMPDEST PUSH1 0x0 DUP2 SSTORE PUSH1 0x1 ADD PUSH2 0x20A7 JUMP JUMPDEST SWAP1 SWAP2 POP DUP2 SWAP1 PUSH2 0x209E JUMP JUMPDEST PUSH1 0x40 MLOAD PUSH3 0x461BCD PUSH1 0xE5 SHL DUP2 MSTORE PUSH1 0x20 PUSH1 0x4 DUP3 ADD MSTORE PUSH1 0x16 PUSH1 0x24 DUP3 ADD MSTORE PUSH22 0x14995D9A5CDA5BDB881B9BDD081C995C5D595CDD1959 PUSH1 0x52 SHL PUSH1 0x44 DUP3 ADD MSTORE PUSH1 0x64 SWAP1 REVERT JUMPDEST CALLVALUE PUSH2 0x187 JUMPI PUSH1 0x0 CALLDATASIZE PUSH1 0x3 NOT ADD SLT PUSH2 0x187 JUMPI PUSH2 0x2121 PUSH2 0x2A35 JUMP JUMPDEST PUSH1 0x1 DUP1 SLOAD PUSH1 0x1 PUSH1 0x1 PUSH1 0xA0 SHL SUB NOT DUP2 AND SWAP1 SWAP2 SSTORE PUSH1 0x0 SWAP1 PUSH1 0x1 PUSH1 0x1 PUSH1 0xA0 SHL SUB AND PUSH1 0x0 DUP1 MLOAD PUSH1 0x20 PUSH2 0x32EE DUP4 CODECOPY DUP2 MLOAD SWAP2 MSTORE DUP3 DUP1 LOG3 STOP JUMPDEST CALLVALUE PUSH2 0x187 JUMPI PUSH1 0x20 CALLDATASIZE PUSH1 0x3 NOT ADD SLT PUSH2 0x187 JUMPI PUSH1 0x1 PUSH1 0x1 PUSH1 0xA0 SHL SUB PUSH2 0x2174 PUSH2 0x2942 JUMP JUMPDEST AND PUSH1 0x0 MSTORE PUSH1 0x4 PUSH1 0x20 MSTORE PUSH1 0x20 PUSH1 0xFF PUSH1 0x40 PUSH1 0x0 KECCAK256 SLOAD AND PUSH1 0x40 MLOAD SWAP1 ISZERO ISZERO DUP2 MSTORE RETURN JUMPDEST CALLVALUE PUSH2 0x187 JUMPI PUSH1 0x20 CALLDATASIZE PUSH1 0x3 NOT ADD SLT PUSH2 0x187 JUMPI PUSH1 0x4 CALLDATALOAD DUP1 PUSH1 0x0 MSTORE PUSH1 0x2 PUSH1 0x20 MSTORE PUSH2 0x21C7 PUSH1 0x1 DUP1 PUSH1 0xA0 SHL SUB PUSH1 0x40 PUSH1 0x0 KECCAK256 SLOAD AND CALLER EQ PUSH2 0x2F12 JUMP JUMPDEST DUP1 PUSH1 0x0 MSTORE PUSH1 0x2 PUSH1 0x20 MSTORE PUSH2 0x21E7 PUSH1 0xFF PUSH1 0xE PUSH1 0x40 PUSH1 0x0 KECCAK256 ADD SLOAD PUSH1 0x10 SHR AND PUSH2 0x2B1F JUMP JUMPDEST PUSH2 0x21EF PUSH2 0x2ABB JUMP JUMPDEST DUP1 PUSH1 0x0 MSTORE PUSH1 0x2 PUSH1 0x20 MSTORE PUSH1 0xFF PUSH1 0xE PUSH1 0x40 PUSH1 0x0 KECCAK256 ADD SLOAD PUSH1 0x8 SHR AND SWAP1 PUSH1 0x8 DUP3 LT ISZERO PUSH2 0x459 JUMPI PUSH2 0x2220 PUSH1 0x3 PUSH2 0x2225 SWAP4 EQ PUSH2 0x2F4F JUMP JUMPDEST PUSH2 0x305B JUMP JUMPDEST PUSH1 0x1 PUSH1 0x0 SSTORE STOP JUMPDEST CALLVALUE PUSH2 0x187 JUMPI PUSH1 0x0 CALLDATASIZE PUSH1 0x3 NOT ADD SLT PUSH2 0x187 JUMPI PUSH1 0x20 PUSH1 0x9 SLOAD PUSH1 0x40 MLOAD SWAP1 DUP2 MSTORE RETURN JUMPDEST CALLVALUE PUSH2 0x187 JUMPI PUSH1 0x20 DUP1 PUSH1 0x3 NOT CALLDATASIZE ADD SLT PUSH2 0x187 JUMPI PUSH1 0x4 CALLDATALOAD SWAP1 DUP2 PUSH1 0x0 MSTORE PUSH1 0x2 DUP2 MSTORE PUSH2 0x227F PUSH1 0xFF PUSH1 0xE PUSH1 0x40 PUSH1 0x0 KECCAK256 ADD SLOAD PUSH1 0x10 SHR AND PUSH2 0x2B1F JUMP JUMPDEST PUSH2 0x2287 PUSH2 0x2ABB JUMP JUMPDEST DUP2 PUSH1 0x0 MSTORE PUSH1 0x2 DUP2 MSTORE PUSH1 0x40 PUSH1 0x0 KECCAK256 PUSH1 0xE DUP2 ADD SLOAD PUSH1 0xFF DUP2 PUSH1 0x8 SHR AND SWAP1 PUSH1 0x8 DUP3 LT ISZERO PUSH2 0x459 JUMPI PUSH2 0x22B8 PUSH1 0x3 PUSH1 0xFF SWAP4 EQ PUSH2 0x2F4F JUMP JUMPDEST AND ISZERO PUSH2 0x2346 JUMPI PUSH1 0x8 DUP2 ADD SLOAD TIMESTAMP GT ISZERO PUSH2 0x2308 JUMPI SWAP1 PUSH1 0x3 PUSH32 0xF9721D98857B7E6B07C9823E0FDD765DA735587257AFCBC98021EB5E15531BAF SWAP3 PUSH2 0x22F8 DUP6 PUSH2 0x305B JUMP JUMPDEST ADD SLOAD PUSH1 0x40 MLOAD SWAP1 DUP2 MSTORE LOG2 PUSH1 0x1 PUSH1 0x0 SSTORE STOP JUMPDEST PUSH1 0x40 MLOAD PUSH3 0x461BCD PUSH1 0xE5 SHL DUP2 MSTORE PUSH1 0x4 DUP2 ADD DUP4 SWAP1 MSTORE PUSH1 0x16 PUSH1 0x24 DUP3 ADD MSTORE PUSH22 0x2932BB34B2BB903832B934B7B2103737BA1037BB32B9 PUSH1 0x51 SHL PUSH1 0x44 DUP3 ADD MSTORE PUSH1 0x64 SWAP1 REVERT JUMPDEST PUSH1 0x40 MLOAD PUSH3 0x461BCD PUSH1 0xE5 SHL DUP2 MSTORE PUSH1 0x4 DUP2 ADD DUP4 SWAP1 MSTORE PUSH1 0x15 PUSH1 0x24 DUP3 ADD MSTORE PUSH21 0x105D5D1BCB5C995B19585CD948191A5CD8589B1959 PUSH1 0x5A SHL PUSH1 0x44 DUP3 ADD MSTORE PUSH1 0x64 SWAP1 REVERT JUMPDEST CALLVALUE PUSH2 0x187 JUMPI PUSH1 0x0 CALLDATASIZE PUSH1 0x3 NOT ADD SLT PUSH2 0x187 JUMPI PUSH1 0x20 PUSH1 0x40 MLOAD PUSH3 0x93A80 DUP2 MSTORE RETURN JUMPDEST CALLVALUE PUSH2 0x187 JUMPI PUSH1 0x20 DUP1 PUSH1 0x3 NOT CALLDATASIZE ADD SLT PUSH2 0x187 JUMPI PUSH1 0x4 CALLDATALOAD DUP1 PUSH1 0x0 MSTORE PUSH1 0x2 SWAP1 DUP2 DUP4 MSTORE PUSH2 0x23D7 PUSH1 0xFF PUSH1 0xE PUSH1 0x40 PUSH1 0x0 KECCAK256 ADD SLOAD PUSH1 0x10 SHR AND PUSH2 0x2B1F JUMP JUMPDEST PUSH1 0x0 SWAP1 DUP2 MSTORE PUSH1 0x3 DUP1 DUP5 MSTORE PUSH1 0x40 SWAP1 SWAP2 KECCAK256 DUP1 SLOAD SWAP1 SWAP2 PUSH1 0x1 PUSH1 0x1 PUSH1 0x40 SHL SUB DUP3 GT PUSH2 0x76F JUMPI SWAP4 SWAP3 PUSH1 0x40 MLOAD SWAP5 PUSH2 0x240D DUP6 DUP5 PUSH1 0x5 SHL ADD DUP8 PUSH2 0x2824 JUMP JUMPDEST DUP3 DUP7 MSTORE DUP5 DUP7 ADD SWAP2 DUP3 SWAP5 PUSH1 0x0 MSTORE DUP6 PUSH1 0x0 KECCAK256 SWAP2 PUSH1 0x0 SWAP4 JUMPDEST DUP6 DUP6 LT PUSH2 0x24C2 JUMPI PUSH1 0x40 DUP1 MLOAD DUP10 DUP2 MSTORE DUP11 MLOAD DUP2 DUP12 ADD DUP2 SWAP1 MSTORE PUSH1 0x0 SWAP3 PUSH1 0x5 DUP3 SWAP1 SHL DUP4 ADD DUP2 ADD SWAP2 DUP12 SWAP2 DUP14 SWAP1 DUP6 ADD JUMPDEST DUP3 DUP8 LT PUSH2 0x2459 JUMPI DUP6 DUP6 SUB DUP7 RETURN JUMPDEST SWAP1 SWAP2 SWAP3 SWAP4 DUP3 DUP1 PUSH2 0x24B2 PUSH1 0x1 SWAP4 PUSH1 0x3F NOT DUP11 DUP3 SUB ADD DUP7 MSTORE DUP9 MLOAD PUSH2 0x2495 PUSH2 0x2485 DUP3 MLOAD PUSH1 0x80 DUP1 DUP7 MSTORE DUP6 ADD SWAP1 PUSH2 0x2910 JUMP JUMPDEST DUP6 DUP4 ADD MLOAD DUP5 DUP3 SUB DUP8 DUP7 ADD MSTORE PUSH2 0x2910 JUMP JUMPDEST SWAP2 PUSH1 0x40 DUP3 ADD MLOAD PUSH1 0x40 DUP3 ADD MSTORE PUSH1 0x60 DUP1 SWAP3 ADD MLOAD SWAP2 DUP2 DUP5 SUB SWAP2 ADD MSTORE PUSH2 0x2910 JUMP JUMPDEST SWAP7 ADD SWAP3 ADD SWAP7 ADD SWAP6 SWAP3 SWAP2 SWAP1 SWAP3 PUSH2 0x244C JUMP JUMPDEST PUSH1 0x4 DUP9 PUSH1 0x1 SWAP3 PUSH1 0x40 SWAP12 SWAP11 SWAP12 MLOAD PUSH2 0x24D7 DUP2 PUSH2 0x27B7 JUMP JUMPDEST PUSH2 0x24E0 DUP9 PUSH2 0x2847 JUMP JUMPDEST DUP2 MSTORE PUSH2 0x24ED DUP6 DUP10 ADD PUSH2 0x2847 JUMP JUMPDEST DUP4 DUP3 ADD MSTORE DUP7 DUP9 ADD SLOAD PUSH1 0x40 DUP3 ADD MSTORE PUSH2 0x2505 DUP7 DUP10 ADD PUSH2 0x2847 JUMP JUMPDEST PUSH1 0x60 DUP3 ADD MSTORE DUP2 MSTORE ADD SWAP5 ADD SWAP5 ADD SWAP4 SWAP3 SWAP8 SWAP7 SWAP8 PUSH2 0x2422 JUMP JUMPDEST CALLVALUE PUSH2 0x187 JUMPI PUSH1 0x40 CALLDATASIZE PUSH1 0x3 NOT ADD SLT PUSH2 0x187 JUMPI PUSH2 0x2534 PUSH2 0x2942 JUMP JUMPDEST PUSH1 0x24 CALLDATALOAD SWAP1 DUP2 ISZERO ISZERO DUP3 SUB PUSH2 0x187 JUMPI PUSH2 0x2549 PUSH2 0x2A35 JUMP JUMPDEST PUSH1 0x1 PUSH1 0x1 PUSH1 0xA0 SHL SUB AND SWAP1 DUP2 ISZERO PUSH2 0x257D JUMPI PUSH2 0x257B SWAP2 PUSH1 0x0 MSTORE PUSH1 0x4 PUSH1 0x20 MSTORE PUSH1 0x40 PUSH1 0x0 KECCAK256 SWAP1 PUSH1 0xFF DUP1 NOT DUP4 SLOAD AND SWAP2 ISZERO ISZERO AND OR SWAP1 SSTORE JUMP JUMPDEST STOP JUMPDEST PUSH1 0x40 MLOAD PUSH3 0x461BCD PUSH1 0xE5 SHL DUP2 MSTORE PUSH1 0x20 PUSH1 0x4 DUP3 ADD MSTORE PUSH1 0x12 PUSH1 0x24 DUP3 ADD MSTORE PUSH18 0x24B73B30B634B21030B93134BA3930BA37B9 PUSH1 0x71 SHL PUSH1 0x44 DUP3 ADD MSTORE PUSH1 0x64 SWAP1 REVERT JUMPDEST CALLVALUE PUSH2 0x187 JUMPI PUSH1 0x0 CALLDATASIZE PUSH1 0x3 NOT ADD SLT PUSH2 0x187 JUMPI PUSH1 0x20 PUSH1 0x7 SLOAD PUSH1 0x40 MLOAD SWAP1 DUP2 MSTORE RETURN JUMPDEST CALLVALUE PUSH2 0x187 JUMPI PUSH1 0x20 CALLDATASIZE PUSH1 0x3 NOT ADD SLT PUSH2 0x187 JUMPI PUSH1 0x4 CALLDATALOAD PUSH1 0x0 MSTORE PUSH1 0x2 PUSH1 0x20 MSTORE PUSH1 0x40 PUSH1 0x0 KECCAK256 PUSH1 0x1 PUSH1 0xA0 SHL PUSH1 0x1 SWAP1 SUB DUP1 DUP3 SLOAD AND SWAP2 DUP2 PUSH1 0x1 DUP3 ADD SLOAD AND SWAP2 PUSH1 0x2 DUP3 ADD SLOAD AND PUSH1 0x3 DUP3 ADD SLOAD SWAP2 PUSH1 0x4 DUP2 ADD SLOAD PUSH1 0x5 DUP3 ADD SLOAD PUSH1 0x6 DUP4 ADD SLOAD PUSH1 0x7 DUP5 ADD SLOAD PUSH1 0x8 DUP6 ADD SLOAD SWAP1 PUSH1 0x9 DUP7 ADD SLOAD SWAP3 PUSH1 0xA DUP8 ADD PUSH2 0x2645 SWAP1 PUSH2 0x2847 JUMP JUMPDEST SWAP5 PUSH2 0x2652 PUSH1 0xB DUP10 ADD PUSH2 0x2847 JUMP JUMPDEST SWAP7 PUSH1 0xC DUP10 ADD SLOAD SWAP11 PUSH1 0xD DUP11 ADD SLOAD SWAP10 PUSH1 0xE ADD SLOAD SWAP11 PUSH1 0x40 MLOAD SWAP15 DUP16 SWAP15 DUP16 SWAP2 DUP3 MSTORE PUSH1 0x20 DUP3 ADD MSTORE PUSH1 0x40 ADD MSTORE PUSH1 0x60 DUP14 ADD MSTORE PUSH1 0x80 DUP13 ADD MSTORE PUSH1 0xA0 DUP12 ADD MSTORE PUSH1 0xC0 DUP11 ADD MSTORE PUSH1 0xE0 DUP10 ADD MSTORE PUSH2 0x100 DUP9 ADD MSTORE PUSH2 0x120 DUP8 ADD MSTORE PUSH2 0x220 DUP1 PUSH2 0x140 DUP9 ADD MSTORE DUP7 ADD PUSH2 0x26B1 SWAP2 PUSH2 0x2910 JUMP JUMPDEST DUP6 DUP2 SUB PUSH2 0x160 DUP8 ADD MSTORE PUSH2 0x26C3 SWAP2 PUSH2 0x2910 JUMP JUMPDEST SWAP3 PUSH2 0x180 DUP6 ADD MSTORE PUSH2 0x1A0 DUP5 ADD MSTORE PUSH1 0xFF DUP2 AND ISZERO ISZERO PUSH2 0x1C0 DUP5 ADD MSTORE PUSH2 0x1E0 DUP4 ADD DUP2 PUSH1 0x8 SHR PUSH1 0xFF AND SWAP1 PUSH2 0x26F2 SWAP2 PUSH2 0x2935 JUMP JUMPDEST PUSH1 0x10 SHR PUSH1 0xFF AND ISZERO ISZERO PUSH2 0x200 DUP4 ADD MSTORE SUB SWAP1 RETURN JUMPDEST CALLVALUE PUSH2 0x187 JUMPI PUSH1 0x20 CALLDATASIZE PUSH1 0x3 NOT ADD SLT PUSH2 0x187 JUMPI PUSH1 0x4 CALLDATALOAD PUSH2 0x2720 PUSH2 0x2A35 JUMP JUMPDEST PUSH2 0x3E8 DUP2 GT PUSH2 0x272E JUMPI PUSH1 0x7 SSTORE STOP JUMPDEST PUSH1 0x40 MLOAD PUSH3 0x461BCD PUSH1 0xE5 SHL DUP2 MSTORE PUSH1 0x20 PUSH1 0x4 DUP3 ADD MSTORE PUSH1 0xC PUSH1 0x24 DUP3 ADD MSTORE PUSH12 0x8CCACA40E8DEDE40D0D2CED PUSH1 0xA3 SHL PUSH1 0x44 DUP3 ADD MSTORE PUSH1 0x64 SWAP1 REVERT JUMPDEST CALLVALUE PUSH2 0x187 JUMPI PUSH1 0x0 CALLDATASIZE PUSH1 0x3 NOT ADD SLT PUSH2 0x187 JUMPI PUSH1 0x20 SWAP1 PUSH1 0x8 SLOAD DUP2 MSTORE RETURN JUMPDEST SWAP1 PUSH1 0x1 DUP3 DUP2 SHR SWAP3 AND DUP1 ISZERO PUSH2 0x27AD JUMPI JUMPDEST PUSH1 0x20 DUP4 LT EQ PUSH2 0x2797 JUMPI JUMP JUMPDEST PUSH4 0x4E487B71 PUSH1 0xE0 SHL PUSH1 0x0 MSTORE PUSH1 0x22 PUSH1 0x4 MSTORE PUSH1 0x24 PUSH1 0x0 REVERT JUMPDEST SWAP2 PUSH1 0x7F AND SWAP2 PUSH2 0x278C JUMP JUMPDEST PUSH1 0x80 DUP2 ADD SWAP1 DUP2 LT PUSH1 0x1 PUSH1 0x1 PUSH1 0x40 SHL SUB DUP3 GT OR PUSH2 0x76F JUMPI PUSH1 0x40 MSTORE JUMP JUMPDEST PUSH2 0x220 DUP2 ADD SWAP1 DUP2 LT PUSH1 0x1 PUSH1 0x1 PUSH1 0x40 SHL SUB DUP3 GT OR PUSH2 0x76F JUMPI PUSH1 0x40 MSTORE JUMP JUMPDEST PUSH1 0x20 DUP2 ADD SWAP1 DUP2 LT PUSH1 0x1 PUSH1 0x1 PUSH1 0x40 SHL SUB DUP3 GT OR PUSH2 0x76F JUMPI PUSH1 0x40 MSTORE JUMP JUMPDEST PUSH1 0x40 DUP2 ADD SWAP1 DUP2 LT PUSH1 0x1 PUSH1 0x1 PUSH1 0x40 SHL SUB DUP3 GT OR PUSH2 0x76F JUMPI PUSH1 0x40 MSTORE JUMP JUMPDEST PUSH1 0x1F SWAP1 SWAP2 ADD PUSH1 0x1F NOT AND DUP2 ADD SWAP1 PUSH1 0x1 PUSH1 0x1 PUSH1 0x40 SHL SUB DUP3 GT SWAP1 DUP3 LT OR PUSH2 0x76F JUMPI PUSH1 0x40 MSTORE JUMP JUMPDEST SWAP1 PUSH1 0x40 MLOAD SWAP2 DUP3 PUSH1 0x0 DUP3 SLOAD SWAP3 PUSH2 0x285B DUP5 PUSH2 0x277D JUMP JUMPDEST SWAP1 DUP2 DUP5 MSTORE PUSH1 0x1 SWAP5 DUP6 DUP2 AND SWAP1 DUP2 PUSH1 0x0 EQ PUSH2 0x28CA JUMPI POP PUSH1 0x1 EQ PUSH2 0x2887 JUMPI JUMPDEST POP POP PUSH2 0x2885 SWAP3 POP SUB DUP4 PUSH2 0x2824 JUMP JUMPDEST JUMP JUMPDEST SWAP1 SWAP4 SWAP2 POP PUSH1 0x0 MSTORE PUSH1 0x20 SWAP1 DUP2 PUSH1 0x0 KECCAK256 SWAP4 PUSH1 0x0 SWAP2 JUMPDEST DUP2 DUP4 LT PUSH2 0x28B2 JUMPI POP POP PUSH2 0x2885 SWAP4 POP DUP3 ADD ADD CODESIZE DUP1 PUSH2 0x2877 JUMP JUMPDEST DUP6 SLOAD DUP9 DUP5 ADD DUP6 ADD MSTORE SWAP5 DUP6 ADD SWAP5 DUP8 SWAP5 POP SWAP2 DUP4 ADD SWAP2 PUSH2 0x289A JUMP JUMPDEST SWAP2 POP POP PUSH2 0x2885 SWAP5 POP PUSH1 0x20 SWAP3 POP PUSH1 0xFF NOT AND DUP3 DUP5 ADD MSTORE ISZERO ISZERO PUSH1 0x5 SHL DUP3 ADD ADD CODESIZE DUP1 PUSH2 0x2877 JUMP JUMPDEST PUSH1 0x0 JUMPDEST DUP4 DUP2 LT PUSH2 0x2900 JUMPI POP POP PUSH1 0x0 SWAP2 ADD MSTORE JUMP JUMPDEST DUP2 DUP2 ADD MLOAD DUP4 DUP3 ADD MSTORE PUSH1 0x20 ADD PUSH2 0x28F0 JUMP JUMPDEST SWAP1 PUSH1 0x20 SWAP2 PUSH2 0x2929 DUP2 MLOAD DUP1 SWAP3 DUP2 DUP6 MSTORE DUP6 DUP1 DUP7 ADD SWAP2 ADD PUSH2 0x28ED JUMP JUMPDEST PUSH1 0x1F ADD PUSH1 0x1F NOT AND ADD ADD SWAP1 JUMP JUMPDEST SWAP1 PUSH1 0x8 DUP3 LT ISZERO PUSH2 0x459 JUMPI MSTORE JUMP JUMPDEST PUSH1 0x4 CALLDATALOAD SWAP1 PUSH1 0x1 PUSH1 0x1 PUSH1 0xA0 SHL SUB DUP3 AND DUP3 SUB PUSH2 0x187 JUMPI JUMP JUMPDEST PUSH1 0x1 PUSH1 0x1 PUSH1 0x40 SHL SUB DUP2 GT PUSH2 0x76F JUMPI PUSH1 0x1F ADD PUSH1 0x1F NOT AND PUSH1 0x20 ADD SWAP1 JUMP JUMPDEST DUP2 PUSH1 0x1F DUP3 ADD SLT ISZERO PUSH2 0x187 JUMPI DUP1 CALLDATALOAD SWAP1 PUSH2 0x298A DUP3 PUSH2 0x2958 JUMP JUMPDEST SWAP3 PUSH2 0x2998 PUSH1 0x40 MLOAD SWAP5 DUP6 PUSH2 0x2824 JUMP JUMPDEST DUP3 DUP5 MSTORE PUSH1 0x20 DUP4 DUP4 ADD ADD GT PUSH2 0x187 JUMPI DUP2 PUSH1 0x0 SWAP3 PUSH1 0x20 DUP1 SWAP4 ADD DUP4 DUP7 ADD CALLDATACOPY DUP4 ADD ADD MSTORE SWAP1 JUMP JUMPDEST PUSH1 0x60 PUSH1 0x3 NOT DUP3 ADD SLT PUSH2 0x187 JUMPI PUSH1 0x4 CALLDATALOAD SWAP2 PUSH1 0x1 PUSH1 0x1 PUSH1 0x40 SHL SUB PUSH1 0x24 CALLDATALOAD DUP2 DUP2 GT PUSH2 0x187 JUMPI DUP4 PUSH2 0x29E9 SWAP2 PUSH1 0x4 ADD PUSH2 0x2973 JUMP JUMPDEST SWAP3 PUSH1 0x44 CALLDATALOAD SWAP2 DUP3 GT PUSH2 0x187 JUMPI PUSH2 0x2A00 SWAP2 PUSH1 0x4 ADD PUSH2 0x2973 JUMP JUMPDEST SWAP1 JUMP JUMPDEST DUP1 SLOAD DUP3 LT ISZERO PUSH2 0x2A1F JUMPI PUSH1 0x0 MSTORE PUSH1 0x20 PUSH1 0x0 KECCAK256 SWAP1 PUSH1 0x2 SHL ADD SWAP1 PUSH1 0x0 SWAP1 JUMP JUMPDEST PUSH4 0x4E487B71 PUSH1 0xE0 SHL PUSH1 0x0 MSTORE PUSH1 0x32 PUSH1 0x4 MSTORE PUSH1 0x24 PUSH1 0x0 REVERT JUMPDEST PUSH1 0x1 SLOAD PUSH1 0x1 PUSH1 0x1 PUSH1 0xA0 SHL SUB AND CALLER SUB PUSH2 0x2A49 JUMPI JUMP JUMPDEST PUSH1 0x40 MLOAD PUSH4 0x118CDAA7 PUSH1 0xE0 SHL DUP2 MSTORE CALLER PUSH1 0x4 DUP3 ADD MSTORE PUSH1 0x24 SWAP1 REVERT JUMPDEST DUP2 DUP2 MUL SWAP3 SWAP2 DUP2 ISZERO SWAP2 DUP5 DIV EQ OR ISZERO PUSH2 0x6A2 JUMPI JUMP JUMPDEST SWAP1 DUP2 PUSH1 0x20 SWAP2 SUB SLT PUSH2 0x187 JUMPI MLOAD DUP1 ISZERO ISZERO DUP2 SUB PUSH2 0x187 JUMPI SWAP1 JUMP JUMPDEST PUSH1 0x1 PUSH1 0x1 PUSH1 0xA0 SHL SUB SWAP2 DUP3 AND DUP2 MSTORE SWAP2 AND PUSH1 0x20 DUP3 ADD MSTORE PUSH1 0x40 DUP2 ADD SWAP2 SWAP1 SWAP2 MSTORE PUSH1 0x60 ADD SWAP1 JUMP JUMPDEST SWAP2 SWAP1 DUP3 ADD DUP1 SWAP3 GT PUSH2 0x6A2 JUMPI JUMP JUMPDEST PUSH1 0x2 PUSH1 0x0 SLOAD EQ PUSH2 0x2ACC JUMPI PUSH1 0x2 PUSH1 0x0 SSTORE JUMP JUMPDEST PUSH1 0x40 MLOAD PUSH4 0x3EE5AEB5 PUSH1 0xE0 SHL DUP2 MSTORE PUSH1 0x4 SWAP1 REVERT JUMPDEST ISZERO PUSH2 0x2AE5 JUMPI JUMP JUMPDEST PUSH1 0x40 MLOAD PUSH3 0x461BCD PUSH1 0xE5 SHL DUP2 MSTORE PUSH1 0x20 PUSH1 0x4 DUP3 ADD MSTORE PUSH1 0x12 PUSH1 0x24 DUP3 ADD MSTORE PUSH18 0x2737BA103A343290333932B2B630B731B2B9 PUSH1 0x71 SHL PUSH1 0x44 DUP3 ADD MSTORE PUSH1 0x64 SWAP1 REVERT JUMPDEST ISZERO PUSH2 0x2B26 JUMPI JUMP JUMPDEST PUSH1 0x40 MLOAD PUSH3 0x461BCD PUSH1 0xE5 SHL DUP2 MSTORE PUSH1 0x20 PUSH1 0x4 DUP3 ADD MSTORE PUSH1 0x12 PUSH1 0x24 DUP3 ADD MSTORE PUSH18 0x129BD888191BD95CC81B9BDD08195E1A5CDD PUSH1 0x72 SHL PUSH1 0x44 DUP3 ADD MSTORE PUSH1 0x64 SWAP1 REVERT JUMPDEST ISZERO PUSH2 0x2B67 JUMPI JUMP JUMPDEST PUSH1 0x40 MLOAD PUSH3 0x461BCD PUSH1 0xE5 SHL DUP2 MSTORE PUSH1 0x20 PUSH1 0x4 DUP3 ADD MSTORE PUSH1 0x12 PUSH1 0x24 DUP3 ADD MSTORE PUSH18 0x12541194C81A185CDA081C995C5D5A5C9959 PUSH1 0x72 SHL PUSH1 0x44 DUP3 ADD MSTORE PUSH1 0x64 SWAP1 REVERT JUMPDEST DUP1 SLOAD PUSH1 0x1 PUSH1 0x40 SHL DUP2 LT ISZERO PUSH2 0x76F JUMPI PUSH2 0x2BC0 SWAP1 PUSH1 0x1 SWAP3 DUP4 DUP3 ADD DUP2 SSTORE PUSH2 0x2A03 JUMP JUMPDEST PUSH2 0x2EFC JUMPI DUP3 MLOAD DUP1 MLOAD PUSH1 0x1 PUSH1 0x1 PUSH1 0x40 SHL SUB SWAP3 SWAP1 DUP4 DUP2 GT PUSH2 0x76F JUMPI DUP1 PUSH2 0x2BE4 DUP4 SLOAD PUSH2 0x277D JUMP JUMPDEST SWAP4 PUSH1 0x1F SWAP5 DUP6 DUP2 GT PUSH2 0x2EA8 JUMPI JUMPDEST POP PUSH1 0x20 SWAP1 DUP6 DUP4 GT PUSH1 0x1 EQ PUSH2 0x2E45 JUMPI PUSH1 0x0 SWAP3 PUSH2 0x2E3A JUMPI JUMPDEST POP POP PUSH1 0x0 NOT PUSH1 0x3 DUP4 SWAP1 SHL SHR NOT AND SWAP1 DUP6 SHL OR DUP2 SSTORE JUMPDEST DUP4 DUP2 ADD PUSH1 0x20 DUP7 ADD MLOAD DUP1 MLOAD SWAP1 DUP6 DUP3 GT PUSH2 0x76F JUMPI PUSH2 0x2C36 DUP4 SLOAD PUSH2 0x277D JUMP JUMPDEST DUP6 DUP2 GT PUSH2 0x2DF2 JUMPI JUMPDEST POP PUSH1 0x20 SWAP1 DUP6 DUP4 GT PUSH1 0x1 EQ PUSH2 0x2D85 JUMPI SWAP2 DUP1 PUSH1 0x3 SWAP5 SWAP3 PUSH1 0x60 SWAP7 SWAP5 PUSH1 0x0 SWAP3 PUSH2 0x2D7A JUMPI JUMPDEST POP POP PUSH1 0x0 NOT DUP3 DUP7 SHL SHR NOT AND SWAP1 DUP9 SHL OR SWAP1 SSTORE JUMPDEST PUSH1 0x40 DUP8 ADD MLOAD PUSH1 0x2 DUP3 ADD SSTORE ADD SWAP5 ADD MLOAD DUP1 MLOAD SWAP3 DUP4 GT PUSH2 0x76F JUMPI PUSH2 0x2C91 DUP6 SLOAD PUSH2 0x277D JUMP JUMPDEST DUP3 DUP2 GT PUSH2 0x2D32 JUMPI JUMPDEST POP PUSH1 0x20 SWAP2 DUP4 GT PUSH1 0x1 EQ PUSH2 0x2CD2 JUMPI SWAP3 DUP3 SWAP4 SWAP2 DUP4 SWAP3 PUSH1 0x0 SWAP5 PUSH2 0x2CC7 JUMPI JUMPDEST POP POP SHL SWAP2 PUSH1 0x0 NOT SWAP1 PUSH1 0x3 SHL SHR NOT AND OR SWAP1 SSTORE JUMP JUMPDEST ADD MLOAD SWAP3 POP CODESIZE DUP1 PUSH2 0x2CB4 JUMP JUMPDEST SWAP1 PUSH1 0x1F NOT DUP4 AND SWAP2 DUP6 PUSH1 0x0 MSTORE DUP4 DUP3 PUSH1 0x0 KECCAK256 SWAP4 PUSH1 0x0 JUMPDEST DUP8 DUP3 DUP3 LT PUSH2 0x2D19 JUMPI POP POP LT PUSH2 0x2D00 JUMPI JUMPDEST POP POP POP DUP2 SHL ADD SWAP1 SSTORE JUMP JUMPDEST ADD MLOAD PUSH1 0x0 NOT PUSH1 0xF8 DUP5 PUSH1 0x3 SHL AND SHR NOT AND SWAP1 SSTORE CODESIZE DUP1 DUP1 PUSH2 0x2CF6 JUMP JUMPDEST DUP5 DUP7 ADD MLOAD DUP8 SSTORE SWAP1 SWAP6 ADD SWAP5 PUSH1 0x20 SWAP5 DUP6 ADD SWAP5 DUP8 SWAP4 POP ADD PUSH2 0x2CE6 JUMP JUMPDEST DUP6 PUSH1 0x0 MSTORE PUSH1 0x20 PUSH1 0x0 KECCAK256 DUP4 DUP1 DUP7 ADD PUSH1 0x5 SHR DUP3 ADD SWAP3 PUSH1 0x20 DUP8 LT PUSH2 0x2D71 JUMPI JUMPDEST ADD PUSH1 0x5 SHR ADD SWAP1 DUP6 SWAP1 JUMPDEST DUP3 DUP2 LT PUSH2 0x2D65 JUMPI POP POP PUSH2 0x2C99 JUMP JUMPDEST PUSH1 0x0 DUP2 SSTORE ADD DUP6 SWAP1 PUSH2 0x2D57 JUMP JUMPDEST SWAP3 POP DUP2 SWAP3 PUSH2 0x2D4E JUMP JUMPDEST ADD MLOAD SWAP1 POP CODESIZE DUP1 PUSH2 0x2C5E JUMP JUMPDEST DUP8 SWAP3 SWAP2 PUSH1 0x1F NOT DUP4 AND SWAP2 DUP6 PUSH1 0x0 MSTORE DUP2 PUSH1 0x0 KECCAK256 SWAP3 PUSH1 0x0 JUMPDEST DUP2 DUP2 LT PUSH2 0x2DDA JUMPI POP SWAP2 PUSH1 0x60 SWAP8 SWAP6 SWAP4 SWAP2 DUP6 PUSH1 0x3 SWAP9 SWAP7 SWAP5 LT PUSH2 0x2DC2 JUMPI JUMPDEST POP POP POP DUP2 SHL ADD SWAP1 SSTORE PUSH2 0x2C70 JUMP JUMPDEST ADD MLOAD PUSH1 0x0 NOT DUP4 DUP9 SHL PUSH1 0xF8 AND SHR NOT AND SWAP1 SSTORE CODESIZE DUP1 DUP1 PUSH2 0x2DB5 JUMP JUMPDEST DUP3 DUP5 ADD MLOAD DUP6 SSTORE DUP12 SWAP7 SWAP1 SWAP5 ADD SWAP4 PUSH1 0x20 SWAP4 DUP5 ADD SWAP4 ADD PUSH2 0x2D9A JUMP JUMPDEST DUP4 PUSH1 0x0 MSTORE PUSH1 0x20 PUSH1 0x0 KECCAK256 DUP7 DUP1 DUP6 ADD PUSH1 0x5 SHR DUP3 ADD SWAP3 PUSH1 0x20 DUP7 LT PUSH2 0x2E31 JUMPI JUMPDEST ADD PUSH1 0x5 SHR ADD SWAP1 DUP9 SWAP1 JUMPDEST DUP3 DUP2 LT PUSH2 0x2E25 JUMPI POP POP PUSH2 0x2C3E JUMP JUMPDEST PUSH1 0x0 DUP2 SSTORE ADD DUP9 SWAP1 PUSH2 0x2E17 JUMP JUMPDEST SWAP3 POP DUP2 SWAP3 PUSH2 0x2E0E JUMP JUMPDEST ADD MLOAD SWAP1 POP CODESIZE DUP1 PUSH2 0x2C06 JUMP JUMPDEST SWAP1 DUP8 SWAP4 POP PUSH1 0x1F NOT DUP4 AND SWAP2 DUP6 PUSH1 0x0 MSTORE DUP2 PUSH1 0x0 KECCAK256 SWAP3 PUSH1 0x0 JUMPDEST DUP2 DUP2 LT PUSH2 0x2E90 JUMPI POP DUP5 GT PUSH2 0x2E77 JUMPI JUMPDEST POP POP POP DUP2 SHL ADD DUP2 SSTORE PUSH2 0x2C1A JUMP JUMPDEST ADD MLOAD PUSH1 0x0 NOT PUSH1 0xF8 DUP5 PUSH1 0x3 SHL AND SHR NOT AND SWAP1 SSTORE CODESIZE DUP1 DUP1 PUSH2 0x2E6A JUMP JUMPDEST DUP3 DUP5 ADD MLOAD DUP6 SSTORE DUP11 SWAP7 SWAP1 SWAP5 ADD SWAP4 PUSH1 0x20 SWAP4 DUP5 ADD SWAP4 ADD PUSH2 0x2E5B JUMP JUMPDEST SWAP1 SWAP2 POP PUSH1 0x0 DUP5 DUP2 MSTORE PUSH1 0x20 DUP2 KECCAK256 DUP7 DUP1 DUP7 ADD PUSH1 0x5 SHR DUP3 ADD SWAP4 PUSH1 0x20 DUP8 LT PUSH2 0x2EF3 JUMPI JUMPDEST SWAP2 DUP11 SWAP2 DUP8 SWAP7 SWAP6 SWAP5 SWAP4 ADD PUSH1 0x5 SHR ADD SWAP3 JUMPDEST DUP4 DUP2 LT PUSH2 0x2EE5 JUMPI POP POP POP PUSH2 0x2BF0 JUMP JUMPDEST DUP3 DUP2 SSTORE DUP7 SWAP6 POP DUP11 SWAP2 ADD PUSH2 0x2ED6 JUMP JUMPDEST SWAP4 POP DUP2 SWAP4 PUSH2 0x2EC7 JUMP JUMPDEST PUSH4 0x4E487B71 PUSH1 0xE0 SHL PUSH1 0x0 MSTORE PUSH1 0x0 PUSH1 0x4 MSTORE PUSH1 0x24 PUSH1 0x0 REVERT JUMPDEST ISZERO PUSH2 0x2F19 JUMPI JUMP JUMPDEST PUSH1 0x40 MLOAD PUSH3 0x461BCD PUSH1 0xE5 SHL DUP2 MSTORE PUSH1 0x20 PUSH1 0x4 DUP3 ADD MSTORE PUSH1 0xE PUSH1 0x24 DUP3 ADD MSTORE PUSH14 0x139BDD081D1A194818DB1A595B9D PUSH1 0x92 SHL PUSH1 0x44 DUP3 ADD MSTORE PUSH1 0x64 SWAP1 REVERT JUMPDEST ISZERO PUSH2 0x2F56 JUMPI JUMP JUMPDEST PUSH1 0x40 MLOAD PUSH3 0x461BCD PUSH1 0xE5 SHL DUP2 MSTORE PUSH1 0x20 PUSH1 0x4 DUP3 ADD MSTORE PUSH1 0x12 PUSH1 0x24 DUP3 ADD MSTORE PUSH18 0x15DBDC9AC81B9BDD081CDD589B5A5D1D1959 PUSH1 0x72 SHL PUSH1 0x44 DUP3 ADD MSTORE PUSH1 0x64 SWAP1 REVERT JUMPDEST PUSH1 0x0 NOT DUP2 EQ PUSH2 0x6A2 JUMPI PUSH1 0x1 ADD SWAP1 JUMP JUMPDEST SWAP2 SWAP1 DUP3 SUB SWAP2 DUP3 GT PUSH2 0x6A2 JUMPI JUMP JUMPDEST PUSH1 0x1 PUSH1 0x1 PUSH1 0xA0 SHL SUB SWAP1 SWAP2 AND DUP2 MSTORE PUSH1 0x20 DUP2 ADD SWAP2 SWAP1 SWAP2 MSTORE PUSH1 0x40 ADD SWAP1 JUMP JUMPDEST ISZERO PUSH2 0x2FCE JUMPI JUMP JUMPDEST PUSH1 0x40 MLOAD PUSH3 0x461BCD PUSH1 0xE5 SHL DUP2 MSTORE PUSH1 0x20 PUSH1 0x4 DUP3 ADD MSTORE PUSH1 0x1A PUSH1 0x24 DUP3 ADD MSTORE PUSH26 0x119C99595B185B98D95C881D1C985B9CD9995C8819985A5B1959 PUSH1 0x32 SHL PUSH1 0x44 DUP3 ADD MSTORE PUSH1 0x64 SWAP1 REVERT JUMPDEST ISZERO PUSH2 0x3017 JUMPI JUMP JUMPDEST PUSH1 0x40 MLOAD PUSH3 0x461BCD PUSH1 0xE5 SHL DUP2 MSTORE PUSH1 0x20 PUSH1 0x4 DUP3 ADD MSTORE PUSH1 0x1C PUSH1 0x24 DUP3 ADD MSTORE PUSH28 0x141B185D199BDC9B48199959481D1C985B9CD9995C8819985A5B1959 PUSH1 0x22 SHL PUSH1 0x44 DUP3 ADD MSTORE PUSH1 0x64 SWAP1 REVERT JUMPDEST SWAP1 PUSH1 0x0 SWAP2 DUP1 DUP4 MSTORE PUSH1 0x20 PUSH1 0x2 DUP2 MSTORE PUSH1 0x40 SWAP1 DUP2 DUP6 KECCAK256 SWAP1 PUSH1 0x3 DUP3 ADD SLOAD PUSH2 0x3092 PUSH2 0x3087 PUSH1 0x4 DUP6 ADD SWAP3 DUP4 SLOAD SWAP1 PUSH2 0x2F9F JUMP JUMPDEST PUSH1 0x5 DUP6 ADD SLOAD SWAP1 PUSH2 0x2AAE JUMP JUMPDEST SWAP3 PUSH1 0x2 DUP2 ADD PUSH1 0x1 DUP1 PUSH1 0xA0 SHL SUB DUP1 DUP3 SLOAD AND DUP11 DUP7 PUSH2 0x30CD DUP5 PUSH1 0x1 DUP9 ADD SLOAD AND SWAP4 DUP11 DUP13 MLOAD SWAP5 DUP6 DUP1 SWAP5 DUP2 SWAP4 PUSH4 0xA9059CBB PUSH1 0xE0 SHL SWAP10 DUP11 DUP5 MSTORE PUSH1 0x4 DUP5 ADD PUSH2 0x2FAC JUMP JUMPDEST SUB SWAP3 GAS CALL SWAP1 DUP2 ISZERO PUSH2 0x31C5 JUMPI SWAP1 PUSH2 0x30E9 SWAP2 DUP14 SWAP2 PUSH2 0x31AE JUMPI POP PUSH2 0x2FC7 JUMP JUMPDEST DUP5 SLOAD SWAP3 DUP4 PUSH2 0x3126 JUMPI JUMPDEST POP POP POP POP PUSH1 0x0 DUP1 MLOAD PUSH1 0x20 PUSH2 0x32AE DUP4 CODECOPY DUP2 MLOAD SWAP2 MSTORE SWAP6 SWAP7 SWAP8 POP PUSH1 0xE ADD PUSH2 0x500 PUSH2 0xFF00 NOT DUP3 SLOAD AND OR SWAP1 SSTORE SLOAD SWAP1 DUP4 MLOAD SWAP3 DUP4 MSTORE DUP3 ADD MSTORE LOG2 JUMP JUMPDEST SWAP2 PUSH2 0x314C SWAP4 SWAP2 DUP13 DUP3 DUP10 SWAP6 SLOAD AND SWAP3 PUSH1 0x6 SLOAD AND SWAP2 DUP12 MLOAD SWAP7 DUP8 SWAP6 DUP7 SWAP5 DUP6 SWAP4 DUP5 MSTORE PUSH1 0x4 DUP5 ADD PUSH2 0x2FAC JUMP JUMPDEST SUB SWAP3 GAS CALL SWAP1 DUP2 ISZERO PUSH2 0x31A4 JUMPI PUSH1 0xE SWAP3 SWAP2 PUSH2 0x317C SWAP2 PUSH1 0x0 DUP1 MLOAD PUSH1 0x20 PUSH2 0x32AE DUP4 CODECOPY DUP2 MLOAD SWAP2 MSTORE SWAP10 SWAP11 SWAP12 SWAP2 PUSH2 0x3187 JUMPI POP PUSH2 0x3010 JUMP JUMPDEST SWAP1 DUP9 SWAP8 SWAP7 CODESIZE DUP1 PUSH2 0x30F2 JUMP JUMPDEST PUSH2 0x319E SWAP2 POP DUP7 RETURNDATASIZE DUP9 GT PUSH2 0x36B JUMPI PUSH2 0x35D DUP2 DUP4 PUSH2 0x2824 JUMP JUMPDEST CODESIZE PUSH2 0x171A JUMP JUMPDEST DUP7 MLOAD RETURNDATASIZE DUP12 DUP3 RETURNDATACOPY RETURNDATASIZE SWAP1 REVERT JUMPDEST PUSH2 0x175D SWAP2 POP DUP9 RETURNDATASIZE DUP11 GT PUSH2 0x36B JUMPI PUSH2 0x35D DUP2 DUP4 PUSH2 0x2824 JUMP JUMPDEST DUP10 MLOAD RETURNDATASIZE DUP15 DUP3 RETURNDATACOPY RETURNDATASIZE SWAP1 REVERT JUMPDEST DUP1 ISZERO PUSH2 0x328F JUMPI DUP1 DUP2 PUSH1 0x0 SWAP3 JUMPDEST PUSH2 0x327B JUMPI POP DUP1 PUSH2 0x31EA DUP4 PUSH2 0x2958 JUMP JUMPDEST SWAP3 PUSH2 0x31F8 PUSH1 0x40 MLOAD SWAP5 DUP6 PUSH2 0x2824 JUMP JUMPDEST DUP1 DUP5 MSTORE PUSH1 0x1F NOT PUSH2 0x3207 DUP3 PUSH2 0x2958 JUMP JUMPDEST ADD CALLDATASIZE PUSH1 0x20 DUP7 ADD CALLDATACOPY SWAP2 JUMPDEST PUSH2 0x3219 JUMPI POP POP SWAP1 JUMP JUMPDEST PUSH1 0x0 NOT DUP3 ADD SWAP2 DUP1 DUP4 GT PUSH2 0x6A2 JUMPI DUP3 PUSH1 0xA SWAP1 DUP2 DUP5 DIV SWAP4 DUP3 DUP6 MUL SWAP3 DUP6 DUP5 DIV EQ DUP6 ISZERO OR ISZERO PUSH2 0x6A2 JUMPI PUSH2 0x324B PUSH1 0xFF SWAP4 DUP5 SWAP3 PUSH2 0x2F9F JUMP JUMPDEST AND PUSH1 0x30 ADD SWAP2 DUP3 GT PUSH2 0x6A2 JUMPI DUP6 MLOAD GT ISZERO PUSH2 0x2A1F JUMPI PUSH1 0xF8 SHL PUSH1 0x1 PUSH1 0x1 PUSH1 0xF8 SHL SUB NOT AND PUSH1 0x0 BYTE SWAP1 DUP5 ADD PUSH1 0x1F ADD MSTORE8 DUP1 PUSH2 0x3210 JUMP JUMPDEST SWAP2 PUSH2 0x3287 PUSH1 0xA SWAP2 PUSH2 0x2F90 JUMP JUMPDEST SWAP3 DIV DUP1 PUSH2 0x31DB JUMP JUMPDEST POP PUSH1 0x40 MLOAD PUSH2 0x329C DUP2 PUSH2 0x2809 JUMP JUMPDEST PUSH1 0x1 DUP2 MSTORE PUSH1 0x3 PUSH1 0xFC SHL PUSH1 0x20 DUP3 ADD MSTORE SWAP1 JUMP INVALID RETURN GASLIMIT 0xAE POP PUSH13 0xC2FC158DA1A190933604AB4D54 CALLCODE GASLIMIT SWAP10 CALLDATASIZE NUMBER 0xC5 SLOAD SSTORE SLOAD MULMOD SWAP6 DUP12 EXTCODESIZE DUP13 0xA6 SIGNEXTEND 0x5D 0x5C XOR GASLIMIT DUP13 EXTCODEHASH 0xED CALLVALUE OR EXTCODEHASH SWAP14 0x49 0x29 0xB8 PUSH31 0xE7938E28F3371E694D50079D2B393A8BE0079C531659141344CD1FD0A4F284 NOT 0x49 PUSH32 0x9722A3DAAFE3B4186F6B6457E0A2646970667358221220B3D886D80354A56AB7 GT PUSH17 0x5A62C9CFE99FCC95B68AEC486BC15DA165 DUP13 SWAP5 KECCAK256 0xC0 PUSH5 0x736F6C6343 STOP ADDMOD EQ STOP CALLER "},"methodIdentifiers":{"REVIEW_WINDOW()":"4584712b","REVISION_REVIEW_WINDOW()":"a9e2e09b","SUBMISSION_WINDOW()":"c5fa0649","approveJob(uint256)":"4bd23b9e","arbitrators(address)":"51d0ea37","autoReleasePayment(uint256)":"45f25e5e","defaultArbitrationDeposit()":"465b418e","defaultPlatformFee()":"1c34212c","defaultStakePercentage()":"0d2825a6","fundJob(uint256,address,address,uint256,bool,uint256)":"ee706ade","getJob(uint256)":"bf22c457","getReputationStrikes(address)":"f17f55cd","getRevisions(uint256)":"3ec559c6","jobs(uint256)":"180aedf3","owner()":"8da5cb5b","platformWallet()":"fa2af9da","raiseDispute(uint256)":"a5c1674e","reclaimFunds(uint256)":"f9f161a8","renounceOwnership()":"715018a6","reputationStrikes(address)":"dfc853b2","requestRevision(uint256,string)":"a36697d3","resolveDispute(uint256,uint256,bool,bool,string)":"ab08b598","revisions(uint256,uint256)":"b2dcc623","setArbitrator(address,bool)":"2bc0b076","setPlatformFee(uint256)":"12e8e2c3","setPlatformWallet(address)":"8831e9cf","submitRevision(uint256,string,string)":"816bd4ab","submitWork(uint256,string,string)":"f7cbfd18","transferOwnership(address)":"f2fde38b"}}}}}