{
  "_format": "hh-sol-artifact-1",
  "contractName": "DeFiLanceEscrow",
  "sourceName": "contracts/Escrow.sol",
  "abi": [
    {
      "inputs": [
        {
          "internalType": "address",
          "name": "_platformWallet",
          "type": "address"
        }
      ],
      "stateMutability": "nonpayable",
      "type": "constructor"
    },
    {
      "inputs": [
        {
          "internalType": "address",
          "name": "owner",
          "type": "address"
        }
      ],
      "name": "OwnableInvalidOwner",
      "type": "error"
    },
    {
      "inputs": [
        {
          "internalType": "address",
          "name": "account",
          "type": "address"
        }
      ],
      "name": "OwnableUnauthorizedAccount",
      "type": "error"
    },
    {
      "inputs": [],
      "name": "ReentrancyGuardReentrantCall",
      "type": "error"
    },
    {
      "anonymous": false,
      "inputs": [
        {
          "indexed": true,
          "internalType": "uint256",
          "name": "jobId",
          "type": "uint256"
        },
        {
          "indexed": false,
          "internalType": "uint256",
          "name": "amount",
          "type": "uint256"
        }
      ],
      "name": "AutoReleaseTriggered",
      "type": "event"
    },
    {
      "anonymous": false,
      "inputs": [
        {
          "indexed": true,
          "internalType": "uint256",
          "name": "jobId",
          "type": "uint256"
        },
        {
          "indexed": true,
          "internalType": "address",
          "name": "raiser",
          "type": "address"
        },
        {
          "indexed": false,
          "internalType": "uint256",
          "name": "deposit",
          "type": "uint256"
        }
      ],
      "name": "DisputeRaised",
      "type": "event"
    },
    {
      "anonymous": false,
      "inputs": [
        {
          "indexed": true,
          "internalType": "uint256",
          "name": "jobId",
          "type": "uint256"
        },
        {
          "indexed": false,
          "internalType": "uint256",
          "name": "clientAmount",
          "type": "uint256"
        },
        {
          "indexed": false,
          "internalType": "uint256",
          "name": "freelancerAmount",
          "type": "uint256"
        },
        {
          "indexed": false,
          "internalType": "string",
          "name": "notes",
          "type": "string"
        }
      ],
      "name": "DisputeResolved",
      "type": "event"
    },
    {
      "anonymous": false,
      "inputs": [
        {
          "indexed": true,
          "internalType": "uint256",
          "name": "jobId",
          "type": "uint256"
        },
        {
          "indexed": false,
          "internalType": "uint256",
          "name": "amount",
          "type": "uint256"
        }
      ],
      "name": "FundsReclaimed",
      "type": "event"
    },
    {
      "anonymous": false,
      "inputs": [
        {
          "indexed": true,
          "internalType": "uint256",
          "name": "jobId",
          "type": "uint256"
        },
        {
          "indexed": false,
          "internalType": "uint256",
          "name": "freelancerAmount",
          "type": "uint256"
        },
        {
          "indexed": false,
          "internalType": "uint256",
          "name": "platformFee",
          "type": "uint256"
        }
      ],
      "name": "JobApproved",
      "type": "event"
    },
    {
      "anonymous": false,
      "inputs": [
        {
          "indexed": true,
          "internalType": "uint256",
          "name": "jobId",
          "type": "uint256"
        },
        {
          "indexed": true,
          "internalType": "address",
          "name": "token",
          "type": "address"
        },
        {
          "indexed": false,
          "internalType": "uint256",
          "name": "amount",
          "type": "uint256"
        },
        {
          "indexed": false,
          "internalType": "uint256",
          "name": "stake",
          "type": "uint256"
        }
      ],
      "name": "JobFunded",
      "type": "event"
    },
    {
      "anonymous": false,
      "inputs": [
        {
          "indexed": true,
          "internalType": "address",
          "name": "previousOwner",
          "type": "address"
        },
        {
          "indexed": true,
          "internalType": "address",
          "name": "newOwner",
          "type": "address"
        }
      ],
      "name": "OwnershipTransferred",
      "type": "event"
    },
    {
      "anonymous": false,
      "inputs": [
        {
          "indexed": true,
          "internalType": "uint256",
          "name": "jobId",
          "type": "uint256"
        },
        {
          "indexed": false,
          "internalType": "string",
          "name": "notes",
          "type": "string"
        }
      ],
      "name": "RevisionRequested",
      "type": "event"
    },
    {
      "anonymous": false,
      "inputs": [
        {
          "indexed": true,
          "internalType": "uint256",
          "name": "jobId",
          "type": "uint256"
        },
        {
          "indexed": false,
          "internalType": "uint256",
          "name": "revisionNumber",
          "type": "uint256"
        },
        {
          "indexed": false,
          "internalType": "string",
          "name": "ipfsHash",
          "type": "string"
        }
      ],
      "name": "RevisionSubmitted",
      "type": "event"
    },
    {
      "anonymous": false,
      "inputs": [
        {
          "indexed": true,
          "internalType": "uint256",
          "name": "jobId",
          "type": "uint256"
        },
        {
          "indexed": true,
          "internalType": "address",
          "name": "freelancer",
          "type": "address"
        },
        {
          "indexed": false,
          "internalType": "uint256",
          "name": "amount",
          "type": "uint256"
        }
      ],
      "name": "StakeSlashed",
      "type": "event"
    },
    {
      "anonymous": false,
      "inputs": [
        {
          "indexed": true,
          "internalType": "uint256",
          "name": "jobId",
          "type": "uint256"
        },
        {
          "indexed": false,
          "internalType": "string",
          "name": "ipfsHash",
          "type": "string"
        },
        {
          "indexed": false,
          "internalType": "string",
          "name": "gitCommitHash",
          "type": "string"
        }
      ],
      "name": "WorkSubmitted",
      "type": "event"
    },
    {
      "inputs": [],
      "name": "REVIEW_WINDOW",
      "outputs": [
        {
          "internalType": "uint256",
          "name": "",
          "type": "uint256"
        }
      ],
      "stateMutability": "view",
      "type": "function"
    },
    {
      "inputs": [],
      "name": "REVISION_REVIEW_WINDOW",
      "outputs": [
        {
          "internalType": "uint256",
          "name": "",
          "type": "uint256"
        }
      ],
      "stateMutability": "view",
      "type": "function"
    },
    {
      "inputs": [],
      "name": "SUBMISSION_WINDOW",
      "outputs": [
        {
          "internalType": "uint256",
          "name": "",
          "type": "uint256"
        }
      ],
      "stateMutability": "view",
      "type": "function"
    },
    {
      "inputs": [
        {
          "internalType": "uint256",
          "name": "jobId",
          "type": "uint256"
        }
      ],
      "name": "approveJob",
      "outputs": [],
      "stateMutability": "nonpayable",
      "type": "function"
    },
    {
      "inputs": [
        {
          "internalType": "address",
          "name": "",
          "type": "address"
        }
      ],
      "name": "arbitrators",
      "outputs": [
        {
          "internalType": "bool",
          "name": "",
          "type": "bool"
        }
      ],
      "stateMutability": "view",
      "type": "function"
    },
    {
      "inputs": [
        {
          "internalType": "uint256",
          "name": "jobId",
          "type": "uint256"
        }
      ],
      "name": "autoReleasePayment",
      "outputs": [],
      "stateMutability": "nonpayable",
      "type": "function"
    },
    {
      "inputs": [],
      "name": "defaultArbitrationDeposit",
      "outputs": [
        {
          "internalType": "uint256",
          "name": "",
          "type": "uint256"
        }
      ],
      "stateMutability": "view",
      "type": "function"
    },
    {
      "inputs": [],
      "name": "defaultPlatformFee",
      "outputs": [
        {
          "internalType": "uint256",
          "name": "",
          "type": "uint256"
        }
      ],
      "stateMutability": "view",
      "type": "function"
    },
    {
      "inputs": [],
      "name": "defaultStakePercentage",
      "outputs": [
        {
          "internalType": "uint256",
          "name": "",
          "type": "uint256"
        }
      ],
      "stateMutability": "view",
      "type": "function"
    },
    {
      "inputs": [
        {
          "internalType": "uint256",
          "name": "jobId",
          "type": "uint256"
        },
        {
          "internalType": "address",
          "name": "freelancer",
          "type": "address"
        },
        {
          "internalType": "address",
          "name": "token",
          "type": "address"
        },
        {
          "internalType": "uint256",
          "name": "amount",
          "type": "uint256"
        },
        {
          "internalType": "bool",
          "name": "requiresStake",
          "type": "bool"
        },
        {
          "internalType": "uint256",
          "name": "allowedRevisions",
          "type": "uint256"
        }
      ],
      "name": "fundJob",
      "outputs": [],
      "stateMutability": "nonpayable",
      "type": "function"
    },
    {
      "inputs": [
        {
          "internalType": "uint256",
          "name": "jobId",
          "type": "uint256"
        }
      ],
      "name": "getJob",
      "outputs": [
        {
          "components": [
            {
              "internalType": "address",
              "name": "client",
              "type": "address"
            },
            {
              "internalType": "address",
              "name": "freelancer",
              "type": "address"
            },
            {
              "internalType": "address",
              "name": "token",
              "type": "address"
            },
            {
              "internalType": "uint256",
              "name": "amount",
              "type": "uint256"
            },
            {
              "internalType": "uint256",
              "name": "platformFee",
              "type": "uint256"
            },
            {
              "internalType": "uint256",
              "name": "freelancerStake",
              "type": "uint256"
            },
            {
              "internalType": "uint256",
              "name": "arbitrationDeposit",
              "type": "uint256"
            },
            {
              "internalType": "uint256",
              "name": "submissionDeadline",
              "type": "uint256"
            },
            {
              "internalType": "uint256",
              "name": "reviewDeadline",
              "type": "uint256"
            },
            {
              "internalType": "uint256",
              "name": "approvalDeadline",
              "type": "uint256"
            },
            {
              "internalType": "string",
              "name": "ipfsHash",
              "type": "string"
            },
            {
              "internalType": "string",
              "name": "gitCommitHash",
              "type": "string"
            },
            {
              "internalType": "uint256",
              "name": "currentRevisionNumber",
              "type": "uint256"
            },
            {
              "internalType": "uint256",
              "name": "allowedRevisions",
              "type": "uint256"
            },
            {
              "internalType": "bool",
              "name": "autoReleaseEnabled",
              "type": "bool"
            },
            {
              "internalType": "enum DeFiLanceEscrow.JobStatus",
              "name": "status",
              "type": "uint8"
            },
            {
              "internalType": "bool",
              "name": "exists",
              "type": "bool"
            }
          ],
          "internalType": "struct DeFiLanceEscrow.Job",
          "name": "",
          "type": "tuple"
        }
      ],
      "stateMutability": "view",
      "type": "function"
    },
    {
      "inputs": [
        {
          "internalType": "address",
          "name": "user",
          "type": "address"
        }
      ],
      "name": "getReputationStrikes",
      "outputs": [
        {
          "internalType": "uint256",
          "name": "",
          "type": "uint256"
        }
      ],
      "stateMutability": "view",
      "type": "function"
    },
    {
      "inputs": [
        {
          "internalType": "uint256",
          "name": "jobId",
          "type": "uint256"
        }
      ],
      "name": "getRevisions",
      "outputs": [
        {
          "components": [
            {
              "internalType": "string",
              "name": "ipfsHash",
              "type": "string"
            },
            {
              "internalType": "string",
              "name": "gitCommitHash",
              "type": "string"
            },
            {
              "internalType": "uint256",
              "name": "timestamp",
              "type": "uint256"
            },
            {
              "internalType": "string",
              "name": "notes",
              "type": "string"
            }
          ],
          "internalType": "struct DeFiLanceEscrow.Revision[]",
          "name": "",
          "type": "tuple[]"
        }
      ],
      "stateMutability": "view",
      "type": "function"
    },
    {
      "inputs": [
        {
          "internalType": "uint256",
          "name": "",
          "type": "uint256"
        }
      ],
      "name": "jobs",
      "outputs": [
        {
          "internalType": "address",
          "name": "client",
          "type": "address"
        },
        {
          "internalType": "address",
          "name": "freelancer",
          "type": "address"
        },
        {
          "internalType": "address",
          "name": "token",
          "type": "address"
        },
        {
          "internalType": "uint256",
          "name": "amount",
          "type": "uint256"
        },
        {
          "internalType": "uint256",
          "name": "platformFee",
          "type": "uint256"
        },
        {
          "internalType": "uint256",
          "name": "freelancerStake",
          "type": "uint256"
        },
        {
          "internalType": "uint256",
          "name": "arbitrationDeposit",
          "type": "uint256"
        },
        {
          "internalType": "uint256",
          "name": "submissionDeadline",
          "type": "uint256"
        },
        {
          "internalType": "uint256",
          "name": "reviewDeadline",
          "type": "uint256"
        },
        {
          "internalType": "uint256",
          "name": "approvalDeadline",
          "type": "uint256"
        },
        {
          "internalType": "string",
          "name": "ipfsHash",
          "type": "string"
        },
        {
          "internalType": "string",
          "name": "gitCommitHash",
          "type": "string"
        },
        {
          "internalType": "uint256",
          "name": "currentRevisionNumber",
          "type": "uint256"
        },
        {
          "internalType": "uint256",
          "name": "allowedRevisions",
          "type": "uint256"
        },
        {
          "internalType": "bool",
          "name": "autoReleaseEnabled",
          "type": "bool"
        },
        {
          "internalType": "enum DeFiLanceEscrow.JobStatus",
          "name": "status",
          "type": "uint8"
        },
        {
          "internalType": "bool",
          "name": "exists",
          "type": "bool"
        }
      ],
      "stateMutability": "view",
      "type": "function"
    },
    {
      "inputs": [],
      "name": "owner",
      "outputs": [
        {
          "internalType": "address",
          "name": "",
          "type": "address"
        }
      ],
      "stateMutability": "view",
      "type": "function"
    },
    {
      "inputs": [],
      "name": "platformWallet",
      "outputs": [
        {
          "internalType": "address",
          "name": "",
          "type": "address"
        }
      ],
      "stateMutability": "view",
      "type": "function"
    },
    {
      "inputs": [
        {
          "internalType": "uint256",
          "name": "jobId",
          "type": "uint256"
        }
      ],
      "name": "raiseDispute",
      "outputs": [],
      "stateMutability": "payable",
      "type": "function"
    },
    {
      "inputs": [
        {
          "internalType": "uint256",
          "name": "jobId",
          "type": "uint256"
        }
      ],
      "name": "reclaimFunds",
      "outputs": [],
      "stateMutability": "nonpayable",
      "type": "function"
    },
    {
      "inputs": [],
      "name": "renounceOwnership",
      "outputs": [],
      "stateMutability": "nonpayable",
      "type": "function"
    },
    {
      "inputs": [
        {
          "internalType": "address",
          "name": "",
          "type": "address"
        }
      ],
      "name": "reputationStrikes",
      "outputs": [
        {
          "internalType": "uint256",
          "name": "",
          "type": "uint256"
        }
      ],
      "stateMutability": "view",
      "type": "function"
    },
    {
      "inputs": [
        {
          "internalType": "uint256",
          "name": "jobId",
          "type": "uint256"
        },
        {
          "internalType": "string",
          "name": "notes",
          "type": "string"
        }
      ],
      "name": "requestRevision",
      "outputs": [],
      "stateMutability": "nonpayable",
      "type": "function"
    },
    {
      "inputs": [
        {
          "internalType": "uint256",
          "name": "jobId",
          "type": "uint256"
        },
        {
          "internalType": "uint256",
          "name": "clientPercentage",
          "type": "uint256"
        },
        {
          "internalType": "bool",
          "name": "penalizeClient",
          "type": "bool"
        },
        {
          "internalType": "bool",
          "name": "slashFreelancerStake",
          "type": "bool"
        },
        {
          "internalType": "string",
          "name": "notes",
          "type": "string"
        }
      ],
      "name": "resolveDispute",
      "outputs": [],
      "stateMutability": "nonpayable",
      "type": "function"
    },
    {
      "inputs": [
        {
          "internalType": "uint256",
          "name": "",
          "type": "uint256"
        },
        {
          "internalType": "uint256",
          "name": "",
          "type": "uint256"
        }
      ],
      "name": "revisions",
      "outputs": [
        {
          "internalType": "string",
          "name": "ipfsHash",
          "type": "string"
        },
        {
          "internalType": "string",
          "name": "gitCommitHash",
          "type": "string"
        },
        {
          "internalType": "uint256",
          "name": "timestamp",
          "type": "uint256"
        },
        {
          "internalType": "string",
          "name": "notes",
          "type": "string"
        }
      ],
      "stateMutability": "view",
      "type": "function"
    },
    {
      "inputs": [
        {
          "internalType": "address",
          "name": "arbitrator",
          "type": "address"
        },
        {
          "internalType": "bool",
          "name": "status",
          "type": "bool"
        }
      ],
      "name": "setArbitrator",
      "outputs": [],
      "stateMutability": "nonpayable",
      "type": "function"
    },
    {
      "inputs": [
        {
          "internalType": "uint256",
          "name": "newFee",
          "type": "uint256"
        }
      ],
      "name": "setPlatformFee",
      "outputs": [],
      "stateMutability": "nonpayable",
      "type": "function"
    },
    {
      "inputs": [
        {
          "internalType": "address",
          "name": "newWallet",
          "type": "address"
        }
      ],
      "name": "setPlatformWallet",
      "outputs": [],
      "stateMutability": "nonpayable",
      "type": "function"
    },
    {
      "inputs": [
        {
          "internalType": "uint256",
          "name": "jobId",
          "type": "uint256"
        },
        {
          "internalType": "string",
          "name": "ipfsHash",
          "type": "string"
        },
        {
          "internalType": "string",
          "name": "gitCommitHash",
          "type": "string"
        }
      ],
      "name": "submitRevision",
      "outputs": [],
      "stateMutability": "nonpayable",
      "type": "function"
    },
    {
      "inputs": [
        {
          "internalType": "uint256",
          "name": "jobId",
          "type": "uint256"
        },
        {
          "internalType": "string",
          "name": "ipfsHash",
          "type": "string"
        },
        {
          "internalType": "string",
          "name": "gitCommitHash",
          "type": "string"
        }
      ],
      "name": "submitWork",
      "outputs": [],
      "stateMutability": "nonpayable",
      "type": "function"
    },
    {
      "inputs": [
        {
          "internalType": "address",
          "name": "newOwner",
          "type": "address"
        }
      ],
      "name": "transferOwnership",
      "outputs": [],
      "stateMutability": "nonpayable",
      "type": "function"
    }
  ],
  "bytecode": "0x6080346200014957601f620034a838819003918201601f19168301916001600160401b038311848410176200014e578084926020946040528339810103126200014957516001600160a01b0390818116908190036200014957600090600182553315620001305760018054336001600160a01b03198083168217909355604051959091167f8be0079c531659141344cd1fd0a4f28419497f9722a3daafe3b4186f6b6457e08580a360c86007556101f460085560c86009558115620000ee57604093506006541617600655338152600460205220600160ff198254161790556040516133439081620001658239f35b62461bcd60e51b845260206004850152601760248501527f496e76616c696420706c6174666f726d2077616c6c65740000000000000000006044850152606484fd5b604051631e4fbdf760e01b815260048101839052602490fd5b600080fd5b634e487b7160e01b600052604160045260246000fdfe608080604052600436101561001357600080fd5b60003560e01c9081630d2825a6146127625750806312e8e2c314612704578063180aedf3146125d55780631c34212c146125b75780632bc0b0761461251b5780633ec559c6146123a15780634584712b1461238357806345f25e5e1461224a578063465b418e1461222c5780634bd23b9e1461219257806351d0ea3714612153578063715018a614612108578063816bd4ab14611d315780638831e9cf14611cb55780638da5cb5b14611c8c578063a36697d314611af5578063a5c1674e1461193c578063a9e2e09b1461191e578063ab08b59814611478578063b2dcc623146113d6578063bf22c45714611124578063c5fa064914611106578063dfc853b214610934578063ee706ade1461096e578063f17f55cd14610934578063f2fde38b146108be578063f7cbfd181461046f578063f9f161a81461018c5763fa2af9da1461015e57600080fd5b34610187576000366003190112610187576006546040516001600160a01b039091168152602090f35b600080fd5b34610187576020806003193601126101875760043590816000526002815260018060a01b036101c381604060002054163314612f12565b82600052600282526101e260ff600e6040600020015460101c16612b1f565b6101ea612abb565b8260005260028252604060002090600e82019182549260ff8460081c1660088110156104595760020361041e5760078201544211156103d95761070060038301549461ff001916179055600281019180835416908083541691866040518092816000816102668c63a9059cbb60e01b9a8b845260048401612fac565b03925af1908115610372576000916103bc575b501561037e57600583015493846102bd575b877f65ad908928b1ebf35767b56b1abda7e8daf5dadc57fac823d897b3d4bcb078508888604051908152a26001600055005b9160008260018996946102e798965416940154169160405196879586948593845260048401612fac565b03925af190811561037257600091610345575b501561030a57838080808061028b565b60405162461bcd60e51b815260048101839052601360248201527214dd185ad9481c995d1d5c9b8819985a5b1959606a1b6044820152606490fd5b6103659150833d851161036b575b61035d8183612824565b810190612a74565b846102fa565b503d610353565b6040513d6000823e3d90fd5b60405162461bcd60e51b81526004810187905260166024820152751499599d5b99081d1c985b9cd9995c8819985a5b195960521b6044820152606490fd5b6103d39150873d891161036b5761035d8183612824565b88610279565b60405162461bcd60e51b815260048101869052601e60248201527f5375626d697373696f6e20646561646c696e65206e6f742070617373656400006044820152606490fd5b60405162461bcd60e51b81526004810186905260136024820152724a6f62206e6f7420696e2070726f677265737360681b6044820152606490fd5b634e487b7160e01b600052602160045260246000fd5b346101875761047d366129ba565b908260005260026020526104a260018060a01b03600160406000200154163314612ade565b8260005260026020526104c260ff600e6040600020015460101c16612b1f565b6104ca612abb565b82600052600260205260406000209060ff600e83015460081c1660088110156104595760020361088857600782015442116108465761050b81511515612b60565b80516001600160401b03811161076f57610528600a84015461277d565b601f81116107fb575b50806020601f821160011461079057600091610785575b508160011b916000199060031b1c191617600a8301555b8251600b8301906001600160401b03811161076f5761057e825461277d565b601f8111610727575b50806020601f82116001146106c3576000916106b8575b508160011b916000199060031b1c19161790555b61030061ff0019600e8401541617600e83015562093a804201918242116106a257826008820155620a8c0042018093116106a2577fca89bd73cfbd3577480e30b797049a1c376e9f900e9839f8b4938dbc0f2ac5269361068a936009610698930155856000526003602052610676604060002060405190610632826127b7565b85825283602083015242604083015260405161064d81612809565b601281527124b734ba34b0b61039bab136b4b9b9b4b7b760711b60208201526060830152612ba1565b604051938493604085526040850190612910565b908382036020850152612910565b0390a26001600055005b634e487b7160e01b600052601160045260246000fd5b90508501518761059e565b6000848152602081209250601f198416905b81811061070f575090836001949392106106f6575b5050811b0190556105b2565b87015160001960f88460031b161c1916905587806106ea565b9192602060018192868c0151815501940192016106d5565b826000526020600020601f830160051c81019160208410610765575b601f0160051c01905b8181106107595750610587565b6000815560010161074c565b9091508190610743565b634e487b7160e01b600052604160045260246000fd5b905082015186610548565b600a85016000908152602081209250601f198416905b8181106107e3575090836001949392106107ca575b5050811b01600a83015561055f565b84015160001960f88460031b161c1916905586806107bb565b919260206001819286890151815501940192016107a6565b600a84016000526020600020601f830160051c8101916020841061083c575b601f0160051c01905b8181106108305750610531565b60008155600101610823565b909150819061081a565b60405162461bcd60e51b815260206004820152601a60248201527914dd589b5a5cdcda5bdb88191958591b1a5b99481c185cdcd95960321b6044820152606490fd5b60405162461bcd60e51b815260206004820152600e60248201526d496e76616c69642073746174757360901b6044820152606490fd5b34610187576020366003190112610187576108d7612942565b6108df612a35565b6001600160a01b0390811690811561091b57600180546001600160a01b031981168417909155166000805160206132ee833981519152600080a3005b604051631e4fbdf760e01b815260006004820152602490fd5b34610187576020366003190112610187576001600160a01b03610955612942565b1660005260056020526020604060002054604051908152f35b346101875760c036600319011261018757602480356001600160a01b0381169003610187576044356001600160a01b038116810361018757608435151560843503610187576109bb612abb565b600435600052600260205260ff600e6040600020015460101c166110cd5781356001600160a01b031615611094576064351561105b5760a435156110175761271080610a0b600754606435612a61565b04906084351561100e57610a23600854606435612a61565b04925b6040516323b872dd60e01b815260208180610a48606435303360048501612a8c565b038160006001600160a01b0389165af190811561037257600091610fef575b5015610fb957608435610f19575b62278d004201804211610f045760405192610a8f846127d2565b33845260018060a01b03833516602085015260018060a01b0385166040850152606435606085015260808401528460a0840152600060c084015260e083015260006101008301526000610120830152604051610aea816127ee565b60008152610140830152604051610b00816127ee565b60008152610160830152600061018083015260a4356101a083015260016101c083015260026101e083015260016102008301526004356000526002602052604060002060018060a01b0383511660018060a01b031990818354161782556001820160018060a01b0360208601511682825416179055600282019060018060a01b0360408601511690825416179055606083015160038201556080830151600482015560a0830151600582015560c0830151600682015560e083015160078201556101008301516008820155610120830151600982015561014083015180519060018060401b038211610e1f578190610bfb600a85015461277d565b601f8111610eb1575b50602090601f8311600114610e3f57600092610e34575b50508160011b916000199060031b1c191617600a8201555b6101608301518051906001600160401b038211610e1f57610c57600b84015461277d565b601f8111610dd8575b50602090601f8311600114610d6557600e93929160009183610d5a575b50508160011b916000199060031b1c191617600b8201555b610180840151600c8201556101a0840151600d8201550191610cca6101c08201511515849060ff801983541691151516179055565b6101e0810151916008831015610d46575061ff0062ff00006102008554930151151560101b169260081b169062ffff00191617179055604051916064358352602083015260018060a01b0316907f94091aba73cb1de49078ee312ee5a917b8fa93badf3c2ce89052b36e4ad315db604060043592a36001600055005b634e487b7160e01b60009081526021600452fd5b015190508880610c7d565b90600b840160005260206000209160005b601f1985168110610dc05750918391600193600e9695601f19811610610da7575b505050811b01600b820155610c95565b015160001960f88460031b161c19169055888080610d97565b91926020600181928685015181550194019201610d76565b600b84016000526020600020601f840160051c810160208510610e18575b601f830160051c82018110610e0c575050610c60565b60008155600101610df6565b5080610df6565b83634e487b7160e01b60005260416004526000fd5b015190508780610c1b565b9250600a84016000526020600020906000935b601f1984168510610e96576001945083601f19811610610e7d575b505050811b01600a820155610c33565b015160001960f88460031b161c19169055878080610e6d565b81810151835560209485019460019093019290910190610e52565b909150600a84016000526020600020601f840160051c810160208510610efd575b90849392915b601f830160051c82018110610eee575050610c04565b60008155859450600101610ed8565b5080610ed2565b50634e487b7160e01b60009081526011600452fd5b6040516323b872dd60e01b815260208180610f3a8830873560048501612a8c565b038160006001600160a01b0389165af190811561037257600091610f9a575b50610a755760649060156040519162461bcd60e51b8352602060048401528201527414dd185ad9481d1c985b9cd9995c8819985a5b1959605a1b6044820152fd5b610fb3915060203d60201161036b5761035d8183612824565b85610f59565b606490600f6040519162461bcd60e51b8352602060048401528201526e151c985b9cd9995c8819985a5b1959608a1b6044820152fd5b611008915060203d60201161036b5761035d8183612824565b85610a67565b50600092610a26565b60405162461bcd60e51b815260206004820152601e818401527f4d75737420616c6c6f77206174206c656173742031207265766973696f6e00006044820152606490fd5b60405162461bcd60e51b815260206004820152601281840152710416d6f756e74206d757374206265203e20360741b6044820152606490fd5b60405162461bcd60e51b8152602060048201526012818401527124b73b30b634b210333932b2b630b731b2b960711b6044820152606490fd5b60405162461bcd60e51b815260206004820152601281840152714a6f6220616c72656164792065786973747360701b6044820152606490fd5b3461018757600036600319011261018757602060405162278d008152f35b34610187576020366003190112610187576000610200604051611146816127d2565b8281528260208201528260408201528260608201528260808201528260a08201528260c08201528260e082015282610100820152826101208201526060610140820152606061016082015282610180820152826101a0820152826101c0820152826101e082015201526004358060005260026020526111d260ff600e6040600020015460101c16612b1f565b60005260026020526040600020600e604051916111ee836127d2565b80546001600160a01b03908116845260018201548116602085015260028201541660408401526003810154606084015260048101546080840152600581015460a0840152600681015460c0840152600781015460e084015260088101546101008401526009810154610120840152611268600a8201612847565b61014084015261127a600b8201612847565b610160840152600c810154610180840152600d8101546101a0840152015460ff811615156101c0830152600860ff82821c161015610459578060ff809260081c166101e084015260101c16151561020082015260405180916020825260018060a01b03815116602083015260018060a01b03602082015116604083015260018060a01b03604082015116606083015260608101516080830152608081015160a083015260a081015160c083015260c081015160e083015260e08101516101008301526101008101516101208301526101208101516101408301526101408101516102006113916113796102209384610160880152610240870190612910565b610160850151868203601f1901610180880152612910565b926101808101516101a08601526101a08101516101c08601526101c081015115156101e08601526113ca6101e082015183870190612935565b01511515908301520390f35b3461018757604036600319011261018757602435600435600052600360205260406000208054821015610187576114539161141091612a03565b5061147461141d82612847565b9161142a60018201612847565b61146161143e600360028501549401612847565b91604051968796608088526080880190612910565b908682036020880152612910565b9160408501528382036060850152612910565b0390f35b346101875760a036600319011261018757600435604435602480358215158303610187576064358015158103610187576084356001600160401b038111610187576114c7903690600401612973565b93336000526020936004855260ff60406000205416801561190a575b156118d357866000526002855261150760ff600e6040600020015460101c16612b1f565b61150f612abb565b8660005260028552604060002090600e82019260ff845460081c1660088110156118be57600603611889576127108087116118505761155f9061155760038601549889612a61565b048097612f9f565b80916000146118385750600683015461157791612aae565b9360018060a01b038354166000526005875260406000206115988154612f90565b90555b8061182b575b15611809576115b66005830195865490612aae565b94887fba00be99b4ba100b19f2c080160ab22c2b8f4d62027d6524c532e7578d7a43b4886001860160018060a01b0390818154166000526005835260406000206116008154612f90565b905554169354604051908152a35b84611763575b508261165a575b5093610698916000805160206132ce8339815191529561050061ff00198254161790556040519485948552840152606060408401526060830190612910565b9182600460009793940190611670825484612f9f565b906002810192886116ac60018060a01b03938460018189541692015416956040519d8e8094819363a9059cbb60e01b9a8b845260048401612fac565b03925af1998a1561037257828a956116d16116f09d6000948591611746575b50612fc7565b541692600654169154936040519b8c9586948593845260048401612fac565b03925af192831561037257611720610698946000805160206132ce83398151915298600091611729575b50613010565b9195509161161b565b6117409150883d8a1161036b5761035d8183612824565b8a61171a565b61175d9150893d8b1161036b5761035d8183612824565b386116cb565b611798868660018060a01b038060028701541690865416600060405180968195829463a9059cbb60e01b845260048401612fac565b03925af1908115610372576000916117ec575b50611614578560166064926040519262461bcd60e51b845260048401528201527510db1a595b9d081d1c985b9cd9995c8819985a5b195960521b6044820152fd5b6118039150873d891161036b5761035d8183612824565b896117ab565b60058201548061181a575b5061160e565b6118249194612aae565b9288611814565b50600582015415156115a1565b949561184a9150600684015490612aae565b9461159b565b60405162461bcd60e51b81526004810189905260128185015271496e76616c69642070657263656e7461676560701b6044820152606490fd5b60405162461bcd60e51b815260048101889052600e818401526d4e6f7420696e206469737075746560901b6044820152606490fd5b82634e487b7160e01b60005260216004526000fd5b8460116064926040519262461bcd60e51b84526004840152820152702737ba1030b71030b93134ba3930ba37b960791b6044820152fd5b506001546001600160a01b031633146114e3565b346101875760003660031901126101875760206040516203f4808152f35b60208060031936011261018757600435806000526002825261196b60ff600e6040600020015460101c16612b1f565b611973612abb565b8060005260028252604060002091600e830160ff815460081c1660088110156104595760036119a29114612f4f565b83546001600160a01b03949085163303611ab0576127106119ca600383015460095490612a61565b04946002820154168360405180926323b872dd60e01b8252816000816119f58c303360048501612a8c565b03925af190811561037257600091611a93575b5015611a5457600601849055805461ff00191661060017905560405192835233927fe0e58e9cc5ed7ef092d3e14cff6136d23ebf75a16cf3c8257ef8804811d8b0f39190a36001600055005b60405162461bcd60e51b815260048101849052601760248201527611195c1bdcda5d081d1c985b9cd9995c8819985a5b1959604a1b6044820152606490fd5b611aaa9150843d861161036b5761035d8183612824565b86611a08565b60405162461bcd60e51b815260048101849052601d60248201527f4f6e6c7920636c69656e742063616e20726169736520646973707574650000006044820152606490fd5b34610187576040366003190112610187576004356024356001600160401b03811161018757611b28903690600401612973565b908060005260209160028352611b4c60018060a01b03604060002054163314612f12565b8160005260028352611b6b60ff600e6040600020015460101c16612b1f565b611b73612abb565b8160005260028352604060002092600e840180549060ff8260081c166008811015610459576003611ba49114612f4f565b600c860191825496600d810154881015611c4e57600801544211611c105795611bfa916104007f4c705215bcc0385a7f7728415a5bf16c776bacaedf28a71c5ba5494e87edf0e8979861ff001916179055612f90565b9055610698604051928284938452830190612910565b60405162461bcd60e51b815260048101859052601660248201527514995d9a595dc8191958591b1a5b99481c185cdcd95960521b6044820152606490fd5b60405162461bcd60e51b815260048101869052601660248201527513585e081c995d9a5cda5bdb9cc8195e18d95959195960521b6044820152606490fd5b34610187576000366003190112610187576001546040516001600160a01b039091168152602090f35b3461018757602036600319011261018757611cce612942565b611cd6612a35565b6001600160a01b03168015611cfb57600680546001600160a01b031916919091179055005b60405162461bcd60e51b815260206004820152600e60248201526d125b9d985b1a59081dd85b1b195d60921b6044820152606490fd5b3461018757611d3f366129ba565b90826000526002602052611d6460018060a01b03600160406000200154163314612ade565b826000526002602052611d8460ff600e6040600020015460101c16612b1f565b611d8c612abb565b826000526002602052604060002060ff600e82015460081c166008811015610459576004036120ca57611dc182511515612b60565b81516001600160401b03811161076f57611dde600a83015461277d565b601f811161207f575b50806020601f821160011461201457600091612009575b508160011b916000199060031b1c191617600a8201555b8251600b8201906001600160401b03811161076f57611e34825461277d565b601f8111611fc1575b50806020601f8211600114611f5d57600091611f52575b508160011b916000199060031b1c19161790555b61030061ff0019600e8301541617600e8201556203f48042018042116106a2577f13fd62ef582e52cb5584431b4e39a0a8d2ba972244c0bba0dc4169ba71322ae893611f35916008840155856000526003602052600c6040600020930192611ed084546131cf565b611f10602a6040518093695265766973696f6e202360b01b6020830152611f0081518092602086860191016128ed565b810103600a810184520182612824565b60405192611f1d846127b7565b86845260208401524260408401526060830152612ba1565b546106986040519283928352604060208401526040830190612910565b905085015187611e54565b6000848152602081209250601f198416905b818110611fa957509083600194939210611f90575b5050811b019055611e68565b87015160001960f88460031b161c191690558780611f84565b9192602060018192868c015181550194019201611f6f565b826000526020600020601f830160051c81019160208410611fff575b601f0160051c01905b818110611ff35750611e3d565b60008155600101611fe6565b9091508190611fdd565b905083015186611dfe565b600a84016000908152602081209250601f198416905b8181106120675750908360019493921061204e575b5050811b01600a820155611e15565b85015160001960f88460031b161c19169055868061203f565b9192602060018192868a01518155019401920161202a565b600a83016000526020600020601f830160051c810191602084106120c0575b601f0160051c01905b8181106120b45750611de7565b600081556001016120a7565b909150819061209e565b60405162461bcd60e51b815260206004820152601660248201527514995d9a5cda5bdb881b9bdd081c995c5d595cdd195960521b6044820152606490fd5b3461018757600036600319011261018757612121612a35565b600180546001600160a01b031981169091556000906001600160a01b03166000805160206132ee8339815191528280a3005b34610187576020366003190112610187576001600160a01b03612174612942565b166000526004602052602060ff604060002054166040519015158152f35b34610187576020366003190112610187576004358060005260026020526121c760018060a01b03604060002054163314612f12565b8060005260026020526121e760ff600e6040600020015460101c16612b1f565b6121ef612abb565b80600052600260205260ff600e6040600020015460081c169060088210156104595761222060036122259314612f4f565b61305b565b6001600055005b34610187576000366003190112610187576020600954604051908152f35b34610187576020806003193601126101875760043590816000526002815261227f60ff600e6040600020015460101c16612b1f565b612287612abb565b81600052600281526040600020600e81015460ff8160081c16906008821015610459576122b8600360ff9314612f4f565b1615612346576008810154421115612308579060037ff9721d98857b7e6b07c9823e0fdd765da735587257afcbc98021eb5e15531baf926122f88561305b565b0154604051908152a26001600055005b60405162461bcd60e51b81526004810183905260166024820152752932bb34b2bb903832b934b7b2103737ba1037bb32b960511b6044820152606490fd5b60405162461bcd60e51b8152600481018390526015602482015274105d5d1bcb5c995b19585cd948191a5cd8589b1959605a1b6044820152606490fd5b3461018757600036600319011261018757602060405162093a808152f35b346101875760208060031936011261018757600435806000526002908183526123d760ff600e6040600020015460101c16612b1f565b600090815260038084526040909120805490916001600160401b03821161076f5793926040519461240d858460051b0187612824565b82865284860191829460005285600020916000935b8585106124c257604080518981528a51818b01819052600092600582901b83018101918b918d9085015b8287106124595785850386f35b9091929382806124b2600193603f198a8203018652885161249561248582516080808652850190612910565b8583015184820387860152612910565b916040820151604082015260608092015191818403910152612910565b960192019601959291909261244c565b60048860019260409b9a9b516124d7816127b7565b6124e088612847565b81526124ed858901612847565b83820152868801546040820152612505868901612847565b6060820152815201940194019392979697612422565b3461018757604036600319011261018757612534612942565b60243590811515820361018757612549612a35565b6001600160a01b031690811561257d5761257b91600052600460205260406000209060ff801983541691151516179055565b005b60405162461bcd60e51b815260206004820152601260248201527124b73b30b634b21030b93134ba3930ba37b960711b6044820152606490fd5b34610187576000366003190112610187576020600754604051908152f35b346101875760203660031901126101875760043560005260026020526040600020600160a01b60019003808254169181600182015416916002820154166003820154916004810154600582015460068301546007840154600885015490600986015492600a870161264590612847565b94612652600b8901612847565b96600c8901549a600d8a015499600e01549a6040519e8f9e8f91825260208201526040015260608d015260808c015260a08b015260c08a015260e08901526101008801526101208701526102208061014088015286016126b191612910565b8581036101608701526126c391612910565b926101808501526101a084015260ff811615156101c08401526101e083018160081c60ff16906126f291612935565b60101c60ff1615156102008301520390f35b3461018757602036600319011261018757600435612720612a35565b6103e8811161272e57600755005b60405162461bcd60e51b815260206004820152600c60248201526b08ccaca40e8dede40d0d2ced60a31b6044820152606490fd5b34610187576000366003190112610187576020906008548152f35b90600182811c921680156127ad575b602083101461279757565b634e487b7160e01b600052602260045260246000fd5b91607f169161278c565b608081019081106001600160401b0382111761076f57604052565b61022081019081106001600160401b0382111761076f57604052565b602081019081106001600160401b0382111761076f57604052565b604081019081106001600160401b0382111761076f57604052565b601f909101601f19168101906001600160401b0382119082101761076f57604052565b906040519182600082549261285b8461277d565b9081845260019485811690816000146128ca5750600114612887575b505061288592500383612824565b565b9093915060005260209081600020936000915b8183106128b257505061288593508201013880612877565b8554888401850152948501948794509183019161289a565b91505061288594506020925060ff191682840152151560051b8201013880612877565b60005b8381106129005750506000910152565b81810151838201526020016128f0565b90602091612929815180928185528580860191016128ed565b601f01601f1916010190565b9060088210156104595752565b600435906001600160a01b038216820361018757565b6001600160401b03811161076f57601f01601f191660200190565b81601f820112156101875780359061298a82612958565b926129986040519485612824565b8284526020838301011161018757816000926020809301838601378301015290565b606060031982011261018757600435916001600160401b0360243581811161018757836129e991600401612973565b9260443591821161018757612a0091600401612973565b90565b8054821015612a1f5760005260206000209060021b0190600090565b634e487b7160e01b600052603260045260246000fd5b6001546001600160a01b03163303612a4957565b60405163118cdaa760e01b8152336004820152602490fd5b818102929181159184041417156106a257565b90816020910312610187575180151581036101875790565b6001600160a01b03918216815291166020820152604081019190915260600190565b919082018092116106a257565b600260005414612acc576002600055565b604051633ee5aeb560e01b8152600490fd5b15612ae557565b60405162461bcd60e51b81526020600482015260126024820152712737ba103a343290333932b2b630b731b2b960711b6044820152606490fd5b15612b2657565b60405162461bcd60e51b8152602060048201526012602482015271129bd888191bd95cc81b9bdd08195e1a5cdd60721b6044820152606490fd5b15612b6757565b60405162461bcd60e51b815260206004820152601260248201527112541194c81a185cda081c995c5d5a5c995960721b6044820152606490fd5b8054600160401b81101561076f57612bc0906001928382018155612a03565b612efc57825180516001600160401b03929083811161076f5780612be4835461277d565b93601f94858111612ea8575b50602090858311600114612e4557600092612e3a575b5050600019600383901b1c191690851b1781555b838101602086015180519085821161076f57612c36835461277d565b858111612df2575b50602090858311600114612d855791806003949260609694600092612d7a575b505060001982861b1c191690881b1790555b6040870151600282015501940151805192831161076f57612c91855461277d565b828111612d32575b506020918311600114612cd257928293918392600094612cc7575b50501b916000199060031b1c1916179055565b015192503880612cb4565b90601f198316918560005283826000209360005b87828210612d1957505010612d00575b505050811b019055565b015160001960f88460031b161c19169055388080612cf6565b8486015187559095019460209485019487935001612ce6565b8560005260206000208380860160051c82019260208710612d71575b0160051c019085905b828110612d65575050612c99565b60008155018590612d57565b92508192612d4e565b015190503880612c5e565b879291601f1983169185600052816000209260005b818110612dda57509160609795939185600398969410612dc2575b505050811b019055612c70565b015160001983881b60f8161c19169055388080612db5565b8284015185558b969094019360209384019301612d9a565b8360005260206000208680850160051c82019260208610612e31575b0160051c019088905b828110612e25575050612c3e565b60008155018890612e17565b92508192612e0e565b015190503880612c06565b90879350601f1983169185600052816000209260005b818110612e9057508411612e77575b505050811b018155612c1a565b015160001960f88460031b161c19169055388080612e6a565b8284015185558a969094019360209384019301612e5b565b9091506000848152602081208680860160051c82019360208710612ef3575b918a9187969594930160051c01925b838110612ee557505050612bf0565b8281558695508a9101612ed6565b93508193612ec7565b634e487b7160e01b600052600060045260246000fd5b15612f1957565b60405162461bcd60e51b815260206004820152600e60248201526d139bdd081d1a194818db1a595b9d60921b6044820152606490fd5b15612f5657565b60405162461bcd60e51b815260206004820152601260248201527115dbdc9ac81b9bdd081cdd589b5a5d1d195960721b6044820152606490fd5b60001981146106a25760010190565b919082039182116106a257565b6001600160a01b039091168152602081019190915260400190565b15612fce57565b60405162461bcd60e51b815260206004820152601a602482015279119c99595b185b98d95c881d1c985b9cd9995c8819985a5b195960321b6044820152606490fd5b1561301757565b60405162461bcd60e51b815260206004820152601c60248201527b141b185d199bdc9b48199959481d1c985b9cd9995c8819985a5b195960221b6044820152606490fd5b906000918083526020600281526040908185209060038201546130926130876004850192835490612f9f565b600585015490612aae565b926002810160018060a01b03808254168a866130cd84600188015416938a8c5194858094819363a9059cbb60e01b998a845260048401612fac565b03925af19081156131c557906130e9918d916131ae5750612fc7565b84549283613126575b505050506000805160206132ae83398151915295969750600e0161050061ff001982541617905554908351928352820152a2565b9161314c93918c82899554169260065416918b5196879586948593845260048401612fac565b03925af19081156131a457600e929161317c916000805160206132ae833981519152999a9b916131875750613010565b9088979638806130f2565b61319e9150863d881161036b5761035d8183612824565b3861171a565b86513d8b823e3d90fd5b61175d9150883d8a1161036b5761035d8183612824565b89513d8e823e3d90fd5b801561328f5780816000925b61327b5750806131ea83612958565b926131f86040519485612824565b808452601f1961320782612958565b01366020860137915b61321957505090565b6000198201918083116106a25782600a90818404938285029285840414851517156106a25761324b60ff938492612f9f565b166030019182116106a25785511115612a1f5760f81b6001600160f81b03191660001a908401601f015380613210565b91613287600a91612f90565b9204806131db565b5060405161329c81612809565b60018152600360fc1b60208201529056fef345ae506cc2fc158da1a190933604ab4d54f245993643c554555409958b3b8ca60b5d5c18458c3fed34173f9d4929b87ee7938e28f3371e694d50079d2b393a8be0079c531659141344cd1fd0a4f28419497f9722a3daafe3b4186f6b6457e0a2646970667358221220b3d886d80354a56ab711705a62c9cfe99fcc95b68aec486bc15da1658c9420c064736f6c63430008140033",
  "linkReferences": {},
  "deployedLinkReferences": {}
}